{
	"contractName": "DealTokenFactory",
	"abi": [
		{
			"inputs": [],
			"name": "tokenAddr",
			"outputs": [
				{
					"internalType": "address",
					"name": "",
					"type": "address"
				}
			],
			"stateMutability": "view",
			"type": "function"
		},
		{
			"inputs": [],
			"name": "tokenCount",
			"outputs": [
				{
					"internalType": "uint256",
					"name": "",
					"type": "uint256"
				}
			],
			"stateMutability": "view",
			"type": "function"
		},
		{
			"inputs": [
				{
					"internalType": "address",
					"name": "",
					"type": "address"
				},
				{
					"internalType": "uint256",
					"name": "",
					"type": "uint256"
				}
			],
			"name": "tokenCreated",
			"outputs": [
				{
					"internalType": "address",
					"name": "",
					"type": "address"
				}
			],
			"stateMutability": "view",
			"type": "function"
		},
		{
			"inputs": [
				{
					"internalType": "string",
					"name": "_name",
					"type": "string"
				},
				{
					"internalType": "string",
					"name": "_symbol",
					"type": "string"
				},
				{
					"internalType": "uint256",
					"name": "_totalSupply",
					"type": "uint256"
				}
			],
			"name": "createToken",
			"outputs": [
				{
					"internalType": "address",
					"name": "",
					"type": "address"
				}
			],
			"stateMutability": "nonpayable",
			"type": "function"
		}
	],
	"bytecode": "0x608060405234801561001057600080fd5b506111c3806100206000396000f3fe608060405234801561001057600080fd5b506004361061004c5760003560e01c80634dba6bce146100515780635b0605301461007a5780635fbe4d1d1461008d5780639f181b5e14610095575b600080fd5b61006461005f366004610233565b6100aa565b604051610071919061031e565b60405180910390f35b610064610088366004610269565b6100e2565b610064610190565b61009d61019f565b604051610071919061037a565b600260205281600052604060002081815481106100c657600080fd5b6000918252602090912001546001600160a01b03169150829050565b600080338585856040516100f5906101a5565b6101029493929190610332565b604051809103906000f08015801561011e573d6000803e3d6000fd5b50600180546001600160a01b038084166001600160a01b031992831617808455336000908152600260209081526040822080549687018155825281209094018054909316911617905580549192508061017683610383565b90915550506001546001600160a01b031695945050505050565b6001546001600160a01b031681565b60005481565b610dcd806103c183390190565b600082601f8301126101c2578081fd5b813567ffffffffffffffff808211156101dd576101dd6103aa565b604051601f8301601f191681016020018281118282101715610201576102016103aa565b604052828152848301602001861015610218578384fd5b82602086016020830137918201602001929092529392505050565b60008060408385031215610245578182fd5b82356001600160a01b038116811461025b578283fd5b946020939093013593505050565b60008060006060848603121561027d578081fd5b833567ffffffffffffffff80821115610294578283fd5b6102a0878388016101b2565b945060208601359150808211156102b5578283fd5b506102c2868287016101b2565b925050604084013590509250925092565b60008151808452815b818110156102f8576020818501810151868301820152016102dc565b818111156103095782602083870101525b50601f01601f19169290920160200192915050565b6001600160a01b0391909116815260200190565b6001600160a01b0385168152608060208201819052600090610356908301866102d3565b828103604084015261036881866102d3565b91505082606083015295945050505050565b90815260200190565b60006000198214156103a357634e487b7160e01b81526011600452602481fd5b5060010190565b634e487b7160e01b600052604160045260246000fdfe60806040523480156200001157600080fd5b5060405162000dcd38038062000dcd8339810160408190526200003491620002ba565b8251839083906200004d90600390602085019062000169565b5080516200006390600490602084019062000169565b5050506200007884826200008260201b60201c565b5050505062000400565b6001600160a01b038216620000b45760405162461bcd60e51b8152600401620000ab9062000348565b60405180910390fd5b620000c26000838362000164565b8060026000828254620000d6919062000388565b90915550506001600160a01b038216600090815260208190526040812080548392906200010590849062000388565b90915550506040516001600160a01b038316906000907fddf252ad1be2c89b69c2b068fc378daa952ba7f163c4a11628f55a4df523b3ef906200014a9085906200037f565b60405180910390a3620001606000838362000164565b5050565b505050565b8280546200017790620003ad565b90600052602060002090601f0160209004810192826200019b5760008555620001e6565b82601f10620001b657805160ff1916838001178555620001e6565b82800160010185558215620001e6579182015b82811115620001e6578251825591602001919060010190620001c9565b50620001f4929150620001f8565b5090565b5b80821115620001f45760008155600101620001f9565b600082601f83011262000220578081fd5b81516001600160401b03808211156200023d576200023d620003ea565b6040516020601f8401601f1916820181018381118382101715620002655762000265620003ea565b60405283825285840181018710156200027c578485fd5b8492505b838310156200029f578583018101518284018201529182019162000280565b83831115620002b057848185840101525b5095945050505050565b60008060008060808587031215620002d0578384fd5b84516001600160a01b0381168114620002e7578485fd5b60208601519094506001600160401b038082111562000304578485fd5b62000312888389016200020f565b9450604087015191508082111562000328578384fd5b5062000337878288016200020f565b606096909601519497939650505050565b6020808252601f908201527f45524332303a206d696e7420746f20746865207a65726f206164647265737300604082015260600190565b90815260200190565b60008219821115620003a857634e487b7160e01b81526011600452602481fd5b500190565b600281046001821680620003c257607f821691505b60208210811415620003e457634e487b7160e01b600052602260045260246000fd5b50919050565b634e487b7160e01b600052604160045260246000fd5b6109bd80620004106000396000f3fe608060405234801561001057600080fd5b50600436106100a95760003560e01c80633950935111610071578063395093511461012957806370a082311461013c57806395d89b411461014f578063a457c2d714610157578063a9059cbb1461016a578063dd62ed3e1461017d576100a9565b806306fdde03146100ae578063095ea7b3146100cc57806318160ddd146100ec57806323b872dd14610101578063313ce56714610114575b600080fd5b6100b6610190565b6040516100c391906106dd565b60405180910390f35b6100df6100da3660046106a9565b610222565b6040516100c391906106d2565b6100f461023f565b6040516100c39190610911565b6100df61010f36600461066e565b610245565b61011c6102de565b6040516100c3919061091a565b6100df6101373660046106a9565b6102e3565b6100f461014a36600461061b565b610337565b6100b6610356565b6100df6101653660046106a9565b610365565b6100df6101783660046106a9565b6103de565b6100f461018b36600461063c565b6103f2565b60606003805461019f9061094c565b80601f01602080910402602001604051908101604052809291908181526020018280546101cb9061094c565b80156102185780601f106101ed57610100808354040283529160200191610218565b820191906000526020600020905b8154815290600101906020018083116101fb57829003601f168201915b5050505050905090565b600061023661022f61041d565b8484610421565b50600192915050565b60025490565b60006102528484846104d5565b6001600160a01b03841660009081526001602052604081208161027361041d565b6001600160a01b03166001600160a01b03168152602001908152602001600020549050828110156102bf5760405162461bcd60e51b81526004016102b6906107fb565b60405180910390fd5b6102d3856102cb61041d565b858403610421565b506001949350505050565b601290565b60006102366102f061041d565b8484600160006102fe61041d565b6001600160a01b03908116825260208083019390935260409182016000908120918b16815292529020546103329190610928565b610421565b6001600160a01b0381166000908152602081905260409020545b919050565b60606004805461019f9061094c565b6000806001600061037461041d565b6001600160a01b03908116825260208083019390935260409182016000908120918816815292529020549050828110156103c05760405162461bcd60e51b81526004016102b6906108cc565b6103d46103cb61041d565b85858403610421565b5060019392505050565b60006102366103eb61041d565b84846104d5565b6001600160a01b03918216600090815260016020908152604080832093909416825291909152205490565b3390565b6001600160a01b0383166104475760405162461bcd60e51b81526004016102b690610888565b6001600160a01b03821661046d5760405162461bcd60e51b81526004016102b690610773565b6001600160a01b0380841660008181526001602090815260408083209487168084529490915290819020849055517f8c5be1e5ebec7d5bd14f71427d1e84f3dd0314c0f7b2291e5b200ac8c7c3b925906104c8908590610911565b60405180910390a3505050565b6001600160a01b0383166104fb5760405162461bcd60e51b81526004016102b690610843565b6001600160a01b0382166105215760405162461bcd60e51b81526004016102b690610730565b61052c8383836105ff565b6001600160a01b038316600090815260208190526040902054818110156105655760405162461bcd60e51b81526004016102b6906107b5565b6001600160a01b0380851660009081526020819052604080822085850390559185168152908120805484929061059c908490610928565b92505081905550826001600160a01b0316846001600160a01b03167fddf252ad1be2c89b69c2b068fc378daa952ba7f163c4a11628f55a4df523b3ef846040516105e69190610911565b60405180910390a36105f98484846105ff565b50505050565b505050565b80356001600160a01b038116811461035157600080fd5b60006020828403121561062c578081fd5b61063582610604565b9392505050565b6000806040838503121561064e578081fd5b61065783610604565b915061066560208401610604565b90509250929050565b600080600060608486031215610682578081fd5b61068b84610604565b925061069960208501610604565b9150604084013590509250925092565b600080604083850312156106bb578182fd5b6106c483610604565b946020939093013593505050565b901515815260200190565b6000602080835283518082850152825b81811015610709578581018301518582016040015282016106ed565b8181111561071a5783604083870101525b50601f01601f1916929092016040019392505050565b60208082526023908201527f45524332303a207472616e7366657220746f20746865207a65726f206164647260408201526265737360e81b606082015260800190565b60208082526022908201527f45524332303a20617070726f766520746f20746865207a65726f206164647265604082015261737360f01b606082015260800190565b60208082526026908201527f45524332303a207472616e7366657220616d6f756e7420657863656564732062604082015265616c616e636560d01b606082015260800190565b60208082526028908201527f45524332303a207472616e7366657220616d6f756e74206578636565647320616040820152676c6c6f77616e636560c01b606082015260800190565b60208082526025908201527f45524332303a207472616e736665722066726f6d20746865207a65726f206164604082015264647265737360d81b606082015260800190565b60208082526024908201527f45524332303a20617070726f76652066726f6d20746865207a65726f206164646040820152637265737360e01b606082015260800190565b60208082526025908201527f45524332303a2064656372656173656420616c6c6f77616e63652062656c6f77604082015264207a65726f60d81b606082015260800190565b90815260200190565b60ff91909116815260200190565b6000821982111561094757634e487b7160e01b81526011600452602481fd5b500190565b60028104600182168061096057607f821691505b6020821081141561098157634e487b7160e01b600052602260045260246000fd5b5091905056fea26469706673582212204dea2207fe4b539f920c1649ed298b08169d4f18a13727ae7d30736313e60a7664736f6c63430008000033a26469706673582212209ae1c6234faad17775783dfdb71c56cd34c7e3875195350cd57118c1bd14a18364736f6c63430008000033",
	"immutableReferences": {},
	"source": "//SPDX-License-Identifier: GPL-3.0\n\npragma solidity ^0.8.0;\n\n//import \"https://github.com/OpenZeppelin/openzeppelin-contracts/blob/master/contracts/utils/math/SafeMath.sol\";\n//import \"https://github.com/OpenZeppelin/openzeppelin-contracts/blob/master/contracts/access/Ownable.sol\";\nimport \"./DealToken.sol\";\n\n/**\n * @title DealTokenFactory\n * author 0xYue\n * @dev Create new deal tokens from here and keep track of all tokens issued\n */\ncontract DealTokenFactory {\n    uint256 public tokenCount;\n    address public tokenAddr;\n\n    mapping(address => address[]) public tokenCreated;\n\n    function createToken(\n        string memory _name,\n        string memory _symbol,\n        uint256 _totalSupply\n    ) public returns (address) {\n        DealToken dealToken = new DealToken(\n            msg.sender,\n            _name,\n            _symbol,\n            _totalSupply\n        );\n\n        tokenAddr = address(dealToken);\n        tokenCreated[msg.sender].push() = tokenAddr;\n        tokenCount++;\n\n        return tokenAddr;\n    }\n}\n",
	"sourcePath": "/home/yosephkurniasoenggoro/Documents/GitHub/PrimeDefi/contracts/DealTokenFactory.sol",
	"compiler": {
		"name": "solc",
		"version": "0.8.0+commit.c7dfd78e.Emscripten.clang"
	},
	"schemaVersion": "3.4.3",
	"updatedAt": "2021-11-20T04:30:34.890Z",
	"devdoc": {
		"details": "Create new deal tokens from here and keep track of all tokens issued",
		"kind": "dev",
		"methods": {},
		"title": "DealTokenFactory author 0xYue",
		"version": 1
	},
	"userdoc": {
		"kind": "user",
		"methods": {},
		"version": 1
	}
}