{
  "contractName": "Deal",
  "abi": [
    {
      "inputs": [],
      "stateMutability": "nonpayable",
      "type": "constructor"
    },
    {
      "anonymous": false,
      "inputs": [
        {
          "indexed": true,
          "internalType": "address",
          "name": "_issuer",
          "type": "address"
        },
        {
          "indexed": true,
          "internalType": "string",
          "name": "_ISIN",
          "type": "string"
        }
      ],
      "name": "LogCancelDeal",
      "type": "event"
    },
    {
      "anonymous": false,
      "inputs": [
        {
          "indexed": true,
          "internalType": "address",
          "name": "_issuer",
          "type": "address"
        },
        {
          "indexed": true,
          "internalType": "string",
          "name": "_ISIN",
          "type": "string"
        },
        {
          "indexed": false,
          "internalType": "string",
          "name": "_dealName",
          "type": "string"
        },
        {
          "indexed": false,
          "internalType": "uint256",
          "name": "_initSize",
          "type": "uint256"
        },
        {
          "indexed": false,
          "internalType": "uint256",
          "name": "_minSize",
          "type": "uint256"
        },
        {
          "indexed": false,
          "internalType": "uint256",
          "name": "_faceValue",
          "type": "uint256"
        },
        {
          "indexed": false,
          "internalType": "uint256",
          "name": "_offerPrice",
          "type": "uint256"
        },
        {
          "indexed": false,
          "internalType": "uint256",
          "name": "_offerStartTime",
          "type": "uint256"
        },
        {
          "indexed": false,
          "internalType": "uint256",
          "name": "_offerCloseTime",
          "type": "uint256"
        },
        {
          "indexed": false,
          "internalType": "uint256",
          "name": "_term",
          "type": "uint256"
        },
        {
          "indexed": false,
          "internalType": "uint256",
          "name": "_interestRate",
          "type": "uint256"
        },
        {
          "indexed": false,
          "internalType": "uint256[]",
          "name": "_interestPaymentDates",
          "type": "uint256[]"
        },
        {
          "indexed": false,
          "internalType": "uint256",
          "name": "_upfrontFee",
          "type": "uint256"
        }
      ],
      "name": "LogCreateDealIssuance",
      "type": "event"
    },
    {
      "anonymous": false,
      "inputs": [
        {
          "indexed": true,
          "internalType": "address",
          "name": "_issuer",
          "type": "address"
        },
        {
          "indexed": false,
          "internalType": "string",
          "name": "_name",
          "type": "string"
        },
        {
          "indexed": false,
          "internalType": "string",
          "name": "_creditRating",
          "type": "string"
        }
      ],
      "name": "LogCreateIssuer",
      "type": "event"
    },
    {
      "anonymous": false,
      "inputs": [
        {
          "indexed": true,
          "internalType": "address",
          "name": "_issuer",
          "type": "address"
        },
        {
          "indexed": true,
          "internalType": "string",
          "name": "_ISIN",
          "type": "string"
        },
        {
          "indexed": false,
          "internalType": "string",
          "name": "_name",
          "type": "string"
        },
        {
          "indexed": false,
          "internalType": "string",
          "name": "_symbol",
          "type": "string"
        },
        {
          "indexed": false,
          "internalType": "uint256",
          "name": "_totalSupply",
          "type": "uint256"
        }
      ],
      "name": "LogCreateToken",
      "type": "event"
    },
    {
      "anonymous": false,
      "inputs": [
        {
          "indexed": true,
          "internalType": "address",
          "name": "_issuer",
          "type": "address"
        },
        {
          "indexed": true,
          "internalType": "string",
          "name": "_ISIN",
          "type": "string"
        },
        {
          "indexed": false,
          "internalType": "string",
          "name": "_newDealName",
          "type": "string"
        },
        {
          "indexed": false,
          "internalType": "uint256",
          "name": "_newInitSize",
          "type": "uint256"
        },
        {
          "indexed": false,
          "internalType": "uint256",
          "name": "_newMinSize",
          "type": "uint256"
        },
        {
          "indexed": false,
          "internalType": "uint256",
          "name": "_newOfferPrice",
          "type": "uint256"
        },
        {
          "indexed": false,
          "internalType": "uint256",
          "name": "_newOfferCloseTime",
          "type": "uint256"
        },
        {
          "indexed": false,
          "internalType": "uint256",
          "name": "_newTerm",
          "type": "uint256"
        },
        {
          "indexed": false,
          "internalType": "uint256",
          "name": "_newInterestRate",
          "type": "uint256"
        },
        {
          "indexed": false,
          "internalType": "uint256[]",
          "name": "_newInterestPaymentDates",
          "type": "uint256[]"
        },
        {
          "indexed": false,
          "internalType": "uint256",
          "name": "_newUpfrontFee",
          "type": "uint256"
        },
        {
          "indexed": false,
          "internalType": "uint256",
          "name": "_newEscrowRatio",
          "type": "uint256"
        }
      ],
      "name": "LogEditDealIssuance",
      "type": "event"
    },
    {
      "anonymous": false,
      "inputs": [
        {
          "indexed": true,
          "internalType": "address",
          "name": "_issuer",
          "type": "address"
        },
        {
          "indexed": false,
          "internalType": "string",
          "name": "_name",
          "type": "string"
        },
        {
          "indexed": false,
          "internalType": "string",
          "name": "_creditRating",
          "type": "string"
        }
      ],
      "name": "LogEditIssuerMetaData",
      "type": "event"
    },
    {
      "anonymous": false,
      "inputs": [
        {
          "indexed": true,
          "internalType": "address",
          "name": "_issuer",
          "type": "address"
        },
        {
          "indexed": true,
          "internalType": "string",
          "name": "_ISIN",
          "type": "string"
        },
        {
          "indexed": false,
          "internalType": "string",
          "name": "_newName",
          "type": "string"
        }
      ],
      "name": "LogEditTokenMetaData",
      "type": "event"
    },
    {
      "anonymous": false,
      "inputs": [
        {
          "indexed": true,
          "internalType": "address",
          "name": "_issuer",
          "type": "address"
        },
        {
          "indexed": true,
          "internalType": "string",
          "name": "_ISIN",
          "type": "string"
        },
        {
          "indexed": false,
          "internalType": "address",
          "name": "_token",
          "type": "address"
        },
        {
          "indexed": false,
          "internalType": "uint256",
          "name": "_finalSize",
          "type": "uint256"
        },
        {
          "indexed": false,
          "internalType": "address[]",
          "name": "_investors",
          "type": "address[]"
        }
      ],
      "name": "LogIssueNewDeal",
      "type": "event"
    },
    {
      "anonymous": false,
      "inputs": [
        {
          "indexed": true,
          "internalType": "string",
          "name": "_ISIN",
          "type": "string"
        },
        {
          "indexed": false,
          "internalType": "address",
          "name": "_token",
          "type": "address"
        },
        {
          "indexed": false,
          "internalType": "address",
          "name": "_investorAddr",
          "type": "address"
        },
        {
          "indexed": false,
          "internalType": "uint256",
          "name": "_tokenAmount",
          "type": "uint256"
        }
      ],
      "name": "LogTransferDealToken",
      "type": "event"
    },
    {
      "inputs": [],
      "name": "USDC",
      "outputs": [
        {
          "internalType": "address",
          "name": "",
          "type": "address"
        }
      ],
      "stateMutability": "view",
      "type": "function"
    },
    {
      "inputs": [],
      "name": "dealCount",
      "outputs": [
        {
          "internalType": "uint256",
          "name": "",
          "type": "uint256"
        }
      ],
      "stateMutability": "view",
      "type": "function"
    },
    {
      "inputs": [],
      "name": "factory",
      "outputs": [
        {
          "internalType": "contract DealTokenFactory",
          "name": "",
          "type": "address"
        }
      ],
      "stateMutability": "view",
      "type": "function"
    },
    {
      "inputs": [],
      "name": "issuerCount",
      "outputs": [
        {
          "internalType": "uint256",
          "name": "",
          "type": "uint256"
        }
      ],
      "stateMutability": "view",
      "type": "function"
    },
    {
      "inputs": [],
      "name": "manager",
      "outputs": [
        {
          "internalType": "contract DealTokenManager",
          "name": "",
          "type": "address"
        }
      ],
      "stateMutability": "view",
      "type": "function"
    },
    {
      "inputs": [],
      "name": "tokenCount",
      "outputs": [
        {
          "internalType": "uint256",
          "name": "",
          "type": "uint256"
        }
      ],
      "stateMutability": "view",
      "type": "function"
    },
    {
      "inputs": [],
      "name": "totalInvestorCount",
      "outputs": [
        {
          "internalType": "uint256",
          "name": "",
          "type": "uint256"
        }
      ],
      "stateMutability": "view",
      "type": "function"
    },
    {
      "inputs": [
        {
          "internalType": "address",
          "name": "",
          "type": "address"
        },
        {
          "internalType": "uint256",
          "name": "",
          "type": "uint256"
        }
      ],
      "name": "tracker_0x_addresses",
      "outputs": [
        {
          "internalType": "address",
          "name": "",
          "type": "address"
        }
      ],
      "stateMutability": "view",
      "type": "function"
    },
    {
      "inputs": [
        {
          "internalType": "string",
          "name": "_name",
          "type": "string"
        },
        {
          "internalType": "string",
          "name": "_creditRating",
          "type": "string"
        }
      ],
      "name": "createIssuer",
      "outputs": [],
      "stateMutability": "nonpayable",
      "type": "function"
    },
    {
      "inputs": [
        {
          "internalType": "address",
          "name": "_addr",
          "type": "address"
        },
        {
          "internalType": "string",
          "name": "_newName",
          "type": "string"
        },
        {
          "internalType": "string",
          "name": "_newCreditRating",
          "type": "string"
        }
      ],
      "name": "editIssuerMetaData",
      "outputs": [],
      "stateMutability": "nonpayable",
      "type": "function"
    },
    {
      "inputs": [
        {
          "internalType": "address",
          "name": "_addr",
          "type": "address"
        }
      ],
      "name": "getAllIssuerDetailsByAddr",
      "outputs": [
        {
          "internalType": "string",
          "name": "name",
          "type": "string"
        },
        {
          "internalType": "string",
          "name": "creditRating",
          "type": "string"
        },
        {
          "internalType": "string[]",
          "name": "dealsIssued",
          "type": "string[]"
        },
        {
          "internalType": "uint256",
          "name": "totalIssuedAmount",
          "type": "uint256"
        },
        {
          "internalType": "uint256",
          "name": "totalEscrowFundLockedIn",
          "type": "uint256"
        },
        {
          "internalType": "uint256",
          "name": "totalAvailBalance",
          "type": "uint256"
        }
      ],
      "stateMutability": "view",
      "type": "function"
    },
    {
      "inputs": [
        {
          "internalType": "string",
          "name": "_ISIN",
          "type": "string"
        }
      ],
      "name": "getIssuerMetaDataByISIN",
      "outputs": [
        {
          "internalType": "string",
          "name": "issuerName",
          "type": "string"
        },
        {
          "internalType": "string",
          "name": "creditRating",
          "type": "string"
        }
      ],
      "stateMutability": "view",
      "type": "function"
    },
    {
      "inputs": [
        {
          "internalType": "address",
          "name": "_addr",
          "type": "address"
        }
      ],
      "name": "getAllInvestorDetails",
      "outputs": [
        {
          "internalType": "string[]",
          "name": "dealsBidded",
          "type": "string[]"
        },
        {
          "internalType": "uint256",
          "name": "totalBalance",
          "type": "uint256"
        },
        {
          "internalType": "uint256",
          "name": "totalLockedInBid",
          "type": "uint256"
        },
        {
          "internalType": "uint256",
          "name": "availBalance",
          "type": "uint256"
        }
      ],
      "stateMutability": "view",
      "type": "function"
    },
    {
      "inputs": [
        {
          "internalType": "string",
          "name": "_ISIN",
          "type": "string"
        }
      ],
      "name": "getIssuanceStateNameRateDatesDetailsByISIN",
      "outputs": [
        {
          "internalType": "enum State",
          "name": "state",
          "type": "uint8"
        },
        {
          "internalType": "string",
          "name": "dealName",
          "type": "string"
        },
        {
          "internalType": "uint256",
          "name": "offerStartTime",
          "type": "uint256"
        },
        {
          "internalType": "uint256",
          "name": "offerCloseTime",
          "type": "uint256"
        },
        {
          "internalType": "uint256",
          "name": "term",
          "type": "uint256"
        },
        {
          "internalType": "uint256",
          "name": "interestRate",
          "type": "uint256"
        },
        {
          "internalType": "uint256[]",
          "name": "interestPaymentDates",
          "type": "uint256[]"
        }
      ],
      "stateMutability": "view",
      "type": "function"
    },
    {
      "inputs": [
        {
          "internalType": "string",
          "name": "_ISIN",
          "type": "string"
        }
      ],
      "name": "getIssuanceSizePriceTotalBidDetailsByISIN",
      "outputs": [
        {
          "internalType": "uint256",
          "name": "initSize",
          "type": "uint256"
        },
        {
          "internalType": "uint256",
          "name": "minSize",
          "type": "uint256"
        },
        {
          "internalType": "uint256",
          "name": "faceValue",
          "type": "uint256"
        },
        {
          "internalType": "uint256",
          "name": "offerPrice",
          "type": "uint256"
        },
        {
          "internalType": "uint256",
          "name": "upfrontFee",
          "type": "uint256"
        },
        {
          "internalType": "uint256",
          "name": "escrowRatio",
          "type": "uint256"
        },
        {
          "internalType": "uint256",
          "name": "totalInvestorBid",
          "type": "uint256"
        }
      ],
      "stateMutability": "view",
      "type": "function"
    },
    {
      "inputs": [
        {
          "internalType": "string",
          "name": "_ISIN",
          "type": "string"
        },
        {
          "internalType": "string",
          "name": "_newDealName",
          "type": "string"
        },
        {
          "internalType": "uint256",
          "name": "_newInitSize",
          "type": "uint256"
        },
        {
          "internalType": "uint256",
          "name": "_newMinSize",
          "type": "uint256"
        },
        {
          "internalType": "uint256",
          "name": "_newOfferPrice",
          "type": "uint256"
        },
        {
          "internalType": "uint256",
          "name": "_newOfferCloseTime",
          "type": "uint256"
        },
        {
          "internalType": "uint256",
          "name": "_newTerm",
          "type": "uint256"
        },
        {
          "internalType": "uint256",
          "name": "_newInterestRate",
          "type": "uint256"
        },
        {
          "internalType": "uint256[]",
          "name": "_newInterestPaymentDates",
          "type": "uint256[]"
        },
        {
          "internalType": "uint256",
          "name": "_newUpfrontFee",
          "type": "uint256"
        },
        {
          "internalType": "uint256",
          "name": "_newEscrowRatio",
          "type": "uint256"
        }
      ],
      "name": "editDealIssuance",
      "outputs": [],
      "stateMutability": "nonpayable",
      "type": "function"
    },
    {
      "inputs": [
        {
          "internalType": "string",
          "name": "_ISIN",
          "type": "string"
        },
        {
          "internalType": "string",
          "name": "_name",
          "type": "string"
        }
      ],
      "name": "createTokenMetaData",
      "outputs": [],
      "stateMutability": "nonpayable",
      "type": "function"
    },
    {
      "inputs": [
        {
          "internalType": "string",
          "name": "_ISIN",
          "type": "string"
        }
      ],
      "name": "getTokenDetails",
      "outputs": [
        {
          "internalType": "string",
          "name": "tokenName",
          "type": "string"
        },
        {
          "internalType": "string",
          "name": "symbol",
          "type": "string"
        },
        {
          "internalType": "uint256",
          "name": "totalSupply",
          "type": "uint256"
        }
      ],
      "stateMutability": "view",
      "type": "function"
    },
    {
      "inputs": [
        {
          "internalType": "string",
          "name": "_ISIN",
          "type": "string"
        },
        {
          "internalType": "string",
          "name": "_newName",
          "type": "string"
        }
      ],
      "name": "editTokenMetaData",
      "outputs": [],
      "stateMutability": "nonpayable",
      "type": "function"
    },
    {
      "inputs": [
        {
          "internalType": "string",
          "name": "_ISIN",
          "type": "string"
        },
        {
          "internalType": "string",
          "name": "_dealName",
          "type": "string"
        },
        {
          "internalType": "uint256",
          "name": "_initSize",
          "type": "uint256"
        },
        {
          "internalType": "uint256",
          "name": "_minSize",
          "type": "uint256"
        },
        {
          "internalType": "uint256",
          "name": "_faceValue",
          "type": "uint256"
        },
        {
          "internalType": "uint256",
          "name": "_offerPrice",
          "type": "uint256"
        },
        {
          "internalType": "uint256",
          "name": "_offerCloseTime",
          "type": "uint256"
        },
        {
          "internalType": "uint256",
          "name": "_term",
          "type": "uint256"
        },
        {
          "internalType": "uint256",
          "name": "_interestRate",
          "type": "uint256"
        },
        {
          "internalType": "uint256[]",
          "name": "_interestPaymentDates",
          "type": "uint256[]"
        },
        {
          "internalType": "uint256",
          "name": "_upfrontFee",
          "type": "uint256"
        }
      ],
      "name": "createDealIssuance",
      "outputs": [],
      "stateMutability": "nonpayable",
      "type": "function"
    },
    {
      "inputs": [
        {
          "internalType": "string",
          "name": "_ISIN",
          "type": "string"
        }
      ],
      "name": "closeDealOffering",
      "outputs": [
        {
          "internalType": "bool",
          "name": "",
          "type": "bool"
        }
      ],
      "stateMutability": "nonpayable",
      "type": "function"
    },
    {
      "inputs": [
        {
          "internalType": "uint256",
          "name": "_amount",
          "type": "uint256"
        }
      ],
      "name": "investorMakeDeposit",
      "outputs": [],
      "stateMutability": "nonpayable",
      "type": "function"
    },
    {
      "inputs": [
        {
          "internalType": "string",
          "name": "_ISIN",
          "type": "string"
        },
        {
          "internalType": "uint256",
          "name": "_bidAmount",
          "type": "uint256"
        }
      ],
      "name": "investorMakeBid",
      "outputs": [],
      "stateMutability": "nonpayable",
      "type": "function"
    },
    {
      "inputs": [
        {
          "internalType": "string",
          "name": "_ISIN",
          "type": "string"
        },
        {
          "internalType": "address",
          "name": "_addr",
          "type": "address"
        }
      ],
      "name": "getBidDetails",
      "outputs": [
        {
          "internalType": "bool",
          "name": "isClosed",
          "type": "bool"
        },
        {
          "internalType": "bool",
          "name": "isSuccessful",
          "type": "bool"
        },
        {
          "internalType": "uint256",
          "name": "lockedInAmount",
          "type": "uint256"
        }
      ],
      "stateMutability": "view",
      "type": "function"
    },
    {
      "inputs": [
        {
          "internalType": "string",
          "name": "_ISIN",
          "type": "string"
        },
        {
          "internalType": "address",
          "name": "_addr",
          "type": "address"
        },
        {
          "internalType": "uint256",
          "name": "_newBidAmount",
          "type": "uint256"
        }
      ],
      "name": "investorEditBid",
      "outputs": [],
      "stateMutability": "nonpayable",
      "type": "function"
    },
    {
      "inputs": [
        {
          "internalType": "string",
          "name": "_ISIN",
          "type": "string"
        },
        {
          "internalType": "address",
          "name": "_addr",
          "type": "address"
        }
      ],
      "name": "investorCancelBid",
      "outputs": [],
      "stateMutability": "nonpayable",
      "type": "function"
    },
    {
      "inputs": [
        {
          "internalType": "address",
          "name": "_addr",
          "type": "address"
        },
        {
          "internalType": "uint256",
          "name": "_amount",
          "type": "uint256"
        }
      ],
      "name": "investorWithdraw",
      "outputs": [],
      "stateMutability": "nonpayable",
      "type": "function"
    }
  ],
  "bytecode": "0x60806040523480156200001157600080fd5b50600080546001600160a01b031916331790556113886002908155600380556004556040516200004190620000d1565b604051809103906000f0801580156200005e573d6000803e3d6000fd5b50600b80546001600160a01b0319166001600160a01b03929092169190911790556040516200008d90620000df565b604051809103906000f080158015620000aa573d6000803e3d6000fd5b50600c80546001600160a01b0319166001600160a01b0392909216919091179055620000ed565b6111e3806200388e83390190565b6105858062004a7183390190565b61379180620000fd6000396000f3fe608060405234801561001057600080fd5b50600436106101a95760003560e01c806389a30271116100f9578063b4d7b98b11610097578063c45a015511610071578063c45a0155146103b0578063cacbdd78146103b8578063eadb3c9c146103da578063f3f15790146103e2576101a9565b8063b4d7b98b14610370578063be8fdb6714610378578063c4247d621461039d576101a9565b806399734468116100d357806399734468146103225780639f181b5e14610342578063ab617b841461034a578063aeb42a3b1461035d576101a9565b806389a30271146102e45780638a57616e146102ec578063981c30d0146102ff576101a9565b8063481c6a7511610166578063774fe42211610140578063774fe422146102835780637797e2d514610296578063893c6a4d146102bc578063899b8f37146102cf576101a9565b8063481c6a751461024d57806367e932d01461026257806371fb7cd314610270576101a9565b80630be99a5b146101ae5780630e070446146101c3578063154e88c2146101d657806316dded9f146101e95780633f28ff6b146101fc578063442c154b14610227575b600080fd5b6101c16101bc36600461263b565b610403565b005b6101c16101d13660046126ae565b6104dc565b6101c16101e4366004612a2e565b6104e0565b6101c16101f73660046129eb565b610530565b61020f61020a366004612734565b6106cc565b60405161021e93929190612c23565b60405180910390f35b61023a6102353660046126f9565b61077f565b60405161021e97969594939291906134b9565b6102556107e5565b60405161021e9190612b1b565b6101c16101d1366004612734565b61025561027e3660046126ae565b6107f4565b6101c1610291366004612914565b61082c565b6102a96102a43660046126f9565b610997565b60405161021e9796959493929190612c3b565b6101c16102ca3660046127dc565b610aeb565b6102d7610baa565b60405161021e91906134b0565b610255610bb0565b6101c16102fa3660046127dc565b610bc8565b61031261030d366004612603565b610c56565b60405161021e9493929190612be9565b6103356103303660046126f9565b610d91565b60405161021e9190612c18565b6102d7611125565b6101c16103583660046127dc565b61112b565b6101c161036b366004612784565b61128d565b6102d7611400565b61038b610386366004612603565b611406565b60405161021e96959493929190612ce9565b6101c16103ab36600461283d565b61167b565b6102556117f9565b6103cb6103c63660046126f9565b611808565b60405161021e93929190612d41565b6102d7611999565b6103f56103f03660046126f9565b61199f565b60405161021e929190612cbb565b336001600160a01b038416146104345760405162461bcd60e51b815260040161042b90612ec1565b60405180910390fd5b6001600160a01b0383166000908152600860209081526040909120835161046392600190920191850190612443565b506001600160a01b0383166000908152600860209081526040909120825161049392600290920191840190612443565b50826001600160a01b03167f0272388911394c5083027cf52be75a9d13ba38a2b7a331a399bf8fee7b9fc29983836040516104cf929190612cbb565b60405180910390a2505050565b5050565b336000908152600a6020526040902060038101546104fe9083611b65565b600382015560058101546105129083611b65565b600582015560098054906000610527836136fc565b91905055505050565b60006006836040516105429190612aff565b9081526040805160209281900383019020336000908152600a8452828120601c8301909452919091205490925060ff161561058f5760405162461bcd60e51b815260040161042b90612f13565b6016820154610100900460ff166105b85760405162461bcd60e51b815260040161042b9061331b565b80600301548311156105dc5760405162461bcd60e51b815260040161042b90613051565b6105ea82601b015484611b65565b601b8301556002810180546001810182556000918252602091829020865161061a93919092019190870190612443565b50610629816004015484611b65565b60048201819055600382015461063e91611b78565b600582015560405183906008830190610658908790612aff565b90815260405190819003602090810190912091909155601983018054600181018255600091825291812090910180546001600160a01b03191633179055601a83018054916106a5836136fc565b9091555050336000908152601c9092016020525060409020805460ff191660011790555050565b336000818152600a602052604081209091829182916001600160a01b038616146107085760405162461bcd60e51b815260040161042b90613152565b806006018660405161071a9190612aff565b9081526040519081900360200181205460ff1690600783019061073e908990612aff565b9081526040519081900360200181205460ff16906008840190610762908a90612aff565b908152602001604051809103902054935093509350509250925092565b60008060008060008060008060068960405161079b9190612aff565b9081526040519081900360200190206002810154600382015460048301546005840154600d850154600e860154601b90960154949f939e50919c509a509850919650945092505050565b600c546001600160a01b031681565b600e602052816000526040600020818154811061081057600080fd5b6000918252602090912001546001600160a01b03169150829050565b600060068c60405161083e9190612aff565b9081526040519081900360209081019091206018810180546001600160a01b031916331790558d51909250610878918391908f0190612443565b508a5161088e90600183019060208e0190612443565b50600281018a90556003810189905560048101889055600581018790554260068201556007810186905560098101859055600b810184905582516108db90600c83019060208601906124c7565b50600d8101829055611388600e820155601681018054600160ff199091161761ff00191661010017905560058054906000610915836136fc565b91905055508b6040516109289190612aff565b6040518091039020336001600160a01b03167ff4ff7e1fcb22d6f38926a942322a8f0987d86cdbfed9991556932ad24c1d2e6f8d8d8d8d8d88600601548e8e8e8e8e6040516109819b9a99989796959493929190612ddf565b60405180910390a3505050505050505050505050565b60006060600080600080606060006006896040516109b59190612aff565b908152602001604051809103902090508060160160009054906101000a900460ff168160010182600601548360070154846009015485600b015486600c018580546109ff906136c1565b80601f0160208091040260200160405190810160405280929190818152602001828054610a2b906136c1565b8015610a785780601f10610a4d57610100808354040283529160200191610a78565b820191906000526020600020905b815481529060010190602001808311610a5b57829003601f168201915b5050505050955080805480602002602001604051908101604052809291908181526020018280548015610aca57602002820191906000526020600020905b815481526020019060010190808311610ab6575b50505050509050975097509750975097509750975050919395979092949650565b6000600683604051610afd9190612aff565b908152604051908190036020019020601681015490915060ff61010090910416610b395760405162461bcd60e51b815260040161042b90613260565b60188101546001600160a01b03163314610b655760405162461bcd60e51b815260040161042b906133ff565b6012810180546001600160a01b031916331790558151610b8e9060138301906020850190612443565b508251610ba49060148301906020860190612443565b50505050565b60095481565b73e22da380ee6b445bb8273c81944adeb6e845042281565b33600090815260086020908152604090912083519091610bef916001840191860190612443565b508151610c059060028301906020850190612443565b5060078054906000610c16836136fc565b9190505550336001600160a01b03167ff4699dcd1914bc5ca1197661355724f5280584f19f62f09de9169d8c238491c084846040516104cf929190612cbb565b606060008080336001600160a01b03861614610c845760405162461bcd60e51b815260040161042b90613098565b6001600160a01b0385166000908152600a602090815260408083206003810154600482015460058301546002909301805485518188028101880190965280865290969295919492879284015b82821015610d7c578382906000526020600020018054610cef906136c1565b80601f0160208091040260200160405190810160405280929190818152602001828054610d1b906136c1565b8015610d685780601f10610d3d57610100808354040283529160200191610d68565b820191906000526020600020905b815481529060010190602001808311610d4b57829003601f168201915b505050505081526020019060010190610cd0565b50505050935093509350935093509193509193565b6000600682604051610da39190612aff565b90815260405190819003602001902060180154336001600160a01b0390911614610ddf5760405162461bcd60e51b815260040161042b90612f66565b600682604051610def9190612aff565b9081526040519081900360200190206016015460ff61010090910416610e275760405162461bcd60e51b815260040161042b906131a2565b6000600683604051610e399190612aff565b908152604051908190036020019020601681018054600260ff199091161762ffff0019166201000017905590506000610e7184611b84565b600f83015490915081610e9357610e8785611c4e565b60009350505050611120565b6018830154610eac9086906001600160a01b0316611d0b565b6000610ed3610ec983600354600a610ec49190613591565b6120d2565b85601b01546120de565b90506000805b601986015481101561106b576000866019018281548110610f0a57634e487b7160e01b600052603260045260246000fd5b600091825260209091200154601b8801546001600160a01b03909116915085101561102057610f93610f8085600a6000856001600160a01b03166001600160a01b031681526020019081526020016000206008018c604051610f6c9190612aff565b9081526020016040518091039020546120d2565b600354610f8e90600a613591565b6120de565b9250610fd38760100154610fce610fc0610fba8b600e0154600354600a610f8e9190613591565b876120d2565b600454610f8e90600a613591565b611b65565b60108801556001600160a01b0381166000908152600a6020526040908190209051849160080190611005908c90612aff565b908152604051908190036020019020556110208984836120ea565b61102a81846104dc565b611035898285612153565b6001600160a01b0381166000908152600a60205260409020611058908a90612259565b5080611063816136fc565b915050610ed9565b5061107d610f808387601b01546120d2565b601b86015560168501805460ff1916600317905560188501546110aa9088906001600160a01b03166122c5565b866040516110b89190612aff565b6040519081900381206018870154601188015491926001600160a01b03918216927f3a501409415dd291b939cebe93b113aee5e91c438a25906b164486b60da44c9c9261110e92911690889060198c0190612b86565b60405180910390a36001955050505050505b919050565b600d5481565b60068260405161113b9190612aff565b90815260405190819003602001902060180154336001600160a01b03909116146111775760405162461bcd60e51b815260040161042b90613364565b6006826040516111879190612aff565b9081526040519081900360200190206016015460ff6201000090910416156111c15760405162461bcd60e51b815260040161042b90613453565b806006836040516111d29190612aff565b908152602001604051809103902060110160020190805190602001906111f9929190612443565b508160068360405161120b9190612aff565b90815260200160405180910390206011016003019080519060200190611232929190612443565b50816040516112419190612aff565b6040518091039020336001600160a01b03167e0d84a8f0eae247c6652a16085de4f15e69b599cd7c4a5701004689fe2130d9836040516112819190612ca8565b60405180910390a35050565b600060068460405161129f9190612aff565b908152604080519182900360209081018320336000908152600a909252919020909250906006906112d1908790612aff565b9081526040519081900360200190206016015460ff610100909104166113095760405162461bcd60e51b815260040161042b90612e53565b336000908152601c8301602052604090205460ff1661133a5760405162461bcd60e51b815260040161042b90612fb8565b806003015483111561135e5760405162461bcd60e51b815260040161042b9061300a565b61139561138f83601b0154836008018860405161137b9190612aff565b908152602001604051809103902054611b78565b84611b65565b82601b01819055506113ba61138f8260040154836008018860405161137b9190612aff565b6004820181905560038201546113cf91611b78565b6005820155604051839060088301906113e9908890612aff565b908152604051908190036020019020555050505050565b60075481565b6060808060008080336001600160a01b038816146114365760405162461bcd60e51b815260040161042b906130f5565b600060086000896001600160a01b03166001600160a01b031681526020019081526020016000209050806001018160020182600401836005015484600601548560070154858054611486906136c1565b80601f01602080910402602001604051908101604052809291908181526020018280546114b2906136c1565b80156114ff5780601f106114d4576101008083540402835291602001916114ff565b820191906000526020600020905b8154815290600101906020018083116114e257829003601f168201915b50505050509550848054611512906136c1565b80601f016020809104026020016040519081016040528092919081815260200182805461153e906136c1565b801561158b5780601f106115605761010080835404028352916020019161158b565b820191906000526020600020905b81548152906001019060200180831161156e57829003601f168201915b5050505050945083805480602002602001604051908101604052809291908181526020016000905b8282101561165f5783829060005260206000200180546115d2906136c1565b80601f01602080910402602001604051908101604052809291908181526020018280546115fe906136c1565b801561164b5780601f106116205761010080835404028352916020019161164b565b820191906000526020600020905b81548152906001019060200180831161162e57829003601f168201915b5050505050815260200190600101906115b3565b5050505093509650965096509650965096505091939550919395565b60068b60405161168b9190612aff565b90815260405190819003602001902060180154336001600160a01b03909116146116c75760405162461bcd60e51b815260040161042b9061320f565b60068b6040516116d79190612aff565b9081526040519081900360200190206016015460ff6101009091041661170f5760405162461bcd60e51b815260040161042b906132ad565b600060068c6040516117219190612aff565b908152602001604051809103902090508a816001019080519060200190611749929190612443565b50600281018a905560038101899055600581018890556007810187905560098101869055600b8101859055835161178990600c83019060208701906124c7565b50600d8101839055600e81018290556040516117a6908d90612aff565b6040518091039020336001600160a01b03167f61272cb938a7190c5d07c4c077e96b2aa898de24fae728fc9e60cad4cd2b41a98d8d8d8d8d8d8d8d8d8d6040516109819a99989796959493929190612d77565b600b546001600160a01b031681565b606080600060068460405161181d9190612aff565b9081526040519081900360200181206013019060069061183e908790612aff565b9081526040519081900360200181206014019060069061185f908890612aff565b908152602001604051809103902060110160040154828054611880906136c1565b80601f01602080910402602001604051908101604052809291908181526020018280546118ac906136c1565b80156118f95780601f106118ce576101008083540402835291602001916118f9565b820191906000526020600020905b8154815290600101906020018083116118dc57829003601f168201915b5050505050925081805461190c906136c1565b80601f0160208091040260200160405190810160405280929190818152602001828054611938906136c1565b80156119855780601f1061195a57610100808354040283529160200191611985565b820191906000526020600020905b81548152906001019060200180831161196857829003601f168201915b505050505091509250925092509193909250565b60055481565b606080600860006006856040516119b69190612aff565b908152602001604051809103902060180160009054906101000a90046001600160a01b03166001600160a01b03166001600160a01b0316815260200190815260200160002060010160086000600686604051611a129190612aff565b9081526040805160209281900383019020601801546001600160a01b03168352908201929092520160002081546002909101908290611a50906136c1565b80601f0160208091040260200160405190810160405280929190818152602001828054611a7c906136c1565b8015611ac95780601f10611a9e57610100808354040283529160200191611ac9565b820191906000526020600020905b815481529060010190602001808311611aac57829003601f168201915b50505050509150808054611adc906136c1565b80601f0160208091040260200160405190810160405280929190818152602001828054611b08906136c1565b8015611b555780601f10611b2a57610100808354040283529160200191611b55565b820191906000526020600020905b815481529060010190602001808311611b3857829003601f168201915b5050505050905091509150915091565b6000611b7183836123fd565b9392505050565b6000611b718383612409565b6000600682604051611b969190612aff565b908152602001604051809103902060030154600683604051611bb89190612aff565b9081526020016040518091039020601b015410611c4657611c1b600683604051611be29190612aff565b9081526020016040518091039020601b0154600684604051611c049190612aff565b908152602001604051809103902060020154612415565b600683604051611c2b9190612aff565b908152604051908190036020019020600f0155506001611120565b506000611120565b6004600682604051611c609190612aff565b908152604051908190036020019020601601805460ff19166001836005811115611c9a57634e487b7160e01b600052602160045260246000fd5b021790555080604051611cad9190612aff565b6040518091039020600682604051611cc59190612aff565b908152604051908190036020018120601801546001600160a01b0316907ffe2249a80ab4eeb9174d0f1569207290a237b93ded52dc3317c975ef500785df90600090a350565b336001600160a01b03821614611d335760405162461bcd60e51b815260040161042b906133b5565b6000600683604051611d459190612aff565b908152602001604051809103902090506000816011016002018054611d69906136c1565b80601f0160208091040260200160405190810160405280929190818152602001828054611d95906136c1565b8015611de25780601f10611db757610100808354040283529160200191611de2565b820191906000526020600020905b815481529060010190602001808311611dc557829003601f168201915b505050505090506000826011016003018054611dfd906136c1565b80601f0160208091040260200160405190810160405280929190818152602001828054611e29906136c1565b8015611e765780601f10611e4b57610100808354040283529160200191611e76565b820191906000526020600020905b815481529060010190602001808311611e5957829003601f168201915b505050505090506000611e9184600f015485600401546120de565b60158501819055600b546040516305b0605360e41b81529192506000916001600160a01b0390911690635b06053090611ed290879087908790600401612d41565b602060405180830381600087803b158015611eec57600080fd5b505af1158015611f00573d6000803e3d6000fd5b505050506040513d601f19601f82011682018060405250810190611f24919061261f565b600c546040516366812dbb60e11b81529192506001600160a01b03169063cd025b7690611f579084903090600401612b2f565b600060405180830381600087803b158015611f7157600080fd5b505af1158015611f85573d6000803e3d6000fd5b5050600c54604051633950935160e01b81526001600160a01b03808616945063395093519350611fbb9216908690600401612b6d565b602060405180830381600087803b158015611fd557600080fd5b505af1158015611fe9573d6000803e3d6000fd5b505050506040513d601f19601f8201168201806040525081019061200d91906126d9565b506011850180546001600160a01b038084166001600160a01b0319928316811790935588166000908152600e60209081526040822080546001810182559083529082200180549092169092179055600d805491612069836136fc565b91905055508660405161207c9190612aff565b6040518091039020866001600160a01b03167f3dc102eab4e6e04cf911b21e640a91bd3e499140bc03f03b3bd915b25f422d118686866040516120c193929190612d41565b60405180910390a350505050505050565b6000611b71838361242b565b6000611b718383612437565b6001600160a01b0381166000908152600a6020526040902060038101546121119084611b78565b81600301819055506121338160040154826008018660405161137b9190612aff565b60048201819055600382015461214891611b78565b600590910155505050565b60006006846040516121659190612aff565b908152604051908190036020019020601181015460048201549192506001600160a01b0316906000906121999085906120de565b600c546040516317d5759960e31b81529192506001600160a01b03169063beabacc8906121ce90859089908690600401612b49565b600060405180830381600087803b1580156121e857600080fd5b505af11580156121fc573d6000803e3d6000fd5b505050508560405161220e9190612aff565b60405180910390207f1d2a2fe83f0a58de42de6ff8e17afbfddb80e929534a7be01a75800c9837775c83878460405161224993929190612b49565b60405180910390a2505050505050565b6001816006018360405161226d9190612aff565b908152604051908190036020018120805492151560ff199093169290921790915560019060078301906122a1908590612aff565b908152604051908190036020019020805491151560ff199092169190911790555050565b60006006836040516122d79190612aff565b90815260408051602092819003830190206001600160a01b038516600090815260088452918220600481018054600181018255908452928490208751929550909361232a93919091019190870190612443565b5061233d816005015483600f0154611b65565b6005820155600681015460108301546123569190611b65565b60068201819055600582015461236b91611b78565b6007820155600f8201546040516008830190612388908790612aff565b908152602001604051809103902081905550816010015481600901856040516123b19190612aff565b908152604051908190036020019020556010820154600f8301546123d5919061367e565b81600a01856040516123e79190612aff565b9081526040519081900360200190205550505050565b6000611b718284613513565b6000611b71828461367e565b60008183106124245781611b71565b5090919050565b6000611b71828461365f565b6000611b71828461352b565b82805461244f906136c1565b90600052602060002090601f01602090048101928261247157600085556124b7565b82601f1061248a57805160ff19168380011785556124b7565b828001600101855582156124b7579182015b828111156124b757825182559160200191906001019061249c565b506124c3929150612501565b5090565b8280548282559060005260206000209081019282156124b757916020028201828111156124b757825182559160200191906001019061249c565b5b808211156124c35760008155600101612502565b600082601f830112612526578081fd5b8135602067ffffffffffffffff8211156125425761254261372d565b8082026125508282016134e9565b83815282810190868401838801850189101561256a578687fd5b8693505b8584101561258c57803583526001939093019291840191840161256e565b50979650505050505050565b600082601f8301126125a8578081fd5b813567ffffffffffffffff8111156125c2576125c261372d565b6125d5601f8201601f19166020016134e9565b8181528460208386010111156125e9578283fd5b816020850160208301379081016020019190915292915050565b600060208284031215612614578081fd5b8135611b7181613743565b600060208284031215612630578081fd5b8151611b7181613743565b60008060006060848603121561264f578182fd5b833561265a81613743565b9250602084013567ffffffffffffffff80821115612676578384fd5b61268287838801612598565b93506040860135915080821115612697578283fd5b506126a486828701612598565b9150509250925092565b600080604083850312156126c0578182fd5b82356126cb81613743565b946020939093013593505050565b6000602082840312156126ea578081fd5b81518015158114611b71578182fd5b60006020828403121561270a578081fd5b813567ffffffffffffffff811115612720578182fd5b61272c84828501612598565b949350505050565b60008060408385031215612746578182fd5b823567ffffffffffffffff81111561275c578283fd5b61276885828601612598565b925050602083013561277981613743565b809150509250929050565b600080600060608486031215612798578283fd5b833567ffffffffffffffff8111156127ae578384fd5b6127ba86828701612598565b93505060208401356127cb81613743565b929592945050506040919091013590565b600080604083850312156127ee578182fd5b823567ffffffffffffffff80821115612805578384fd5b61281186838701612598565b93506020850135915080821115612826578283fd5b5061283385828601612598565b9150509250929050565b60008060008060008060008060008060006101608c8e03121561285e578687fd5b67ffffffffffffffff808d351115612874578788fd5b6128818e8e358f01612598565b9b508060208e01351115612893578788fd5b6128a38e60208f01358f01612598565b9a5060408d0135995060608d0135985060808d0135975060a08d0135965060c08d0135955060e08d01359450806101008e013511156128e0578384fd5b506128f28d6101008e01358e01612516565b92506101208c013591506101408c013590509295989b509295989b9093969950565b60008060008060008060008060008060006101608c8e031215612935578081fd5b67ffffffffffffffff808d35111561294b578182fd5b6129588e8e358f01612598565b9b508060208e0135111561296a578182fd5b61297a8e60208f01358f01612598565b9a5060408d0135995060608d0135985060808d0135975060a08d0135965060c08d0135955060e08d013594506101008d01359350806101208e013511156129bf578182fd5b506129d18d6101208e01358e01612516565b91506101408c013590509295989b509295989b9093969950565b600080604083850312156129fd578182fd5b823567ffffffffffffffff811115612a13578283fd5b612a1f85828601612598565b95602094909401359450505050565b600060208284031215612a3f578081fd5b5035919050565b6000815180845260208085018081965082840281019150828601855b85811015612a8c578284038952612a7a848351612ad3565b98850198935090840190600101612a62565b5091979650505050505050565b6000815180845260208085019450808401835b83811015612ac857815187529582019590820190600101612aac565b509495945050505050565b60008151808452612aeb816020860160208601613695565b601f01601f19169290920160200192915050565b60008251612b11818460208701613695565b9190910192915050565b6001600160a01b0391909116815260200190565b6001600160a01b0392831681529116602082015260400190565b6001600160a01b039384168152919092166020820152604081019190915260600190565b6001600160a01b03929092168252602082015260400190565b60006060820160018060a01b03808716845260208681860152606060408601528286548085526080870191508786528286209450855b81811015612bda578554851683526001958601959284019201612bbc565b50909998505050505050505050565b600060808252612bfc6080830187612a46565b6020830195909552506040810192909252606090910152919050565b901515815260200190565b92151583529015156020830152604082015260600190565b600060068910612c5957634e487b7160e01b81526021600452602481fd5b88825260e06020830152612c7060e0830189612ad3565b8760408401528660608401528560808401528460a084015282810360c0840152612c9a8185612a99565b9a9950505050505050505050565b600060208252611b716020830184612ad3565b600060408252612cce6040830185612ad3565b8281036020840152612ce08185612ad3565b95945050505050565b600060c08252612cfc60c0830189612ad3565b8281036020840152612d0e8189612ad3565b90508281036040840152612d228188612a46565b60608401969096525050608081019290925260a0909101529392505050565b600060608252612d546060830186612ad3565b8281036020840152612d668186612ad3565b915050826040830152949350505050565b6000610140808352612d8b8184018e612ad3565b90508b60208401528a60408401528960608401528860808401528760a08401528660c084015282810360e0840152612dc38187612a99565b6101008401959095525050610120015298975050505050505050565b6000610160808352612df38184018f612ad3565b90508c60208401528b60408401528a60608401528960808401528860a08401528760c08401528660e084015285610100840152828103610120840152612e398186612a99565b915050826101408301529c9b505050505050505050505050565b60208082526048908201527f4445414c3a3a20696e766573746f72456469744269643a20596f752063616e6e60408201527f6f74206368616e676520612062696420696620746865206f66666572206973206060820152674e4f54206c69766560c01b608082015260a00190565b60208082526032908201527f4445414c3a3a206564697449737375657244657461696c733a2043616c6c65726040820152711034b9902727aa103a34329034b9b9bab2b960711b606082015260800190565b60208082526033908201527f4445414c3a3a20696e766573746f724d616b654269643a20796f75206861766560408201527208185b1c9958591e481b585919481848189a59606a1b606082015260800190565b60208082526032908201527f4445414c3a3a20636c6f73654465616c4f66666572696e673a2043616c6c65726040820152711034b9902727aa103a34329034b9b9bab2b960711b606082015260800190565b60208082526032908201527f4445414c3a3a20696e766573746f72456469744269643a20796f7520686176656040820152711b89dd081b585919481848189a59081e595d60721b606082015260800190565b60208082526027908201527f4445414c3a3a20696e766573746f72456469744269643a20696e7375666669656040820152661b9d08199d5b9960ca1b606082015260800190565b60208082526027908201527f4445414c3a3a20696e766573746f724d616b654269643a20696e7375666669656040820152661b9d08199d5b9960ca1b606082015260800190565b60208082526038908201527f4445414c3a3a20676574416c6c496e766573746f7244657461696c733a20436160408201527f6c6c6572206973204e4f542074686520696e766573746f720000000000000000606082015260800190565b6020808252603a908201527f4445414c3a3a20676574416c6c49737375657244657461696c7342794164647260408201527f3a2043616c6c6572206973204e4f542074686520697373756572000000000000606082015260800190565b60208082526030908201527f4445414c3a3a2067657442696444657461696c733a2043616c6c65722069732060408201526f2727aa103a34329034b73b32b9ba37b960811b606082015260800190565b60208082526047908201527f4445414c3a3a20636c6f73654465616c4f66666572696e673a204f666665722060408201527f63616e6e6f7420626520636c6f7365642062656361757365206974206973204e6060820152664f54206c69766560c81b608082015260a00190565b60208082526031908201527f4445414c3a3a20656469744465616c49737375616e63653a2043616c6c65722060408201527034b9902727aa103a34329034b9b9bab2b960791b606082015260800190565b6020808252602d908201527f4445414c3a3a20637265617465546f6b656e4d657461446174613a204f66666560408201526c72206973206e6f74206c69766560981b606082015260800190565b60208082526048908201527f4445414c3a3a20656469744465616c49737375616e63653a20596f752063616e60408201527f6e6f74206564697420616e2069737375616e6365207768656e206974206973206060820152674e4f54206c69766560c01b608082015260a00190565b60208082526029908201527f4445414c3a3a20696e766573746f724d616b654269643a206f66666572206973604082015268204e4f54206c69766560b81b606082015260800190565b60208082526031908201527f4445414c3a3a2065646974546f6b656e44657461696c733a2043616c6c65722060408201527034b9902727aa103a34329034b9b9bab2b960791b606082015260800190565b6020808252602a908201527f4445414c3a3a206d696e74546f6b656e3a2043616c6c6572206973204e4f54206040820152693a34329034b9b9bab2b960b11b606082015260800190565b60208082526034908201527f4445414c3a3a20637265617465546f6b656e4d657461446174613a2043616c6c60408201527332b91034b9902727aa103a34329034b9b9bab2b960611b606082015260800190565b60208082526039908201527f4445414c3a3a2065646974546f6b656e4d657461446174613a204f666665722060408201527f706572696f6420697320616c726561647920636c6f7365642000000000000000606082015260800190565b90815260200190565b968752602087019590955260408601939093526060850191909152608084015260a083015260c082015260e00190565b60405181810167ffffffffffffffff8111828210171561350b5761350b61372d565b604052919050565b6000821982111561352657613526613717565b500190565b60008261354657634e487b7160e01b81526012600452602481fd5b500490565b80825b600180861161355d5750613588565b81870482111561356f5761356f613717565b8086161561357c57918102915b9490941c93800261354e565b94509492505050565b6000611b7160001984846000826135aa57506001611b71565b816135b757506000611b71565b81600181146135cd57600281146135d757613604565b6001915050611b71565b60ff8411156135e8576135e8613717565b6001841b9150848211156135fe576135fe613717565b50611b71565b5060208310610133831016604e8410600b8410161715613637575081810a8381111561363257613632613717565b611b71565b613644848484600161354b565b80860482111561365657613656613717565b02949350505050565b600081600019048311821515161561367957613679613717565b500290565b60008282101561369057613690613717565b500390565b60005b838110156136b0578181015183820152602001613698565b83811115610ba45750506000910152565b6002810460018216806136d557607f821691505b602082108114156136f657634e487b7160e01b600052602260045260246000fd5b50919050565b600060001982141561371057613710613717565b5060010190565b634e487b7160e01b600052601160045260246000fd5b634e487b7160e01b600052604160045260246000fd5b6001600160a01b038116811461375857600080fd5b5056fea2646970667358221220e33edff6fc18299786b0eb82147fa7a7776028083c1b9c00e346cd6795accc8c64736f6c63430008000033608060405234801561001057600080fd5b506111c3806100206000396000f3fe608060405234801561001057600080fd5b506004361061004c5760003560e01c80634dba6bce146100515780635b0605301461007a5780635fbe4d1d1461008d5780639f181b5e14610095575b600080fd5b61006461005f366004610233565b6100aa565b604051610071919061031e565b60405180910390f35b610064610088366004610269565b6100e2565b610064610190565b61009d61019f565b604051610071919061037a565b600260205281600052604060002081815481106100c657600080fd5b6000918252602090912001546001600160a01b03169150829050565b600080338585856040516100f5906101a5565b6101029493929190610332565b604051809103906000f08015801561011e573d6000803e3d6000fd5b50600180546001600160a01b038084166001600160a01b031992831617808455336000908152600260209081526040822080549687018155825281209094018054909316911617905580549192508061017683610383565b90915550506001546001600160a01b031695945050505050565b6001546001600160a01b031681565b60005481565b610dcd806103c183390190565b600082601f8301126101c2578081fd5b813567ffffffffffffffff808211156101dd576101dd6103aa565b604051601f8301601f191681016020018281118282101715610201576102016103aa565b604052828152848301602001861015610218578384fd5b82602086016020830137918201602001929092529392505050565b60008060408385031215610245578182fd5b82356001600160a01b038116811461025b578283fd5b946020939093013593505050565b60008060006060848603121561027d578081fd5b833567ffffffffffffffff80821115610294578283fd5b6102a0878388016101b2565b945060208601359150808211156102b5578283fd5b506102c2868287016101b2565b925050604084013590509250925092565b60008151808452815b818110156102f8576020818501810151868301820152016102dc565b818111156103095782602083870101525b50601f01601f19169290920160200192915050565b6001600160a01b0391909116815260200190565b6001600160a01b0385168152608060208201819052600090610356908301866102d3565b828103604084015261036881866102d3565b91505082606083015295945050505050565b90815260200190565b60006000198214156103a357634e487b7160e01b81526011600452602481fd5b5060010190565b634e487b7160e01b600052604160045260246000fdfe60806040523480156200001157600080fd5b5060405162000dcd38038062000dcd8339810160408190526200003491620002ba565b8251839083906200004d90600390602085019062000169565b5080516200006390600490602084019062000169565b5050506200007884826200008260201b60201c565b5050505062000400565b6001600160a01b038216620000b45760405162461bcd60e51b8152600401620000ab9062000348565b60405180910390fd5b620000c26000838362000164565b8060026000828254620000d6919062000388565b90915550506001600160a01b038216600090815260208190526040812080548392906200010590849062000388565b90915550506040516001600160a01b038316906000907fddf252ad1be2c89b69c2b068fc378daa952ba7f163c4a11628f55a4df523b3ef906200014a9085906200037f565b60405180910390a3620001606000838362000164565b5050565b505050565b8280546200017790620003ad565b90600052602060002090601f0160209004810192826200019b5760008555620001e6565b82601f10620001b657805160ff1916838001178555620001e6565b82800160010185558215620001e6579182015b82811115620001e6578251825591602001919060010190620001c9565b50620001f4929150620001f8565b5090565b5b80821115620001f45760008155600101620001f9565b600082601f83011262000220578081fd5b81516001600160401b03808211156200023d576200023d620003ea565b6040516020601f8401601f1916820181018381118382101715620002655762000265620003ea565b60405283825285840181018710156200027c578485fd5b8492505b838310156200029f578583018101518284018201529182019162000280565b83831115620002b057848185840101525b5095945050505050565b60008060008060808587031215620002d0578384fd5b84516001600160a01b0381168114620002e7578485fd5b60208601519094506001600160401b038082111562000304578485fd5b62000312888389016200020f565b9450604087015191508082111562000328578384fd5b5062000337878288016200020f565b606096909601519497939650505050565b6020808252601f908201527f45524332303a206d696e7420746f20746865207a65726f206164647265737300604082015260600190565b90815260200190565b60008219821115620003a857634e487b7160e01b81526011600452602481fd5b500190565b600281046001821680620003c257607f821691505b60208210811415620003e457634e487b7160e01b600052602260045260246000fd5b50919050565b634e487b7160e01b600052604160045260246000fd5b6109bd80620004106000396000f3fe608060405234801561001057600080fd5b50600436106100a95760003560e01c80633950935111610071578063395093511461012957806370a082311461013c57806395d89b411461014f578063a457c2d714610157578063a9059cbb1461016a578063dd62ed3e1461017d576100a9565b806306fdde03146100ae578063095ea7b3146100cc57806318160ddd146100ec57806323b872dd14610101578063313ce56714610114575b600080fd5b6100b6610190565b6040516100c391906106dd565b60405180910390f35b6100df6100da3660046106a9565b610222565b6040516100c391906106d2565b6100f461023f565b6040516100c39190610911565b6100df61010f36600461066e565b610245565b61011c6102de565b6040516100c3919061091a565b6100df6101373660046106a9565b6102e3565b6100f461014a36600461061b565b610337565b6100b6610356565b6100df6101653660046106a9565b610365565b6100df6101783660046106a9565b6103de565b6100f461018b36600461063c565b6103f2565b60606003805461019f9061094c565b80601f01602080910402602001604051908101604052809291908181526020018280546101cb9061094c565b80156102185780601f106101ed57610100808354040283529160200191610218565b820191906000526020600020905b8154815290600101906020018083116101fb57829003601f168201915b5050505050905090565b600061023661022f61041d565b8484610421565b50600192915050565b60025490565b60006102528484846104d5565b6001600160a01b03841660009081526001602052604081208161027361041d565b6001600160a01b03166001600160a01b03168152602001908152602001600020549050828110156102bf5760405162461bcd60e51b81526004016102b6906107fb565b60405180910390fd5b6102d3856102cb61041d565b858403610421565b506001949350505050565b601290565b60006102366102f061041d565b8484600160006102fe61041d565b6001600160a01b03908116825260208083019390935260409182016000908120918b16815292529020546103329190610928565b610421565b6001600160a01b0381166000908152602081905260409020545b919050565b60606004805461019f9061094c565b6000806001600061037461041d565b6001600160a01b03908116825260208083019390935260409182016000908120918816815292529020549050828110156103c05760405162461bcd60e51b81526004016102b6906108cc565b6103d46103cb61041d565b85858403610421565b5060019392505050565b60006102366103eb61041d565b84846104d5565b6001600160a01b03918216600090815260016020908152604080832093909416825291909152205490565b3390565b6001600160a01b0383166104475760405162461bcd60e51b81526004016102b690610888565b6001600160a01b03821661046d5760405162461bcd60e51b81526004016102b690610773565b6001600160a01b0380841660008181526001602090815260408083209487168084529490915290819020849055517f8c5be1e5ebec7d5bd14f71427d1e84f3dd0314c0f7b2291e5b200ac8c7c3b925906104c8908590610911565b60405180910390a3505050565b6001600160a01b0383166104fb5760405162461bcd60e51b81526004016102b690610843565b6001600160a01b0382166105215760405162461bcd60e51b81526004016102b690610730565b61052c8383836105ff565b6001600160a01b038316600090815260208190526040902054818110156105655760405162461bcd60e51b81526004016102b6906107b5565b6001600160a01b0380851660009081526020819052604080822085850390559185168152908120805484929061059c908490610928565b92505081905550826001600160a01b0316846001600160a01b03167fddf252ad1be2c89b69c2b068fc378daa952ba7f163c4a11628f55a4df523b3ef846040516105e69190610911565b60405180910390a36105f98484846105ff565b50505050565b505050565b80356001600160a01b038116811461035157600080fd5b60006020828403121561062c578081fd5b61063582610604565b9392505050565b6000806040838503121561064e578081fd5b61065783610604565b915061066560208401610604565b90509250929050565b600080600060608486031215610682578081fd5b61068b84610604565b925061069960208501610604565b9150604084013590509250925092565b600080604083850312156106bb578182fd5b6106c483610604565b946020939093013593505050565b901515815260200190565b6000602080835283518082850152825b81811015610709578581018301518582016040015282016106ed565b8181111561071a5783604083870101525b50601f01601f1916929092016040019392505050565b60208082526023908201527f45524332303a207472616e7366657220746f20746865207a65726f206164647260408201526265737360e81b606082015260800190565b60208082526022908201527f45524332303a20617070726f766520746f20746865207a65726f206164647265604082015261737360f01b606082015260800190565b60208082526026908201527f45524332303a207472616e7366657220616d6f756e7420657863656564732062604082015265616c616e636560d01b606082015260800190565b60208082526028908201527f45524332303a207472616e7366657220616d6f756e74206578636565647320616040820152676c6c6f77616e636560c01b606082015260800190565b60208082526025908201527f45524332303a207472616e736665722066726f6d20746865207a65726f206164604082015264647265737360d81b606082015260800190565b60208082526024908201527f45524332303a20617070726f76652066726f6d20746865207a65726f206164646040820152637265737360e01b606082015260800190565b60208082526025908201527f45524332303a2064656372656173656420616c6c6f77616e63652062656c6f77604082015264207a65726f60d81b606082015260800190565b90815260200190565b60ff91909116815260200190565b6000821982111561094757634e487b7160e01b81526011600452602481fd5b500190565b60028104600182168061096057607f821691505b6020821081141561098157634e487b7160e01b600052602260045260246000fd5b5091905056fea2646970667358221220c015483d416aa3996ffc3d8b1029f626632ebab1d2f6766ccdd7434457d363d564736f6c63430008000033a2646970667358221220c9dca568489871d2fb2b00d6d391bea31f5936262f1f9a4feca11daa2a8dd9d964736f6c63430008000033608060405234801561001057600080fd5b50610565806100206000396000f3fe608060405234801561001057600080fd5b50600436106100575760003560e01c8063ad79e94b1461005c578063beabacc814610085578063cd025b761461009a578063cf489aa8146100ad578063dc17c9ca146100cd575b600080fd5b61006f61006a3660046102e9565b6100e0565b60405161007c9190610450565b60405180910390f35b61009861009336600461033c565b6100fb565b005b6100986100a836600461030a565b610263565b6100c06100bb366004610397565b610291565b60405161007c91906104a2565b61006f6100db3660046102e9565b6102b1565b6000602081905290815260409020546001600160a01b031681565b6001600160a01b0383811660009081526020819052604090205416331461013d5760405162461bcd60e51b8152600401610134906104f1565b60405180910390fd5b604051636eb1769f60e11b815281906001600160a01b0385169063dd62ed3e9061016d9033903090600401610464565b60206040518083038186803b15801561018557600080fd5b505afa158015610199573d6000803e3d6000fd5b505050506040513d601f19601f820116820180604052508101906101bd9190610438565b10156101db5760405162461bcd60e51b8152600401610134906104ad565b6040516323b872dd60e01b81526001600160a01b038416906323b872dd9061020b9033908690869060040161047e565b602060405180830381600087803b15801561022557600080fd5b505af1158015610239573d6000803e3d6000fd5b505050506040513d601f19601f8201168201806040525081019061025d9190610377565b50505050565b6001600160a01b03918216600090815260208190526040902080546001600160a01b03191691909216179055565b805160208183018101805160018252928201919093012091525460ff1681565b6001600160a01b03808216600090815260208190526040902054165b919050565b80356001600160a01b03811681146102cd57600080fd5b6000602082840312156102fa578081fd5b610303826102d2565b9392505050565b6000806040838503121561031c578081fd5b610325836102d2565b9150610333602084016102d2565b90509250929050565b600080600060608486031215610350578081fd5b610359846102d2565b9250610367602085016102d2565b9150604084013590509250925092565b600060208284031215610388578081fd5b81518015158114610303578182fd5b600060208083850312156103a9578182fd5b823567ffffffffffffffff808211156103c0578384fd5b818501915085601f8301126103d3578384fd5b8135818111156103e5576103e5610519565b604051601f8201601f191681018501838111828210171561040857610408610519565b604052818152838201850188101561041e578586fd5b818585018683013790810190930193909352509392505050565b600060208284031215610449578081fd5b5051919050565b6001600160a01b0391909116815260200190565b6001600160a01b0392831681529116602082015260400190565b6001600160a01b039384168152919092166020820152604081019190915260600190565b901515815260200190565b60208082526024908201527f4e6f7420656e6f75676820616c6c6f77616e636520666f722074686973207365604082015263373232b960e11b606082015260800190565b6020808252600e908201526d139bdd08185d5d1a1bdc9a5e995960921b604082015260600190565b634e487b7160e01b600052604160045260246000fdfea264697066735822122031d373ac97d4d5b8c61056a345ef29cdd42c3670fefcc2cefc795db10eb78efc64736f6c63430008000033",
  "immutableReferences": {},
  "source": "// SPDX-License-Identifier: MIT\n\npragma solidity 0.8.0;\n\n//import \"https://github.com/OpenZeppelin/openzeppelin-contracts/blob/master/contracts/security/Pausable.sol\";\n//import \"https://github.com/OpenZeppelin/openzeppelin-contracts/blob/master/contracts/security/ReentrancyGuard.sol\";\nimport \"@openzeppelin/contracts/utils/math/SafeMath.sol\";\nimport \"@openzeppelin/contracts/utils/math/Math.sol\";\n//import \"https://github.com/OpenZeppelin/openzeppelin-contracts/blob/master/contracts/access/Ownable.sol\";\nimport \"@openzeppelin/contracts/token/ERC20/utils/SafeERC20.sol\";\n\nimport \"./DealToken.sol\";\nimport \"./DealTokenFactory.sol\";\nimport \"./DealTokenManager.sol\";\nimport \"./IssuerSet.sol\";\nimport \"./InvestorSet.sol\";\nimport \"./DealSet.sol\";\n\n/**\n * @title Deal\n * @author 0xYue\n * @notice This contract represents the entire deal issuance book-building process (incl creation of new deals and minting/allocation of the deal token\n * @dev USDC stablecoin tracker address needs to be changed to Ethereum mainnet when we're ready to deploy\n * @dev To link libraries developed to check existing issuer/investor/deal before adding new ones with this main contract!!\n * @dev Oversized now!!! Must break this into a few separate contracts such as Helper functions, event interface, etc.\n * @dev To add @param to all sub-functions\n * @dev To implement all Ownable and Pausible functions\n * @dev To finalize all events and Modifiers\n * @dev To check and finalize all function visibilities\n * @dev To implement more search functions\n * @dev To use SafeMath at all places (incl ++ calculations)\n * @dev To change to SafeERC20 functions later\n * @dev To integrate with Chainlink oracle adaptors and keepers\n * @dev To implement decimals to our DealToken\n * @dev To implement global fee\n */\n//contract Deal is Ownable {\ncontract Deal {\n    /// Libraries\n    //using SafeERC20 for IERC20;\n    using SafeMath for uint256;\n    using SafeMath for uint256;\n\n    //using IssuerSet for Issuer;\n    //using DealSet for DealIssuance;\n    //using InvestorSet for Investor;\n\n    event LogCreateIssuer(\n        address indexed _issuer,\n        string _name,\n        string _creditRating\n    );\n    event LogEditIssuerMetaData(\n        address indexed _issuer,\n        string _name,\n        string _creditRating\n    );\n\n    event LogCreateDealIssuance(\n        address indexed _issuer,\n        string indexed _ISIN,\n        string _dealName,\n        uint256 _initSize,\n        uint256 _minSize,\n        uint256 _faceValue,\n        uint256 _offerPrice,\n        uint256 _offerStartTime,\n        uint256 _offerCloseTime,\n        uint256 _term,\n        uint256 _interestRate,\n        uint256[] _interestPaymentDates,\n        uint256 _upfrontFee\n        //uint256 _escrowRatio\n    );\n\n    event LogEditDealIssuance(\n        address indexed _issuer,\n        string indexed _ISIN,\n        string _newDealName,\n        uint256 _newInitSize,\n        uint256 _newMinSize,\n        uint256 _newOfferPrice,\n        uint256 _newOfferCloseTime,\n        uint256 _newTerm,\n        uint256 _newInterestRate,\n        uint256[] _newInterestPaymentDates,\n        uint256 _newUpfrontFee,\n        uint256 _newEscrowRatio\n    );\n\n    event LogEditTokenMetaData(\n        address indexed _issuer,\n        string indexed _ISIN,\n        string _newName\n    );\n    event LogCreateToken(\n        address indexed _issuer,\n        string indexed _ISIN,\n        string _name,\n        string _symbol,\n        uint256 _totalSupply\n    );\n\n    event LogCancelDeal(address indexed _issuer, string indexed _ISIN);\n    event LogIssueNewDeal(\n        address indexed _issuer,\n        string indexed _ISIN,\n        address _token,\n        uint256 _finalSize,\n        address[] _investors\n    );\n\n    event LogTransferDealToken(\n        string indexed _ISIN,\n        address _token,\n        address _investorAddr,\n        uint256 _tokenAmount\n    );\n\n    /*\n    enum State {\n        INACTIVE,       // before deal issuance creation, default state\n        OFFERLIVE,      // offer period has started but not closed\n        OFFERCLOSED,    // offer period has closed out but investment/tokens not allocated yet\n        ISSUED,         // investment/tokens have been allocated and official issuance started\n        CANCELLED,      // deal issuance has been cancelled due to insuffient fund raised, or other reasons\n        REDEEMED        // the end of deal lifecycle - maturity or early redemption; principle investment and any last coupons are paid out, all o/s deal tokens are destroyed\n    }\n\n    struct Token {\n        address tokenAddr;\n        address issuer;\n        string name;\n        string symbol;      // use issuance ISIN as token symbol\n        uint256 totalSupply;    // finalSize divided by facevalue\n    }\n\n    struct DealIssuance {\n        string ISIN;    // the 12-digit unique identifier of an issuance\n\n        string dealName;\n        uint256 initSize;   // front-end needs to pass this value in units of our stablecoin of choice\n        uint256 minSize;    // minimum launch size, same unit of measurement as above\n        uint256 faceValue;  // it represents value of 1 deal token (the min investment unit); same unit of measurement as above\n        uint256 offerPrice;     // price of the bond, typically 100% of faceValue, can also be at a premium or discount\n        uint offerStartTime;    // use deal creation time block timestamp for now\n        uint offerCloseTime;    // either a fixed date/time, or a reletive one (i.e. 5 days after offerStartTime). For now use fixed\n        uint issueDate;         // use offerCloseTime as issueDate for now, but keep the field open for issuer flexibility\n        uint256 term;           // number of seconds, minutes, hours, days, or weeks (no more years since v0.5.0 due to leap seconds concerns). For now use number of DAYS\n        uint maturityDate;      // issueDate + tenor\n        uint256 interestRate;   // either floating or fixed. Assuming fixed rate for now (i.e. 2,125 means 2.125%)\n        uint[] interestPaymentDates;    // for now start with zero-coupon bond (meaning no interim coupons but bond selling at a discount to face value); keep the field for future dev\n        uint256 upfrontFee;     // this is the fee Issuer wants to charge for the issuance (i.e. 2,000 means 2% fee of total issue size)\n        uint256 escrowRatio;   // for now use 5% of total size; later on change to more specific, i.e. 1 or 2 coupon payments equivalent\n\n        uint256 finalSize;      // this is the final issuance size, determined by min(initSize, total investor bids), and only if total investor bids >= minSize\n        uint256 totalEscrowAmount;\n\n        Token token;\n        State state;\n        bool isOfferLive;\n        bool isOfferClosed;\n        mapping( string => bool ) isExistingISIN;   // map out ISIN to whether ISIN's been used in existing issuance\n\n        address issuer;\n        address[] investors;\n\n        uint256 investorCount;\n        uint256 totalInvestorBid;\n        mapping( address => bool ) investorAlreadyBid;\n    }\n\n    struct Issuer {\n        address addr;\n        string name;\n        string creditRating;\n        mapping(address => bool) isExisting;\n        string[] dealsIssued;    // A vector of issuance ISINs\n\n        uint256 totalIssuedAmount;\n        uint256 totalEscrowFundLockedIn;\n        uint256 totalAvailBalance;\n\n        mapping(string => uint256) finalSize;   // mapping deal ISIN to final size raised for that issuance, including escrow allocation\n        mapping(string => uint256) escrowFundLockedIn;   //mapping deal ISIN to allocated escrow fund lock-in in Issuer wallet for that particular issuance\n        mapping(string => uint256) availBalance;    //mapping deal ISIN to available balance of the Issuer wallet (finalSize - escrow at the beginning; can be zero in between payment dates; must have enough fund 5bd before next payment date)\n    }\n\n    struct Investor {\n        address addr;\n        mapping(address => bool) isExisting;\n        string[] dealsBidded;  // a ventor of the deal issuance ISINs the investor has participated in bidding\n\n        uint256 totalBalance;       // in terms of stablecoin\n        uint256 totalLockedInBid;   // in terms of stablecoin\n        uint256 availBalance;       // totalBalance minus totalLockedInBid\n\n        mapping(string => bool) isOfferClosed;      // mapping deal ISIN to a boolean; \"true\" means that the issuance offer period is closed\n        mapping(string => bool) isBidSuccessful;    // mapping deal ISIN to a boolean; \"true\" means that investor'd bid to an issuance is successful\n        mapping(string => uint256) lockedInBid;     // mapping deal ISIN to investment amount the investor has allocated to that deal\n    }\n    */\n\n    address private owner;          // dapp owner address\n    uint256 private balance;        // balance of the Deal contract wallet\n    uint256 private globalFee;              // this is the fee our dapp charges; Assume a flat 5% of total issue size for now\n    uint256 private feeRateDecimal;         // use 3 for now\n    uint256 private percentageDecimal;     // this is used in percentage calculations\n\n    uint256 public dealCount; // total number of deals created in the dapp\n    mapping(string => DealIssuance) deals; // map out ISIN to DealIssuance struct object\n\n    uint256 public issuerCount; // total number of issuers in the dapp\n    mapping(address => Issuer) issuers; // map out issuer address to Issuer struct object\n\n    uint256 public totalInvestorCount; // total number of investors in the dApp\n    mapping(address => Investor) investors; // map out investor address to Investor struct object\n\n    DealTokenFactory public factory;\n    DealTokenManager public manager;\n\n    uint256 public tokenCount;\n    mapping(address => address[]) public tracker_0x_addresses; // map out issuer address to a vector of addresses of DealTokens issued\n\n    // USD Coin tracker address on Ethereum mainnet\n    //address public constant USDC = 0xa0b86991c6218b36c1d19d4a2e9eb0ce3606eb48;\n    // USD Coin tracker address on Kovan test net\n    address public constant USDC = 0xe22da380ee6B445bb8273C81944ADEB6E8450422;\n\n    // =========================\n    /// PLACEHOLDER for Modifiers\n    modifier isOfferLive(string memory _ISIN) {\n        require(deals[_ISIN].isOfferLive, \"Issuance offer period is NOT live\");\n        _;\n    }\n\n    modifier isOfferClosed(string memory _ISIN) {\n        require(\n            deals[_ISIN].isOfferClosed,\n            \"Issuance offer period is NOT closed yet\"\n        );\n        _;\n    }\n\n    modifier inState(DealIssuance storage _deal, State _state) {\n        require(\n            _deal.state == _state,\n            \"Invalid state.\"\n        );\n        _;\n    }\n    ///...Add more modifiers here...\n\n    ///...Add more modifiers here...\n\n    /**\n     * @notice Constructor\n     */\n    constructor() {\n        owner = msg.sender;\n        globalFee = 5000; // this represents 5% when feeRateDecimal = 3 (for now)\n        feeRateDecimal = 3;\n        percentageDecimal = 2;\n        factory = new DealTokenFactory();\n        manager = new DealTokenManager();\n    }\n\n    /*\n    receive() payable external {\n        balance += msg.value;\n    } */\n\n    /**\n     * @dev Contract Destructor - Mortal design pattern to destroy contract and remove from blockchain\n     *\n    function kill() public onlyOwner {\n        selfdestruct(address(uint160(owner()))); /// cast owner to address payable\n    }\n    */\n\n    /**\n     * @notice Create issuer & set meta data details\n     */\n    function createIssuer(string memory _name, string memory _creditRating)\n        public\n    {\n        Issuer storage issuer = issuers[msg.sender];\n        //require(issuer.insert(msg.sender));   // Using my Library IssuerSet here\n\n        issuer.name = _name;\n        issuer.creditRating = _creditRating;\n\n        issuerCount++;\n        emit LogCreateIssuer(msg.sender, _name, _creditRating);\n    }\n\n    /**\n     * @notice Edit issuer meta data\n     */\n    function editIssuerMetaData(\n        address _addr,\n        string memory _newName,\n        string memory _newCreditRating\n    ) public {\n        require(\n            msg.sender == _addr,\n            \"DEAL:: editIssuerDetails: Caller is NOT the issuer\"\n        );\n        issuers[_addr].name = _newName;\n        issuers[_addr].creditRating = _newCreditRating;\n\n        emit LogEditIssuerMetaData(_addr, _newName, _newCreditRating);\n    }\n\n    /**\n     * @notice Edit issuer details after new deal offer is closed and set to launch\n     */\n    function editIssuerDetailsPostNewIssuance(\n        string memory _ISIN,\n        address _addr\n    ) internal {\n        DealIssuance storage deal = deals[_ISIN];\n        Issuer storage _issuer = issuers[_addr];\n\n        _issuer.dealsIssued.push() = _ISIN;\n        _issuer.totalIssuedAmount = safeAdd(\n            _issuer.totalIssuedAmount,\n            deal.finalSize\n        );\n        _issuer.totalEscrowFundLockedIn = safeAdd(\n            _issuer.totalEscrowFundLockedIn,\n            deal.totalEscrowAmount\n        );\n        _issuer.totalAvailBalance = safeSub(\n            _issuer.totalIssuedAmount,\n            _issuer.totalEscrowFundLockedIn\n        );\n\n        _issuer.finalSize[_ISIN] = deal.finalSize;\n        _issuer.escrowFundLockedIn[_ISIN] = deal.totalEscrowAmount;\n        _issuer.availBalance[_ISIN] = deal.finalSize - deal.totalEscrowAmount;\n    }\n\n    /**\n     * @notice Edit investor details after new deal offer is closed and set to launch\n     */\n    function editInvestorDetailsPostNewIssuance(\n        string memory _ISIN,\n        Investor storage _investor\n    ) internal {\n        _investor.isOfferClosed[_ISIN] = true;\n        _investor.isBidSuccessful[_ISIN] = true;\n    }\n\n    /**\n     * @notice Get all issuer details by issuer address; must be called by issuer\n     */\n    function getAllIssuerDetailsByAddr(address _addr)\n        public\n        view\n        returns (\n            string memory name,\n            string memory creditRating,\n            string[] memory dealsIssued,\n            uint256 totalIssuedAmount,\n            uint256 totalEscrowFundLockedIn,\n            uint256 totalAvailBalance\n        )\n    {\n        require(\n            msg.sender == _addr,\n            \"DEAL:: getAllIssuerDetailsByAddr: Caller is NOT the issuer\"\n        );\n\n        Issuer storage issuer = issuers[_addr];\n        return (\n            issuer.name,\n            issuer.creditRating,\n            issuer.dealsIssued,\n            issuer.totalIssuedAmount,\n            issuer.totalEscrowFundLockedIn,\n            issuer.totalAvailBalance\n        );\n    }\n\n    /**\n     * @notice Get public issuer details by issuance ISIN\n     */\n    function getIssuerMetaDataByISIN(string memory _ISIN)\n        public\n        view\n        returns (string memory issuerName, string memory creditRating)\n    {\n        return (\n            issuers[deals[_ISIN].issuer].name,\n            issuers[deals[_ISIN].issuer].creditRating\n        );\n    }\n\n    /**\n     * @dev Get investor details - investors can view their own details via this function call\n     */\n    function getAllInvestorDetails(address _addr)\n        public\n        view\n        returns (\n            string[] memory dealsBidded,\n            uint256 totalBalance,\n            uint256 totalLockedInBid,\n            uint256 availBalance\n        )\n    {\n        require(\n            msg.sender == _addr,\n            \"DEAL:: getAllInvestorDetails: Caller is NOT the investor\"\n        );\n\n        return (\n            investors[_addr].dealsBidded,\n            investors[_addr].totalBalance,\n            investors[_addr].totalLockedInBid,\n            investors[_addr].availBalance\n        );\n    }\n\n    /**\n     * @notice Get issuance details (state, name, dates, terms) by issuance ISIN\n     * @dev split DealIssuance getter functions into a few separate ones, otherwise stack too deep :(\n     */\n    function getIssuanceStateNameRateDatesDetailsByISIN(string memory _ISIN)\n        public\n        view\n        returns (\n            State state,\n            string memory dealName,\n            uint256 offerStartTime,\n            uint256 offerCloseTime,\n            uint256 term,\n            uint256 interestRate,\n            uint256[] memory interestPaymentDates\n        )\n    {\n        DealIssuance storage deal = deals[_ISIN];\n        return (\n            deal.state,\n            deal.dealName,\n            deal.offerStartTime,\n            deal.offerCloseTime,\n            deal.term,\n            deal.interestRate,\n            deal.interestPaymentDates\n        );\n    }\n\n    /**\n     * @notice Get issuance details (size, price, fee, escrow, total invetor bid) by issuance ISIN\n     * @dev split DealIssuance getter functions into a few separate ones, otherwise stack too deep :(\n     */\n    function getIssuanceSizePriceTotalBidDetailsByISIN(string memory _ISIN)\n        public\n        view\n        returns (\n            uint256 initSize,\n            uint256 minSize,\n            uint256 faceValue,\n            uint256 offerPrice,\n            uint256 upfrontFee,\n            uint256 escrowRatio,\n            uint256 totalInvestorBid\n        )\n    {\n        DealIssuance storage deal = deals[_ISIN];\n        return (\n            deal.initSize,\n            deal.minSize,\n            deal.faceValue,\n            deal.offerPrice,\n            deal.upfrontFee,\n            deal.escrowRatio,\n            deal.totalInvestorBid\n        );\n    }\n\n    /**\n     * @notice Update details of a deal issuance after it's created & before the offer period is closed\n     * @dev For now we do NOT allow issuers to change ISIN and faceValue (to avoid stack too deep)\n     */\n    function editDealIssuance(\n        string memory _ISIN,\n        string memory _newDealName,\n        uint256 _newInitSize,\n        uint256 _newMinSize,\n        uint256 _newOfferPrice,\n        uint256 _newOfferCloseTime,\n        uint256 _newTerm,\n        uint256 _newInterestRate,\n        uint256[] memory _newInterestPaymentDates,\n        uint256 _newUpfrontFee,\n        uint256 _newEscrowRatio\n    ) public {\n        require(\n            msg.sender == deals[_ISIN].issuer,\n            \"DEAL:: editDealIssuance: Caller is NOT the issuer\"\n        );\n        require(\n            deals[_ISIN].isOfferLive,\n            \"DEAL:: editDealIssuance: You cannot edit an issuance when it is NOT live\"\n        );\n\n        DealIssuance storage deal = deals[_ISIN];\n\n        deal.dealName = _newDealName;\n        deal.initSize = _newInitSize;\n        deal.minSize = _newMinSize;\n        deal.offerPrice = _newOfferPrice;\n        deal.offerCloseTime = _newOfferCloseTime;\n        deal.term = _newTerm;\n        deal.interestRate = _newInterestRate;\n        deal.interestPaymentDates = _newInterestPaymentDates;\n        deal.upfrontFee = _newUpfrontFee;\n        deal.escrowRatio = _newEscrowRatio;\n\n        emit LogEditDealIssuance(\n            msg.sender,\n            _ISIN,\n            _newDealName,\n            _newInitSize,\n            _newMinSize,\n            _newOfferPrice,\n            _newOfferCloseTime,\n            _newTerm,\n            _newInterestRate,\n            _newInterestPaymentDates,\n            _newUpfrontFee,\n            _newEscrowRatio\n        );\n    }\n\n    /**\n     * @notice Create token meta data (name & symbol) for a new issuance\n     */\n    function createTokenMetaData(string memory _ISIN, string memory _name)\n        public\n    {\n        DealIssuance storage deal = deals[_ISIN];\n        require(\n            deal.isOfferLive,\n            \"DEAL:: createTokenMetaData: Offer is not live\"\n        );\n        require(\n            msg.sender == deal.issuer,\n            \"DEAL:: createTokenMetaData: Caller is NOT the issuer\"\n        );\n\n        deal.token.issuer = msg.sender;\n        deal.token.name = _name;\n        deal.token.symbol = _ISIN;\n    }\n\n    /**\n     * @notice Get token details for the corresponding issuance\n     */\n    function getTokenDetails(string memory _ISIN)\n        public\n        view\n        returns (\n            string memory tokenName,\n            string memory symbol,\n            uint256 totalSupply\n        )\n    {\n        return (\n            deals[_ISIN].token.name,\n            deals[_ISIN].token.symbol,\n            deals[_ISIN].token.totalSupply\n        );\n    }\n\n    /**\n     * @notice Edit token meta data for the corresponding issuance\n     */\n    function editTokenMetaData(string memory _ISIN, string memory _newName)\n        public\n    {\n        require(\n            msg.sender == deals[_ISIN].issuer,\n            \"DEAL:: editTokenDetails: Caller is NOT the issuer\"\n        );\n        require(\n            !deals[_ISIN].isOfferClosed,\n            \"DEAL:: editTokenMetaData: Offer period is already closed \"\n        );\n\n        deals[_ISIN].token.name = _newName;\n        deals[_ISIN].token.symbol = _ISIN;\n        emit LogEditTokenMetaData(msg.sender, _ISIN, _newName);\n    }\n\n    // ====================================================\n    /**\n     * @notice Create a new deal issuance, set its details in storage, & offer period starts\n     * @dev Ignored escrowRatio for now, assuming a fixed 5%\n     * @dev Might need to break this into a few separate sub-functions coz stack can become too deep\n     */\n    function createDealIssuance(\n        //address _issuer,\n        string memory _ISIN,\n        string memory _dealName,\n        uint256 _initSize,\n        uint256 _minSize,\n        uint256 _faceValue,\n        uint256 _offerPrice,\n        //uint _offerStartTime,\n        uint256 _offerCloseTime,\n        uint256 _term,\n        uint256 _interestRate,\n        uint256[] memory _interestPaymentDates,\n        uint256 _upfrontFee\n    ) public //uint256 _escrowRatio\n    {\n        DealIssuance storage deal = deals[_ISIN];\n        //require(deal.insert(_ISIN));   // Using my Library DealSet here\n\n        deal.issuer = msg.sender;\n        deal.ISIN = _ISIN;\n        deal.dealName = _dealName;\n        deal.initSize = _initSize;\n        deal.minSize = _minSize;\n        deal.faceValue = _faceValue;\n        deal.offerPrice = _offerPrice;\n        deal.offerStartTime = block.timestamp; // assuming offer period starts immediately after issuer creates the new issuance\n        deal.offerCloseTime = _offerCloseTime;\n        deal.term = _term;\n        deal.interestRate = _interestRate;\n        deal.interestPaymentDates = _interestPaymentDates;\n        deal.upfrontFee = _upfrontFee;\n        deal.escrowRatio = 5000; // this represents 5% with 3 decimals\n\n        deal.state = State.OFFERLIVE;\n        deal.isOfferLive = true;\n        dealCount++;\n\n        emit LogCreateDealIssuance(\n            msg.sender,\n            _ISIN,\n            _dealName,\n            _initSize,\n            _minSize,\n            _faceValue,\n            _offerPrice,\n            deal.offerStartTime,\n            _offerCloseTime,\n            _term,\n            _interestRate,\n            _interestPaymentDates,\n            _upfrontFee\n        );\n    }\n\n    /**\n    * @notice Step 1 - Close deal offering (book-building) process;\n    *         Step 2 - Decide whether to launch the official issuance period, or cancel;\n    *         Step 3 - Mint DealToken for the issuance, calculate investor allocation then allocate accordingly;\n    *         Step 4 - Transfer investor fund to escrow account & the rest to issuer wallet;\n    *         Step 5 - Transfer deal token from Deal contract to each investor account\n    *         Step 6 - Update all relevant details for the issuance, the issuer, and the investors\n    * @dev TODIItem - To be integrated with Chainlink keepers when timestamp clicks pre-set offerCloseTime\n    */\n    function closeDealOffering(string memory _ISIN) public returns(bool) {\n        // Need to revise this modifier becoz function will be called by external Chainlink keeper we set up...\n        require(\n            msg.sender == deals[_ISIN].issuer,\n            \"DEAL:: closeDealOffering: Caller is NOT the issuer\"\n        );\n        require(\n            deals[_ISIN].isOfferLive,\n            \"DEAL:: closeDealOffering: Offer cannot be closed because it is NOT live\"\n        );\n\n        DealIssuance storage deal = deals[_ISIN];\n\n        deal.state = State.OFFERCLOSED;\n        deal.isOfferLive = false;\n        deal.isOfferClosed = true;\n\n        bool toLaunch = assessDealOfferingFinalStatus(_ISIN);\n        uint256 finalSize = deal.finalSize;\n\n        if (!toLaunch) {\n            cancelDeal(_ISIN);\n            return false; // return false means offer is cancelled\n        } else {\n            // deal token is only minted at this stage\n            mintToken(_ISIN, deal.issuer);\n\n            // need to be precise to pre-defined feeRateDecimal\n            uint256 ratioInDecimal = safeDiv(\n                safeMul(finalSize, 10**feeRateDecimal),\n                deal.totalInvestorBid\n            );\n            uint256 finalAllocation;\n\n            for (uint256 i = 0; i < deal.investors.length; i++) {\n                address investorAddr = deal.investors[i];\n\n                // must adjust investor allocation when deal is overbid; no need otherwise\n                if (deal.totalInvestorBid > finalSize) {\n                    // convert back to normal number without decimals\n                    finalAllocation = safeDiv(\n                        safeMul(\n                            ratioInDecimal,\n                            investors[investorAddr].lockedInBid[_ISIN]\n                        ),\n                        10**feeRateDecimal\n                    );\n\n                    // convert escrowRatio to num w/o decimals, then convert to percentage value before safeMul with finalAllocation\n                    deal.totalEscrowAmount = safeAdd(\n                        deal.totalEscrowAmount,\n                        safeDiv(\n                            safeMul(\n                                safeDiv(deal.escrowRatio, 10**feeRateDecimal),\n                                finalAllocation\n                            ),\n                            10**percentageDecimal\n                        )\n                    );\n\n                    investors[investorAddr].lockedInBid[\n                        _ISIN\n                    ] = finalAllocation;\n                    // finalSize is capped at initSize; so must adjust allocated investment amount for each investor\n                    adjustInvestorAllocation(\n                        _ISIN,\n                        finalAllocation,\n                        investorAddr\n                    );\n                }\n                // deal token & investment stablecoin transfer\n                //transferStableCoin(_ISIN, investorAddr, finalAllocation);\n                transferStableCoin(investorAddr, finalAllocation);\n                transferDealToken(_ISIN, investorAddr, finalAllocation);\n                editInvestorDetailsPostNewIssuance(_ISIN, investors[investorAddr]);\n            }\n            deal.totalInvestorBid = safeDiv( safeMul( ratioInDecimal, deal.totalInvestorBid ), 10**feeRateDecimal );\n            deal.state = State.ISSUED;\n\n            editIssuerDetailsPostNewIssuance(_ISIN, deal.issuer);\n\n            emit LogIssueNewDeal(\n                deal.issuer,\n                _ISIN,\n                deal.token.tokenAddr,\n                finalSize,\n                deal.investors\n            );\n\n            return true; // return true means offer is successfully closed & deal issued\n        }\n    }\n\n    /**\n     * @notice Count total investor bids to assess whether to launch and corresponding actions\n     */\n    function assessDealOfferingFinalStatus(string memory _ISIN)\n        internal\n        returns (bool)\n    {\n        if (deals[_ISIN].totalInvestorBid >= deals[_ISIN].minSize) {\n            deals[_ISIN].finalSize = Math.min(\n                deals[_ISIN].totalInvestorBid,\n                deals[_ISIN].initSize\n            );\n            return true;\n        } else {\n            return false;\n        }\n    }\n\n    /**\n     * @notice Adjust allocated investment amount for each investor\n     * @dev Function is called only when totalInvestorBid > finalSize\n     */\n    function adjustInvestorAllocation(\n        string memory _ISIN,\n        uint256 _finalAllocation,\n        address _investorAddr\n    ) internal {\n        Investor storage investor = investors[_investorAddr];\n\n        investor.totalBalance = safeSub(\n            investor.totalBalance,\n            _finalAllocation\n        );\n        investor.totalLockedInBid = safeSub(\n            investor.totalLockedInBid,\n            investor.lockedInBid[_ISIN]\n        );\n        investor.availBalance = safeSub(\n            investor.totalBalance,\n            investor.totalLockedInBid\n        );\n    }\n\n     /**\n    * @notice Transfer stablecoin funding from investors to issuer\n    */\n    //function transferStableCoin(string memory _ISIN, address _investorAddr, uint256 _allocation) internal {\n    function transferStableCoin(address _investorAddr, uint256 _allocation) internal {\n        // transfer investor fund to dapp wallet, and assuming\n        //   the owner of stablecoin tracker account has approved & given alllowance to investor wallet\n        //ERC20(USDC).transferFrom(_investorAddr, address(this), _allocation);\n    }\n\n    /**\n     * @notice Transfer allocated deal tokens to investors\n     */\n    function transferDealToken(\n        string memory _ISIN,\n        address _investorAddr,\n        uint256 _allocation\n    ) internal {\n        DealIssuance storage deal = deals[_ISIN];\n        address tokenAddr = deal.token.tokenAddr;\n        uint256 tokenAmount = safeDiv(_allocation, deal.faceValue);\n\n        manager.transfer(tokenAddr, _investorAddr, tokenAmount);\n\n        emit LogTransferDealToken(_ISIN, tokenAddr, _investorAddr, tokenAmount);\n    }\n\n    /**\n     * @notice Cancel the deal issuance due to totalInvestorBid < minLaunchSize\n     */\n    function cancelDeal(string memory _ISIN) internal {\n        deals[_ISIN].state = State.CANCELLED;\n        emit LogCancelDeal(deals[_ISIN].issuer, _ISIN);\n    }\n\n    /**\n     * @notice Mint a new token for the new issuance\n     * @dev TODOItem - might need to change to private function later\n     */\n    function mintToken(string memory _ISIN, address _issuerAddr) internal {\n        require(\n            msg.sender == _issuerAddr,\n            \"DEAL:: mintToken: Caller is NOT the issuer\"\n        );\n\n        DealIssuance storage deal = deals[_ISIN];\n        string memory _name = deal.token.name;\n        string memory _symbol = deal.token.symbol;\n        uint256 _totalSupply = safeDiv(deal.finalSize, deal.faceValue);\n        deal.token.totalSupply = _totalSupply;\n\n        address tokenAddr = factory.createToken(_name, _symbol, _totalSupply);\n        manager.setTokenOwner(tokenAddr, address(this));\n        DealToken(tokenAddr).increaseAllowance(address(manager), _totalSupply);\n\n        deal.token.tokenAddr = tokenAddr;\n        tracker_0x_addresses[_issuerAddr].push() = tokenAddr;\n        tokenCount++;\n\n        emit LogCreateToken(_issuerAddr, _ISIN, _name, _symbol, _totalSupply);\n    }\n\n    /**\n    * @notice Investor deposit stablecoin fund (USDC) into the dapp\n    * @dev Implement USDC transfer here after getting some test USDCs\n    */\n    //function investorMakeDeposit(IERC20 _stableCoin, uint256 _amount) public {\n    function investorMakeDeposit(uint256 _amount) public {\n        //ERC20(USDC).transfer(address(this), _amount);\n        Investor storage investor = investors[msg.sender];\n\n        investor.totalBalance = safeAdd(investor.totalBalance, _amount);\n        investor.availBalance = safeAdd(investor.availBalance, _amount);\n\n        // Call library InvestorSet to see if investor already exists\n        //if(investor.insert(msg.sender)) {\n            totalInvestorCount++;\n        //}\n        //emit LogInvestorMakeDeposit(msg.sender, _amount);\n    }\n\n    /**\n     * @notice Investor makes a bid to invest in an issuance during offer period\n     */\n    function investorMakeBid(string memory _ISIN, uint256 _bidAmount) public {\n        DealIssuance storage deal = deals[_ISIN];\n        Investor storage investor = investors[msg.sender];\n\n        require(\n            !deal.investorAlreadyBid[msg.sender],\n            \"DEAL:: investorMakeBid: you have already made a bid\"\n        );\n        require(deal.isOfferLive, \"DEAL:: investorMakeBid: offer is NOT live\");\n        require(\n            _bidAmount <= investor.totalBalance,\n            \"DEAL:: investorMakeBid: insuffient fund\"\n        );\n\n        deal.totalInvestorBid = safeAdd(deal.totalInvestorBid, _bidAmount);\n\n        investor.dealsBidded.push() = _ISIN;\n        investor.totalLockedInBid = safeAdd(\n            investor.totalLockedInBid,\n            _bidAmount\n        );\n        investor.availBalance = safeSub(\n            investor.totalBalance,\n            investor.totalLockedInBid\n        );\n\n        //investor.isOfferClosed[_ISIN] = false;\n        //investor.isBidSuccessful[_ISIN] = false;\n        investor.lockedInBid[_ISIN] = _bidAmount;\n\n        deal.investors.push() = msg.sender;\n        deal.investorCount++;\n        deal.investorAlreadyBid[msg.sender] = true;\n        //*** emit LogInvestorMakeBid(); ***\n    }\n\n    /**\n    * @notice Investor gets details of a bid made earlier\n    */\n    function getBidDetails(string memory _ISIN, address _addr) public view returns(\n        bool isClosed,\n        bool isSuccessful,\n        uint256 lockedInAmount)\n    {\n        Investor storage investor = investors[msg.sender];\n        require(msg.sender == _addr, \"DEAL:: getBidDetails: Caller is NOT the investor\");\n        return(\n            investor.isOfferClosed[_ISIN],\n            investor.isBidSuccessful[_ISIN],\n            investor.lockedInBid[_ISIN]\n        );\n    }\n\n    /**\n    * @notice Investor edits an already-placed bid\n    * @dev this is only allowed before deal offer period is closed\n    */\n    function investorEditBid(string memory _ISIN, address _addr, uint256 _newBidAmount) public {\n        DealIssuance storage deal = deals[_ISIN];\n        Investor storage investor = investors[msg.sender];\n\n        //require(msg.sender == deal.investors[], \"DEAL:: investorEditBid: Not an investor for this deal\");    // need to verify if msg.sender is an investor for this deal\n        require(deals[_ISIN].isOfferLive, \"DEAL:: investorEditBid: You cannot change a bid if the offer is NOT live\");\n        require(deal.investorAlreadyBid[msg.sender], \"DEAL:: investorEditBid: you haven't made a bid yet\");\n        require(_newBidAmount <= investor.totalBalance, \"DEAL:: investorEditBid: insuffient fund\");\n\n        deal.totalInvestorBid = safeAdd( safeSub( deal.totalInvestorBid, investor.lockedInBid[_ISIN] ), _newBidAmount );\n\n        investor.totalLockedInBid = safeAdd( safeSub( investor.totalLockedInBid, investor.lockedInBid[_ISIN] ), _newBidAmount );\n        investor.availBalance = safeSub(investor.totalBalance, investor.totalLockedInBid);\n\n        investor.lockedInBid[_ISIN] = _newBidAmount;\n        //*** emit LogInvestorEditBid(); ***\n    }\n\n\n\n    function investorCancelBid(string memory _ISIN, address _addr) public {\n        //......\n    }\n\n    function investorWithdraw(address _addr, uint256 _amount) public {\n        //......\n    }\n\n    /***\n    function issuerWithdraw(address payable _issuerExternalAddr, string memory _ISIN, uint256 _amount) public {\n        require(msg.sender == deals[_ISIN].issuer, \"DEAL:: issuerWithdrawFund: Caller is NOT the issuer\");\n        require(_amount <= issuers[msg.sender][_ISIN].availableBalance, \"DEAL:: issuerWithdrawFund: Not enough available fund\");\n\n        issuers[msg.sender][_ISIN].availableBalance -= _amount;\n        _issuerExternalAddr.transfer(_amount);\n    } */\n\n    /// ================================================\n    ///*** Helper functions; To be moved to a separate Helper contract ***\n    function safeAdd(uint256 _a, uint256 _b) internal pure returns (uint256) {\n        return SafeMath.add(_a, _b);\n    }\n\n    function safeSub(uint256 _a, uint256 _b) internal pure returns (uint256) {\n        return SafeMath.sub(_a, _b);\n    }\n\n    function safeMul(uint256 _a, uint256 _b) internal pure returns (uint256) {\n        return SafeMath.mul(_a, _b);\n    }\n\n    function safeDiv(uint256 _a, uint256 _b) internal pure returns (uint256) {\n        return SafeMath.div(_a, _b);\n    }\n\n    /// ===============================================\n    /**\n    function issuerTopUpEscrow(string memory _ISIN) public {}\n\n    function payInterimCoupon()\n\n    function redeemAtMaturity()\n\n    function handleDefaultEvent()\n*/\n}\n",
  "sourcePath": "/home/yosephkurniasoenggoro/Documents/GitHub/PrimeDefi/contracts/Deal.sol",
  "compiler": {
    "name": "solc",
    "version": "0.8.0+commit.c7dfd78e.Emscripten.clang"
  },
  "schemaVersion": "3.4.3",
  "updatedAt": "2021-11-23T15:01:02.264Z",
  "devdoc": {
    "author": "0xYue",
    "details": "USDC stablecoin tracker address needs to be changed to Ethereum mainnet when we're ready to deployTo link libraries developed to check existing issuer/investor/deal before adding new ones with this main contract!!Oversized now!!! Must break this into a few separate contracts such as Helper functions, event interface, etc.To add @param to all sub-functionsTo implement all Ownable and Pausible functionsTo finalize all events and ModifiersTo check and finalize all function visibilitiesTo implement more search functionsTo use SafeMath at all places (incl ++ calculations)To change to SafeERC20 functions laterTo integrate with Chainlink oracle adaptors and keepersTo implement decimals to our DealTokenTo implement global fee",
    "kind": "dev",
    "methods": {
      "closeDealOffering(string)": {
        "details": "TODIItem - To be integrated with Chainlink keepers when timestamp clicks pre-set offerCloseTime"
      },
      "createDealIssuance(string,string,uint256,uint256,uint256,uint256,uint256,uint256,uint256,uint256[],uint256)": {
        "details": "Ignored escrowRatio for now, assuming a fixed 5%Might need to break this into a few separate sub-functions coz stack can become too deep"
      },
      "editDealIssuance(string,string,uint256,uint256,uint256,uint256,uint256,uint256,uint256[],uint256,uint256)": {
        "details": "For now we do NOT allow issuers to change ISIN and faceValue (to avoid stack too deep)"
      },
      "getAllInvestorDetails(address)": {
        "details": "Get investor details - investors can view their own details via this function call"
      },
      "getIssuanceSizePriceTotalBidDetailsByISIN(string)": {
        "details": "split DealIssuance getter functions into a few separate ones, otherwise stack too deep :("
      },
      "getIssuanceStateNameRateDatesDetailsByISIN(string)": {
        "details": "split DealIssuance getter functions into a few separate ones, otherwise stack too deep :("
      },
      "investorEditBid(string,address,uint256)": {
        "details": "this is only allowed before deal offer period is closed"
      },
      "investorMakeDeposit(uint256)": {
        "details": "Implement USDC transfer here after getting some test USDCs"
      }
    },
    "title": "Deal",
    "version": 1
  },
  "userdoc": {
    "kind": "user",
    "methods": {
      "closeDealOffering(string)": {
        "notice": "Step 1 - Close deal offering (book-building) process;         Step 2 - Decide whether to launch the official issuance period, or cancel;         Step 3 - Mint DealToken for the issuance, calculate investor allocation then allocate accordingly;         Step 4 - Transfer investor fund to escrow account & the rest to issuer wallet;         Step 5 - Transfer deal token from Deal contract to each investor account         Step 6 - Update all relevant details for the issuance, the issuer, and the investors"
      },
      "constructor": {
        "notice": "Constructor"
      },
      "createDealIssuance(string,string,uint256,uint256,uint256,uint256,uint256,uint256,uint256,uint256[],uint256)": {
        "notice": "Create a new deal issuance, set its details in storage, & offer period starts"
      },
      "createIssuer(string,string)": {
        "notice": "Create issuer & set meta data details"
      },
      "createTokenMetaData(string,string)": {
        "notice": "Create token meta data (name & symbol) for a new issuance"
      },
      "editDealIssuance(string,string,uint256,uint256,uint256,uint256,uint256,uint256,uint256[],uint256,uint256)": {
        "notice": "Update details of a deal issuance after it's created & before the offer period is closed"
      },
      "editIssuerMetaData(address,string,string)": {
        "notice": "Edit issuer meta data"
      },
      "editTokenMetaData(string,string)": {
        "notice": "Edit token meta data for the corresponding issuance"
      },
      "getAllIssuerDetailsByAddr(address)": {
        "notice": "Get all issuer details by issuer address; must be called by issuer"
      },
      "getBidDetails(string,address)": {
        "notice": "Investor gets details of a bid made earlier"
      },
      "getIssuanceSizePriceTotalBidDetailsByISIN(string)": {
        "notice": "Get issuance details (size, price, fee, escrow, total invetor bid) by issuance ISIN"
      },
      "getIssuanceStateNameRateDatesDetailsByISIN(string)": {
        "notice": "Get issuance details (state, name, dates, terms) by issuance ISIN"
      },
      "getIssuerMetaDataByISIN(string)": {
        "notice": "Get public issuer details by issuance ISIN"
      },
      "getTokenDetails(string)": {
        "notice": "Get token details for the corresponding issuance"
      },
      "investorEditBid(string,address,uint256)": {
        "notice": "Investor edits an already-placed bid"
      },
      "investorMakeBid(string,uint256)": {
        "notice": "Investor makes a bid to invest in an issuance during offer period"
      },
      "investorMakeDeposit(uint256)": {
        "notice": "Investor deposit stablecoin fund (USDC) into the dapp"
      }
    },
    "notice": "This contract represents the entire deal issuance book-building process (incl creation of new deals and minting/allocation of the deal token",
    "version": 1
  }
}