{
  "contractName": "DealTokenManager",
  "abi": [
    {
      "inputs": [
        {
          "internalType": "string",
          "name": "",
          "type": "string"
        }
      ],
      "name": "isTokenNameTaken",
      "outputs": [
        {
          "internalType": "bool",
          "name": "",
          "type": "bool"
        }
      ],
      "stateMutability": "view",
      "type": "function"
    },
    {
      "inputs": [
        {
          "internalType": "address",
          "name": "",
          "type": "address"
        }
      ],
      "name": "tokenOwners",
      "outputs": [
        {
          "internalType": "address",
          "name": "",
          "type": "address"
        }
      ],
      "stateMutability": "view",
      "type": "function"
    },
    {
      "inputs": [
        {
          "internalType": "address",
          "name": "_token",
          "type": "address"
        },
        {
          "internalType": "address",
          "name": "_owner",
          "type": "address"
        }
      ],
      "name": "setTokenOwner",
      "outputs": [],
      "stateMutability": "nonpayable",
      "type": "function"
    },
    {
      "inputs": [
        {
          "internalType": "address",
          "name": "_token",
          "type": "address"
        }
      ],
      "name": "getTokenOwner",
      "outputs": [
        {
          "internalType": "address",
          "name": "",
          "type": "address"
        }
      ],
      "stateMutability": "view",
      "type": "function"
    },
    {
      "inputs": [
        {
          "internalType": "address",
          "name": "_token",
          "type": "address"
        },
        {
          "internalType": "address",
          "name": "_to",
          "type": "address"
        },
        {
          "internalType": "uint256",
          "name": "_amount",
          "type": "uint256"
        }
      ],
      "name": "transfer",
      "outputs": [],
      "stateMutability": "nonpayable",
      "type": "function"
    }
  ],
  "bytecode": "0x608060405234801561001057600080fd5b50610565806100206000396000f3fe608060405234801561001057600080fd5b50600436106100575760003560e01c8063ad79e94b1461005c578063beabacc814610085578063cd025b761461009a578063cf489aa8146100ad578063dc17c9ca146100cd575b600080fd5b61006f61006a3660046102e9565b6100e0565b60405161007c9190610450565b60405180910390f35b61009861009336600461033c565b6100fb565b005b6100986100a836600461030a565b610263565b6100c06100bb366004610397565b610291565b60405161007c91906104a2565b61006f6100db3660046102e9565b6102b1565b6000602081905290815260409020546001600160a01b031681565b6001600160a01b0383811660009081526020819052604090205416331461013d5760405162461bcd60e51b8152600401610134906104f1565b60405180910390fd5b604051636eb1769f60e11b815281906001600160a01b0385169063dd62ed3e9061016d9033903090600401610464565b60206040518083038186803b15801561018557600080fd5b505afa158015610199573d6000803e3d6000fd5b505050506040513d601f19601f820116820180604052508101906101bd9190610438565b10156101db5760405162461bcd60e51b8152600401610134906104ad565b6040516323b872dd60e01b81526001600160a01b038416906323b872dd9061020b9033908690869060040161047e565b602060405180830381600087803b15801561022557600080fd5b505af1158015610239573d6000803e3d6000fd5b505050506040513d601f19601f8201168201806040525081019061025d9190610377565b50505050565b6001600160a01b03918216600090815260208190526040902080546001600160a01b03191691909216179055565b805160208183018101805160018252928201919093012091525460ff1681565b6001600160a01b03808216600090815260208190526040902054165b919050565b80356001600160a01b03811681146102cd57600080fd5b6000602082840312156102fa578081fd5b610303826102d2565b9392505050565b6000806040838503121561031c578081fd5b610325836102d2565b9150610333602084016102d2565b90509250929050565b600080600060608486031215610350578081fd5b610359846102d2565b9250610367602085016102d2565b9150604084013590509250925092565b600060208284031215610388578081fd5b81518015158114610303578182fd5b600060208083850312156103a9578182fd5b823567ffffffffffffffff808211156103c0578384fd5b818501915085601f8301126103d3578384fd5b8135818111156103e5576103e5610519565b604051601f8201601f191681018501838111828210171561040857610408610519565b604052818152838201850188101561041e578586fd5b818585018683013790810190930193909352509392505050565b600060208284031215610449578081fd5b5051919050565b6001600160a01b0391909116815260200190565b6001600160a01b0392831681529116602082015260400190565b6001600160a01b039384168152919092166020820152604081019190915260600190565b901515815260200190565b60208082526024908201527f4e6f7420656e6f75676820616c6c6f77616e636520666f722074686973207365604082015263373232b960e11b606082015260800190565b6020808252600e908201526d139bdd08185d5d1a1bdc9a5e995960921b604082015260600190565b634e487b7160e01b600052604160045260246000fdfea264697066735822122031d373ac97d4d5b8c61056a345ef29cdd42c3670fefcc2cefc795db10eb78efc64736f6c63430008000033",
  "immutableReferences": {},
  "source": "// SPDX-License-Identifier: MIT\n\npragma solidity 0.8.0;\n\nimport \"./DealToken.sol\";\n\ncontract DealTokenManager {\n    mapping( address => address ) public tokenOwners;\n    mapping( string => bool ) public isTokenNameTaken;\n\n    function setTokenOwner(address _token, address _owner) public {\n        tokenOwners[_token] = _owner;\n    }\n\n    function getTokenOwner(address _token) public view returns(address) {\n        return tokenOwners[_token];\n    }\n\n    function transfer(address _token, address _to, uint256 _amount) public {\n        require(msg.sender == tokenOwners[_token], \"Not authorized\");\n        require(DealToken(_token).allowance(msg.sender, address(this)) >= _amount, \"Not enough allowance for this sender\");\n\n        DealToken(_token).transferFrom(msg.sender, _to, _amount);\n    }\n}\n",
  "sourcePath": "/home/yosephkurniasoenggoro/Documents/GitHub/PrimeDefi/contracts/DealTokenManager.sol",
  "compiler": {
    "name": "solc",
    "version": "0.8.0+commit.c7dfd78e.Emscripten.clang"
  },
  "schemaVersion": "3.4.3",
  "updatedAt": "2021-11-23T14:39:57.586Z",
  "devdoc": {
    "kind": "dev",
    "methods": {},
    "version": 1
  },
  "userdoc": {
    "kind": "user",
    "methods": {},
    "version": 1
  }
}