{
	"contractName": "DealTokenManager",
	"abi": [
		{
			"inputs": [
				{
					"internalType": "string",
					"name": "",
					"type": "string"
				}
			],
			"name": "isTokenNameTaken",
			"outputs": [
				{
					"internalType": "bool",
					"name": "",
					"type": "bool"
				}
			],
			"stateMutability": "view",
			"type": "function"
		},
		{
			"inputs": [
				{
					"internalType": "address",
					"name": "",
					"type": "address"
				}
			],
			"name": "tokenOwners",
			"outputs": [
				{
					"internalType": "address",
					"name": "",
					"type": "address"
				}
			],
			"stateMutability": "view",
			"type": "function"
		},
		{
			"inputs": [
				{
					"internalType": "address",
					"name": "_token",
					"type": "address"
				},
				{
					"internalType": "address",
					"name": "_owner",
					"type": "address"
				}
			],
			"name": "setTokenOwner",
			"outputs": [],
			"stateMutability": "nonpayable",
			"type": "function"
		},
		{
			"inputs": [
				{
					"internalType": "address",
					"name": "_token",
					"type": "address"
				},
				{
					"internalType": "address",
					"name": "_to",
					"type": "address"
				},
				{
					"internalType": "uint256",
					"name": "_amount",
					"type": "uint256"
				}
			],
			"name": "transfer",
			"outputs": [],
			"stateMutability": "nonpayable",
			"type": "function"
		}
	],
	"bytecode": "0x608060405234801561001057600080fd5b5061052b806100206000396000f3fe608060405234801561001057600080fd5b506004361061004c5760003560e01c8063ad79e94b14610051578063beabacc81461007a578063cd025b761461008f578063cf489aa8146100a2575b600080fd5b61006461005f3660046102af565b6100c2565b6040516100719190610416565b60405180910390f35b61008d610088366004610302565b6100dd565b005b61008d61009d3660046102d0565b610245565b6100b56100b036600461035d565b610273565b6040516100719190610468565b6000602081905290815260409020546001600160a01b031681565b6001600160a01b0383811660009081526020819052604090205416331461011f5760405162461bcd60e51b8152600401610116906104b7565b60405180910390fd5b604051636eb1769f60e11b815281906001600160a01b0385169063dd62ed3e9061014f903390309060040161042a565b60206040518083038186803b15801561016757600080fd5b505afa15801561017b573d6000803e3d6000fd5b505050506040513d601f19601f8201168201806040525081019061019f91906103fe565b10156101bd5760405162461bcd60e51b815260040161011690610473565b6040516323b872dd60e01b81526001600160a01b038416906323b872dd906101ed90339086908690600401610444565b602060405180830381600087803b15801561020757600080fd5b505af115801561021b573d6000803e3d6000fd5b505050506040513d601f19601f8201168201806040525081019061023f919061033d565b50505050565b6001600160a01b03918216600090815260208190526040902080546001600160a01b03191691909216179055565b805160208183018101805160018252928201919093012091525460ff1681565b80356001600160a01b03811681146102aa57600080fd5b919050565b6000602082840312156102c0578081fd5b6102c982610293565b9392505050565b600080604083850312156102e2578081fd5b6102eb83610293565b91506102f960208401610293565b90509250929050565b600080600060608486031215610316578081fd5b61031f84610293565b925061032d60208501610293565b9150604084013590509250925092565b60006020828403121561034e578081fd5b815180151581146102c9578182fd5b6000602080838503121561036f578182fd5b823567ffffffffffffffff80821115610386578384fd5b818501915085601f830112610399578384fd5b8135818111156103ab576103ab6104df565b604051601f8201601f19168101850183811182821017156103ce576103ce6104df565b60405281815283820185018810156103e4578586fd5b818585018683013790810190930193909352509392505050565b60006020828403121561040f578081fd5b5051919050565b6001600160a01b0391909116815260200190565b6001600160a01b0392831681529116602082015260400190565b6001600160a01b039384168152919092166020820152604081019190915260600190565b901515815260200190565b60208082526024908201527f4e6f7420656e6f75676820616c6c6f77616e636520666f722074686973207365604082015263373232b960e11b606082015260800190565b6020808252600e908201526d139bdd08185d5d1a1bdc9a5e995960921b604082015260600190565b634e487b7160e01b600052604160045260246000fdfea26469706673582212208ab4e4461c036b4c20cb24667d0d989fb542b55785a07c12de33d9433b9f2c3464736f6c63430008000033",
	"immutableReferences": {},
	"source": "//SPDX-License-Identifier: GPL-3.0\n\npragma solidity ^0.8.0;\n\n//import \"https://github.com/OpenZeppelin/openzeppelin-contracts/blob/master/contracts/token/ERC20/ERC20.sol\";\n\nimport \"./DealToken.sol\";\n\ncontract DealTokenManager {\n    //mapping( address => DealToken ) public tokens;\n    mapping( address => address ) public tokenOwners;\n    mapping( string => bool ) public isTokenNameTaken;\n\n    function setTokenOwner(address _token, address _owner) public {\n        tokenOwners[_token] = _owner;\n    }\n\n    function transfer(address _token, address _to, uint256 _amount) public {\n        require(msg.sender == tokenOwners[_token], \"Not authorized\");\n        require(DealToken(_token).allowance(msg.sender, address(this)) >= _amount, \"Not enough allowance for this sender\");\n\n        DealToken(_token).transferFrom(msg.sender, _to, _amount);\n    }\n}\n",
	"sourcePath": "/home/yosephkurniasoenggoro/Documents/GitHub/PrimeDefi/contracts/DealTokenManager.sol",
	"compiler": {
		"name": "solc",
		"version": "0.8.0+commit.c7dfd78e.Emscripten.clang"
	},
	"schemaVersion": "3.4.3",
	"updatedAt": "2021-11-20T04:30:34.891Z",
	"devdoc": {
		"kind": "dev",
		"methods": {},
		"version": 1
	},
	"userdoc": {
		"kind": "user",
		"methods": {},
		"version": 1
	}
}