{
	"contractName": "Deal",
	"abi": [
		{
			"inputs": [],
			"stateMutability": "nonpayable",
			"type": "constructor"
		},
		{
			"anonymous": false,
			"inputs": [
				{
					"indexed": true,
					"internalType": "address",
					"name": "_issuer",
					"type": "address"
				},
				{
					"indexed": true,
					"internalType": "string",
					"name": "_ISIN",
					"type": "string"
				}
			],
			"name": "LogCancelDeal",
			"type": "event"
		},
		{
			"anonymous": false,
			"inputs": [
				{
					"indexed": true,
					"internalType": "address",
					"name": "_issuer",
					"type": "address"
				},
				{
					"indexed": true,
					"internalType": "string",
					"name": "_ISIN",
					"type": "string"
				},
				{
					"indexed": false,
					"internalType": "string",
					"name": "_dealName",
					"type": "string"
				},
				{
					"indexed": false,
					"internalType": "uint256",
					"name": "_initSize",
					"type": "uint256"
				},
				{
					"indexed": false,
					"internalType": "uint256",
					"name": "_minSize",
					"type": "uint256"
				},
				{
					"indexed": false,
					"internalType": "uint256",
					"name": "_faceValue",
					"type": "uint256"
				},
				{
					"indexed": false,
					"internalType": "uint256",
					"name": "_offerPrice",
					"type": "uint256"
				},
				{
					"indexed": false,
					"internalType": "uint256",
					"name": "_offerStartTime",
					"type": "uint256"
				},
				{
					"indexed": false,
					"internalType": "uint256",
					"name": "_offerCloseTime",
					"type": "uint256"
				},
				{
					"indexed": false,
					"internalType": "uint256",
					"name": "_term",
					"type": "uint256"
				},
				{
					"indexed": false,
					"internalType": "uint256",
					"name": "_interestRate",
					"type": "uint256"
				},
				{
					"indexed": false,
					"internalType": "uint256[]",
					"name": "_interestPaymentDates",
					"type": "uint256[]"
				},
				{
					"indexed": false,
					"internalType": "uint256",
					"name": "_upfrontFee",
					"type": "uint256"
				}
			],
			"name": "LogCreateDealIssuance",
			"type": "event"
		},
		{
			"anonymous": false,
			"inputs": [
				{
					"indexed": true,
					"internalType": "address",
					"name": "_issuer",
					"type": "address"
				},
				{
					"indexed": false,
					"internalType": "string",
					"name": "_name",
					"type": "string"
				},
				{
					"indexed": false,
					"internalType": "string",
					"name": "_creditRating",
					"type": "string"
				}
			],
			"name": "LogCreateIssuer",
			"type": "event"
		},
		{
			"anonymous": false,
			"inputs": [
				{
					"indexed": true,
					"internalType": "address",
					"name": "_issuer",
					"type": "address"
				},
				{
					"indexed": true,
					"internalType": "string",
					"name": "_ISIN",
					"type": "string"
				},
				{
					"indexed": false,
					"internalType": "string",
					"name": "_name",
					"type": "string"
				},
				{
					"indexed": false,
					"internalType": "string",
					"name": "_symbol",
					"type": "string"
				},
				{
					"indexed": false,
					"internalType": "uint256",
					"name": "_totalSupply",
					"type": "uint256"
				}
			],
			"name": "LogCreateToken",
			"type": "event"
		},
		{
			"anonymous": false,
			"inputs": [
				{
					"indexed": true,
					"internalType": "address",
					"name": "_issuer",
					"type": "address"
				},
				{
					"indexed": true,
					"internalType": "string",
					"name": "_ISIN",
					"type": "string"
				},
				{
					"indexed": false,
					"internalType": "string",
					"name": "_newDealName",
					"type": "string"
				},
				{
					"indexed": false,
					"internalType": "uint256",
					"name": "_newInitSize",
					"type": "uint256"
				},
				{
					"indexed": false,
					"internalType": "uint256",
					"name": "_newMinSize",
					"type": "uint256"
				},
				{
					"indexed": false,
					"internalType": "uint256",
					"name": "_newOfferPrice",
					"type": "uint256"
				},
				{
					"indexed": false,
					"internalType": "uint256",
					"name": "_newOfferCloseTime",
					"type": "uint256"
				},
				{
					"indexed": false,
					"internalType": "uint256",
					"name": "_newTerm",
					"type": "uint256"
				},
				{
					"indexed": false,
					"internalType": "uint256",
					"name": "_newInterestRate",
					"type": "uint256"
				},
				{
					"indexed": false,
					"internalType": "uint256[]",
					"name": "_newInterestPaymentDates",
					"type": "uint256[]"
				},
				{
					"indexed": false,
					"internalType": "uint256",
					"name": "_newUpfrontFee",
					"type": "uint256"
				},
				{
					"indexed": false,
					"internalType": "uint256",
					"name": "_newEscrowRatio",
					"type": "uint256"
				}
			],
			"name": "LogEditDealIssuance",
			"type": "event"
		},
		{
			"anonymous": false,
			"inputs": [
				{
					"indexed": true,
					"internalType": "address",
					"name": "_issuer",
					"type": "address"
				},
				{
					"indexed": false,
					"internalType": "string",
					"name": "_name",
					"type": "string"
				},
				{
					"indexed": false,
					"internalType": "string",
					"name": "_creditRating",
					"type": "string"
				}
			],
			"name": "LogEditIssuerMetaData",
			"type": "event"
		},
		{
			"anonymous": false,
			"inputs": [
				{
					"indexed": true,
					"internalType": "address",
					"name": "_issuer",
					"type": "address"
				},
				{
					"indexed": true,
					"internalType": "string",
					"name": "_ISIN",
					"type": "string"
				},
				{
					"indexed": false,
					"internalType": "string",
					"name": "_newName",
					"type": "string"
				}
			],
			"name": "LogEditTokenMetaData",
			"type": "event"
		},
		{
			"anonymous": false,
			"inputs": [
				{
					"indexed": true,
					"internalType": "address",
					"name": "_issuer",
					"type": "address"
				},
				{
					"indexed": true,
					"internalType": "string",
					"name": "_ISIN",
					"type": "string"
				},
				{
					"indexed": false,
					"internalType": "address",
					"name": "_token",
					"type": "address"
				},
				{
					"indexed": false,
					"internalType": "uint256",
					"name": "_finalSize",
					"type": "uint256"
				},
				{
					"indexed": false,
					"internalType": "address[]",
					"name": "_investors",
					"type": "address[]"
				}
			],
			"name": "LogIssueNewDeal",
			"type": "event"
		},
		{
			"anonymous": false,
			"inputs": [
				{
					"indexed": true,
					"internalType": "string",
					"name": "_ISIN",
					"type": "string"
				},
				{
					"indexed": false,
					"internalType": "address",
					"name": "_token",
					"type": "address"
				},
				{
					"indexed": false,
					"internalType": "address",
					"name": "_investorAddr",
					"type": "address"
				},
				{
					"indexed": false,
					"internalType": "uint256",
					"name": "_tokenAmount",
					"type": "uint256"
				}
			],
			"name": "LogTransferDealToken",
			"type": "event"
		},
		{
			"inputs": [],
			"name": "dealCount",
			"outputs": [
				{
					"internalType": "uint256",
					"name": "",
					"type": "uint256"
				}
			],
			"stateMutability": "view",
			"type": "function"
		},
		{
			"inputs": [],
			"name": "factory",
			"outputs": [
				{
					"internalType": "contract DealTokenFactory",
					"name": "",
					"type": "address"
				}
			],
			"stateMutability": "view",
			"type": "function"
		},
		{
			"inputs": [],
			"name": "issuerCount",
			"outputs": [
				{
					"internalType": "uint256",
					"name": "",
					"type": "uint256"
				}
			],
			"stateMutability": "view",
			"type": "function"
		},
		{
			"inputs": [],
			"name": "manager",
			"outputs": [
				{
					"internalType": "contract DealTokenManager",
					"name": "",
					"type": "address"
				}
			],
			"stateMutability": "view",
			"type": "function"
		},
		{
			"inputs": [],
			"name": "tokenCount",
			"outputs": [
				{
					"internalType": "uint256",
					"name": "",
					"type": "uint256"
				}
			],
			"stateMutability": "view",
			"type": "function"
		},
		{
			"inputs": [],
			"name": "totalInvestorCount",
			"outputs": [
				{
					"internalType": "uint256",
					"name": "",
					"type": "uint256"
				}
			],
			"stateMutability": "view",
			"type": "function"
		},
		{
			"inputs": [
				{
					"internalType": "address",
					"name": "",
					"type": "address"
				},
				{
					"internalType": "uint256",
					"name": "",
					"type": "uint256"
				}
			],
			"name": "tracker_0x_addresses",
			"outputs": [
				{
					"internalType": "address",
					"name": "",
					"type": "address"
				}
			],
			"stateMutability": "view",
			"type": "function"
		},
		{
			"stateMutability": "payable",
			"type": "receive"
		},
		{
			"inputs": [
				{
					"internalType": "string",
					"name": "_name",
					"type": "string"
				},
				{
					"internalType": "string",
					"name": "_creditRating",
					"type": "string"
				}
			],
			"name": "createIssuer",
			"outputs": [],
			"stateMutability": "nonpayable",
			"type": "function"
		},
		{
			"inputs": [
				{
					"internalType": "address",
					"name": "_addr",
					"type": "address"
				},
				{
					"internalType": "string",
					"name": "_newName",
					"type": "string"
				},
				{
					"internalType": "string",
					"name": "_newCreditRating",
					"type": "string"
				}
			],
			"name": "editIssuerMetaData",
			"outputs": [],
			"stateMutability": "nonpayable",
			"type": "function"
		},
		{
			"inputs": [
				{
					"internalType": "address",
					"name": "_addr",
					"type": "address"
				}
			],
			"name": "getAllIssuerDetailsByAddr",
			"outputs": [
				{
					"internalType": "string",
					"name": "name",
					"type": "string"
				},
				{
					"internalType": "string",
					"name": "creditRating",
					"type": "string"
				},
				{
					"internalType": "string[]",
					"name": "dealsIssued",
					"type": "string[]"
				},
				{
					"internalType": "uint256",
					"name": "totalIssuedAmount",
					"type": "uint256"
				},
				{
					"internalType": "uint256",
					"name": "totalEscrowFundLockedIn",
					"type": "uint256"
				},
				{
					"internalType": "uint256",
					"name": "totalAvailBalance",
					"type": "uint256"
				}
			],
			"stateMutability": "view",
			"type": "function"
		},
		{
			"inputs": [
				{
					"internalType": "string",
					"name": "_ISIN",
					"type": "string"
				}
			],
			"name": "getIssuerMetaDataByISIN",
			"outputs": [
				{
					"internalType": "string",
					"name": "issuerName",
					"type": "string"
				},
				{
					"internalType": "string",
					"name": "creditRating",
					"type": "string"
				}
			],
			"stateMutability": "view",
			"type": "function"
		},
		{
			"inputs": [
				{
					"internalType": "address",
					"name": "_addr",
					"type": "address"
				}
			],
			"name": "getAllInvestorDetails",
			"outputs": [
				{
					"internalType": "string[]",
					"name": "dealsBidded",
					"type": "string[]"
				},
				{
					"internalType": "uint256",
					"name": "totalBalance",
					"type": "uint256"
				},
				{
					"internalType": "uint256",
					"name": "totalLockedInBid",
					"type": "uint256"
				},
				{
					"internalType": "uint256",
					"name": "availBalance",
					"type": "uint256"
				}
			],
			"stateMutability": "view",
			"type": "function"
		},
		{
			"inputs": [
				{
					"internalType": "string",
					"name": "_ISIN",
					"type": "string"
				}
			],
			"name": "getIssuanceStateNameRateDatesDetailsByISIN",
			"outputs": [
				{
					"internalType": "enum State",
					"name": "state",
					"type": "uint8"
				},
				{
					"internalType": "string",
					"name": "dealName",
					"type": "string"
				},
				{
					"internalType": "uint256",
					"name": "offerStartTime",
					"type": "uint256"
				},
				{
					"internalType": "uint256",
					"name": "offerCloseTime",
					"type": "uint256"
				},
				{
					"internalType": "uint256",
					"name": "term",
					"type": "uint256"
				},
				{
					"internalType": "uint256",
					"name": "interestRate",
					"type": "uint256"
				},
				{
					"internalType": "uint256[]",
					"name": "interestPaymentDates",
					"type": "uint256[]"
				}
			],
			"stateMutability": "view",
			"type": "function"
		},
		{
			"inputs": [
				{
					"internalType": "string",
					"name": "_ISIN",
					"type": "string"
				}
			],
			"name": "getIssuanceSizePriceTotalBidDetailsByISIN",
			"outputs": [
				{
					"internalType": "uint256",
					"name": "initSize",
					"type": "uint256"
				},
				{
					"internalType": "uint256",
					"name": "minSize",
					"type": "uint256"
				},
				{
					"internalType": "uint256",
					"name": "faceValue",
					"type": "uint256"
				},
				{
					"internalType": "uint256",
					"name": "offerPrice",
					"type": "uint256"
				},
				{
					"internalType": "uint256",
					"name": "upfrontFee",
					"type": "uint256"
				},
				{
					"internalType": "uint256",
					"name": "escrowRatio",
					"type": "uint256"
				},
				{
					"internalType": "uint256",
					"name": "totalInvestorBid",
					"type": "uint256"
				}
			],
			"stateMutability": "view",
			"type": "function"
		},
		{
			"inputs": [
				{
					"internalType": "string",
					"name": "_ISIN",
					"type": "string"
				},
				{
					"internalType": "string",
					"name": "_newDealName",
					"type": "string"
				},
				{
					"internalType": "uint256",
					"name": "_newInitSize",
					"type": "uint256"
				},
				{
					"internalType": "uint256",
					"name": "_newMinSize",
					"type": "uint256"
				},
				{
					"internalType": "uint256",
					"name": "_newOfferPrice",
					"type": "uint256"
				},
				{
					"internalType": "uint256",
					"name": "_newOfferCloseTime",
					"type": "uint256"
				},
				{
					"internalType": "uint256",
					"name": "_newTerm",
					"type": "uint256"
				},
				{
					"internalType": "uint256",
					"name": "_newInterestRate",
					"type": "uint256"
				},
				{
					"internalType": "uint256[]",
					"name": "_newInterestPaymentDates",
					"type": "uint256[]"
				},
				{
					"internalType": "uint256",
					"name": "_newUpfrontFee",
					"type": "uint256"
				},
				{
					"internalType": "uint256",
					"name": "_newEscrowRatio",
					"type": "uint256"
				}
			],
			"name": "editDealIssuance",
			"outputs": [],
			"stateMutability": "nonpayable",
			"type": "function"
		},
		{
			"inputs": [
				{
					"internalType": "string",
					"name": "_ISIN",
					"type": "string"
				},
				{
					"internalType": "string",
					"name": "_name",
					"type": "string"
				}
			],
			"name": "createTokenMetaData",
			"outputs": [],
			"stateMutability": "nonpayable",
			"type": "function"
		},
		{
			"inputs": [
				{
					"internalType": "string",
					"name": "_ISIN",
					"type": "string"
				}
			],
			"name": "getTokenDetails",
			"outputs": [
				{
					"internalType": "string",
					"name": "tokenName",
					"type": "string"
				},
				{
					"internalType": "string",
					"name": "symbol",
					"type": "string"
				},
				{
					"internalType": "uint256",
					"name": "totalSupply",
					"type": "uint256"
				}
			],
			"stateMutability": "view",
			"type": "function"
		},
		{
			"inputs": [
				{
					"internalType": "string",
					"name": "_ISIN",
					"type": "string"
				},
				{
					"internalType": "string",
					"name": "_newName",
					"type": "string"
				}
			],
			"name": "editTokenMetaData",
			"outputs": [],
			"stateMutability": "nonpayable",
			"type": "function"
		},
		{
			"inputs": [
				{
					"internalType": "string",
					"name": "_ISIN",
					"type": "string"
				},
				{
					"internalType": "string",
					"name": "_dealName",
					"type": "string"
				},
				{
					"internalType": "uint256",
					"name": "_initSize",
					"type": "uint256"
				},
				{
					"internalType": "uint256",
					"name": "_minSize",
					"type": "uint256"
				},
				{
					"internalType": "uint256",
					"name": "_faceValue",
					"type": "uint256"
				},
				{
					"internalType": "uint256",
					"name": "_offerPrice",
					"type": "uint256"
				},
				{
					"internalType": "uint256",
					"name": "_offerCloseTime",
					"type": "uint256"
				},
				{
					"internalType": "uint256",
					"name": "_term",
					"type": "uint256"
				},
				{
					"internalType": "uint256",
					"name": "_interestRate",
					"type": "uint256"
				},
				{
					"internalType": "uint256[]",
					"name": "_interestPaymentDates",
					"type": "uint256[]"
				},
				{
					"internalType": "uint256",
					"name": "_upfrontFee",
					"type": "uint256"
				}
			],
			"name": "createDealIssuance",
			"outputs": [],
			"stateMutability": "nonpayable",
			"type": "function"
		},
		{
			"inputs": [
				{
					"internalType": "string",
					"name": "_ISIN",
					"type": "string"
				}
			],
			"name": "closeDealOffering",
			"outputs": [
				{
					"internalType": "bool",
					"name": "",
					"type": "bool"
				}
			],
			"stateMutability": "nonpayable",
			"type": "function"
		},
		{
			"inputs": [
				{
					"internalType": "contract IERC20",
					"name": "_stableCoin",
					"type": "address"
				},
				{
					"internalType": "uint256",
					"name": "_amount",
					"type": "uint256"
				}
			],
			"name": "investorMakeDeposit",
			"outputs": [],
			"stateMutability": "nonpayable",
			"type": "function"
		},
		{
			"inputs": [
				{
					"internalType": "string",
					"name": "_ISIN",
					"type": "string"
				},
				{
					"internalType": "uint256",
					"name": "_bidAmount",
					"type": "uint256"
				}
			],
			"name": "investorMakeBid",
			"outputs": [],
			"stateMutability": "nonpayable",
			"type": "function"
		},
		{
			"inputs": [
				{
					"internalType": "string",
					"name": "_ISIN",
					"type": "string"
				},
				{
					"internalType": "address",
					"name": "_addr",
					"type": "address"
				}
			],
			"name": "getBidDetails",
			"outputs": [],
			"stateMutability": "nonpayable",
			"type": "function"
		},
		{
			"inputs": [
				{
					"internalType": "string",
					"name": "_ISIN",
					"type": "string"
				},
				{
					"internalType": "address",
					"name": "_addr",
					"type": "address"
				}
			],
			"name": "investorEditBid",
			"outputs": [],
			"stateMutability": "nonpayable",
			"type": "function"
		},
		{
			"inputs": [
				{
					"internalType": "string",
					"name": "_ISIN",
					"type": "string"
				},
				{
					"internalType": "address",
					"name": "_addr",
					"type": "address"
				}
			],
			"name": "investorCancelBid",
			"outputs": [],
			"stateMutability": "nonpayable",
			"type": "function"
		},
		{
			"inputs": [
				{
					"internalType": "address",
					"name": "_addr",
					"type": "address"
				},
				{
					"internalType": "uint256",
					"name": "_amount",
					"type": "uint256"
				}
			],
			"name": "investorWithdraw",
			"outputs": [],
			"stateMutability": "nonpayable",
			"type": "function"
		}
	],
	"bytecode": "0x60806040523480156200001157600080fd5b50600080546001600160a01b031916331790556113886002908155600380556004556040516200004190620000d1565b604051809103906000f0801580156200005e573d6000803e3d6000fd5b50600b80546001600160a01b0319166001600160a01b03929092169190911790556040516200008d90620000df565b604051809103906000f080158015620000aa573d6000803e3d6000fd5b50600c80546001600160a01b0319166001600160a01b0392909216919091179055620000ed565b6111e3806200378783390190565b61054b806200496a83390190565b61368a80620000fd6000396000f3fe6080604052600436106101855760003560e01c8063981c30d0116100d1578063c4247d621161008a578063d0abed1511610064578063d0abed1514610495578063eadb3c9c146104b5578063f02c996d1461020a578063f3f15790146104ca576101a3565b8063c4247d6214610431578063c45a015514610451578063cacbdd7814610466576101a3565b8063981c30d01461035857806399734468146103885780639f181b5e146103b5578063ab617b84146103ca578063b4d7b98b146103ea578063be8fdb67146103ff576101a3565b806367e932d01161013e5780637797e2d5116101185780637797e2d5146102c3578063893c6a4d146102f6578063899b8f37146103165780638a57616e14610338576101a3565b806367e932d01461020a57806371fb7cd314610283578063774fe422146102a3576101a3565b80630be99a5b146101a85780630e070446146101ca57806316dded9f146101ea5780633f28ff6b1461020a578063442c154b14610225578063481c6a7514610261576101a3565b366101a357346001600082825461019c919061340c565b9091555050005b600080fd5b3480156101b457600080fd5b506101c86101c33660046126e3565b6104f8565b005b3480156101d657600080fd5b506101c86101e5366004612756565b6105d1565b3480156101f657600080fd5b506101c8610205366004612a3b565b6105d5565b34801561021657600080fd5b506101c86101e53660046127dc565b34801561023157600080fd5b506102456102403660046127a1565b610771565b60405161025897969594939291906133b2565b60405180910390f35b34801561026d57600080fd5b506102766107d7565b6040516102589190612b53565b34801561028f57600080fd5b5061027661029e366004612756565b6107e6565b3480156102af57600080fd5b506101c86102be366004612964565b61081e565b3480156102cf57600080fd5b506102e36102de3660046127a1565b610a19565b6040516102589796959493929190612c5b565b34801561030257600080fd5b506101c861031136600461282c565b610b6d565b34801561032257600080fd5b5061032b610c2c565b60405161025891906133a9565b34801561034457600080fd5b506101c861035336600461282c565b610c32565b34801561036457600080fd5b506103786103733660046126ab565b610d51565b6040516102589493929190612c21565b34801561039457600080fd5b506103a86103a33660046127a1565b610e8c565b6040516102589190612c50565b3480156103c157600080fd5b5061032b611240565b3480156103d657600080fd5b506101c86103e536600461282c565b611246565b3480156103f657600080fd5b5061032b6113a8565b34801561040b57600080fd5b5061041f61041a3660046126ab565b6113ae565b60405161025896959493929190612d09565b34801561043d57600080fd5b506101c861044c36600461288d565b611623565b34801561045d57600080fd5b506102766117a1565b34801561047257600080fd5b506104866104813660046127a1565b6117b0565b60405161025893929190612d61565b3480156104a157600080fd5b506101c86104b0366004612756565b611941565b3480156104c157600080fd5b5061032b611a21565b3480156104d657600080fd5b506104ea6104e53660046127a1565b611a27565b604051610258929190612cdb565b336001600160a01b038416146105295760405162461bcd60e51b815260040161052090612e73565b60405180910390fd5b6001600160a01b03831660009081526008602090815260409091208351610558926001909201918501906124eb565b506001600160a01b03831660009081526008602090815260409091208251610588926002909201918401906124eb565b50826001600160a01b03167f0272388911394c5083027cf52be75a9d13ba38a2b7a331a399bf8fee7b9fc29983836040516105c4929190612cdb565b60405180910390a2505050565b5050565b60006006836040516105e79190612b37565b9081526040805160209281900383019020336000908152600a8452828120601c8301909452919091205490925060ff16156106345760405162461bcd60e51b815260040161052090612ec5565b6016820154610100900460ff1661065d5760405162461bcd60e51b8152600401610520906131e4565b80600301548311156106815760405162461bcd60e51b815260040161052090612f6a565b61068f82601b015484611bed565b601b830155600281018054600181018255600091825260209182902086516106bf939190920191908701906124eb565b506106ce816004015484611bed565b6004820181905560038201546106e391611c00565b6005820155604051839060088301906106fd908790612b37565b90815260405190819003602090810190912091909155601983018054600181018255600091825291812090910180546001600160a01b03191633179055601a830180549161074a836135f5565b9091555050336000908152601c9092016020525060409020805460ff191660011790555050565b60008060008060008060008060068960405161078d9190612b37565b9081526040519081900360200190206002810154600382015460048301546005840154600d850154600e860154601b90960154949f939e50919c509a509850919650945092505050565b600c546001600160a01b031681565b600e602052816000526040600020818154811061080257600080fd5b6000918252602090912001546001600160a01b03169150829050565b600060068c6040516108309190612b37565b908152602001604051809103902090508073__DealSet_______________________________6365a52efb90918e6040518363ffffffff1660e01b815260040161087b929190613379565b60206040518083038186803b15801561089357600080fd5b505af41580156108a7573d6000803e3d6000fd5b505050506040513d601f19601f820116820180604052508101906108cb9190612781565b6108d457600080fd5b6018810180546001600160a01b031916331790558b516108fa90829060208f01906124eb565b508a5161091090600183019060208e01906124eb565b50600281018a90556003810189905560048101889055600581018790554260068201556007810186905560098101859055600b8101849055825161095d90600c830190602086019061256f565b50600d8101829055611388600e820155601681018054600160ff199091161761ff00191661010017905560058054906000610997836135f5565b91905055508b6040516109aa9190612b37565b6040518091039020336001600160a01b03167ff4ff7e1fcb22d6f38926a942322a8f0987d86cdbfed9991556932ad24c1d2e6f8d8d8d8d8d88600601548e8e8e8e8e604051610a039b9a99989796959493929190612dff565b60405180910390a3505050505050505050505050565b6000606060008060008060606000600689604051610a379190612b37565b908152602001604051809103902090508060160160009054906101000a900460ff168160010182600601548360070154846009015485600b015486600c01858054610a81906135ba565b80601f0160208091040260200160405190810160405280929190818152602001828054610aad906135ba565b8015610afa5780601f10610acf57610100808354040283529160200191610afa565b820191906000526020600020905b815481529060010190602001808311610add57829003601f168201915b5050505050955080805480602002602001604051908101604052809291908181526020018280548015610b4c57602002820191906000526020600020905b815481526020019060010190808311610b38575b50505050509050975097509750975097509750975050919395979092949650565b6000600683604051610b7f9190612b37565b908152604051908190036020019020601681015490915060ff61010090910416610bbb5760405162461bcd60e51b815260040161052090613129565b60188101546001600160a01b03163314610be75760405162461bcd60e51b8152600401610520906132c8565b6012810180546001600160a01b031916331790558151610c1090601383019060208501906124eb565b508251610c2690601483019060208601906124eb565b50505050565b60095481565b3360008181526008602052604090819020905163139caf9b60e31b8152909173__IssuerSet_____________________________91639ce57cd891610c7c91859190600401613392565b60206040518083038186803b158015610c9457600080fd5b505af4158015610ca8573d6000803e3d6000fd5b505050506040513d601f19601f82011682018060405250810190610ccc9190612781565b610cd557600080fd5b8251610cea90600183019060208601906124eb565b508151610d0090600283019060208501906124eb565b5060078054906000610d11836135f5565b9190505550336001600160a01b03167ff4699dcd1914bc5ca1197661355724f5280584f19f62f09de9169d8c238491c084846040516105c4929190612cdb565b606060008080336001600160a01b03861614610d7f5760405162461bcd60e51b815260040161052090612fb1565b6001600160a01b0385166000908152600a602090815260408083206003810154600482015460058301546002909301805485518188028101880190965280865290969295919492879284015b82821015610e77578382906000526020600020018054610dea906135ba565b80601f0160208091040260200160405190810160405280929190818152602001828054610e16906135ba565b8015610e635780601f10610e3857610100808354040283529160200191610e63565b820191906000526020600020905b815481529060010190602001808311610e4657829003601f168201915b505050505081526020019060010190610dcb565b50505050935093509350935093509193509193565b6000600682604051610e9e9190612b37565b90815260405190819003602001902060180154336001600160a01b0390911614610eda5760405162461bcd60e51b815260040161052090612f18565b600682604051610eea9190612b37565b9081526040519081900360200190206016015460ff61010090910416610f225760405162461bcd60e51b81526004016105209061306b565b6000600683604051610f349190612b37565b908152604080516020928190038301902060188101546001600160a01b031660009081526008909352908220601682018054600260ff199091161762ffff0019166201000017905590925090610f8985611c0c565b600f84015490915081610fac57610f9f86611cd6565b600094505050505061123b565b6018840154610fc59087906001600160a01b0316611d93565b6000610fec610fe283600354600a610fdd919061348a565b61214d565b86601b0154612159565b90506000805b601987015481101561118557600087601901828154811061102357634e487b7160e01b600052603260045260246000fd5b600091825260209091200154601b8901546001600160a01b039091169150851015611139576110ac61109985600a6000856001600160a01b03166001600160a01b031681526020019081526020016000206008018d6040516110859190612b37565b90815260200160405180910390205461214d565b6003546110a790600a61348a565b612159565b92506110ec88601001546110e76110d96110d38c600e0154600354600a6110a7919061348a565b8761214d565b6004546110a790600a61348a565b611bed565b60108901556001600160a01b0381166000908152600a602052604090819020905184916008019061111e908d90612b37565b908152604051908190036020019020556111398a8483612165565b6111448a82856121e2565b61114f8a82856121fb565b6001600160a01b0381166000908152600a60205260409020611172908b90612301565b508061117d816135f5565b915050610ff2565b506111976110998388601b015461214d565b601b87015560168601805460ff1916600317905560188601546111c49089906001600160a01b031661236d565b876040516111d29190612b37565b6040519081900381206018880154601189015491926001600160a01b03918216927f3a501409415dd291b939cebe93b113aee5e91c438a25906b164486b60da44c9c9261122892911690889060198d0190612bbe565b60405180910390a3600196505050505050505b919050565b600d5481565b6006826040516112569190612b37565b90815260405190819003602001902060180154336001600160a01b03909116146112925760405162461bcd60e51b81526004016105209061322d565b6006826040516112a29190612b37565b9081526040519081900360200190206016015460ff6201000090910416156112dc5760405162461bcd60e51b81526004016105209061331c565b806006836040516112ed9190612b37565b908152602001604051809103902060110160020190805190602001906113149291906124eb565b50816006836040516113269190612b37565b9081526020016040518091039020601101600301908051906020019061134d9291906124eb565b508160405161135c9190612b37565b6040518091039020336001600160a01b03167e0d84a8f0eae247c6652a16085de4f15e69b599cd7c4a5701004689fe2130d98360405161139c9190612cc8565b60405180910390a35050565b60075481565b6060808060008080336001600160a01b038816146113de5760405162461bcd60e51b81526004016105209061300e565b600060086000896001600160a01b03166001600160a01b03168152602001908152602001600020905080600101816002018260040183600501548460060154856007015485805461142e906135ba565b80601f016020809104026020016040519081016040528092919081815260200182805461145a906135ba565b80156114a75780601f1061147c576101008083540402835291602001916114a7565b820191906000526020600020905b81548152906001019060200180831161148a57829003601f168201915b505050505095508480546114ba906135ba565b80601f01602080910402602001604051908101604052809291908181526020018280546114e6906135ba565b80156115335780601f1061150857610100808354040283529160200191611533565b820191906000526020600020905b81548152906001019060200180831161151657829003601f168201915b5050505050945083805480602002602001604051908101604052809291908181526020016000905b8282101561160757838290600052602060002001805461157a906135ba565b80601f01602080910402602001604051908101604052809291908181526020018280546115a6906135ba565b80156115f35780601f106115c8576101008083540402835291602001916115f3565b820191906000526020600020905b8154815290600101906020018083116115d657829003601f168201915b50505050508152602001906001019061155b565b5050505093509650965096509650965096505091939550919395565b60068b6040516116339190612b37565b90815260405190819003602001902060180154336001600160a01b039091161461166f5760405162461bcd60e51b8152600401610520906130d8565b60068b60405161167f9190612b37565b9081526040519081900360200190206016015460ff610100909104166116b75760405162461bcd60e51b815260040161052090613176565b600060068c6040516116c99190612b37565b908152602001604051809103902090508a8160010190805190602001906116f19291906124eb565b50600281018a905560038101899055600581018890556007810187905560098101869055600b8101859055835161173190600c830190602087019061256f565b50600d8101839055600e810182905560405161174e908d90612b37565b6040518091039020336001600160a01b03167f61272cb938a7190c5d07c4c077e96b2aa898de24fae728fc9e60cad4cd2b41a98d8d8d8d8d8d8d8d8d8d604051610a039a99989796959493929190612d97565b600b546001600160a01b031681565b60608060006006846040516117c59190612b37565b908152604051908190036020018120601301906006906117e6908790612b37565b90815260405190819003602001812060140190600690611807908890612b37565b908152602001604051809103902060110160040154828054611828906135ba565b80601f0160208091040260200160405190810160405280929190818152602001828054611854906135ba565b80156118a15780601f10611876576101008083540402835291602001916118a1565b820191906000526020600020905b81548152906001019060200180831161188457829003601f168201915b505050505092508180546118b4906135ba565b80601f01602080910402602001604051908101604052809291908181526020018280546118e0906135ba565b801561192d5780601f106119025761010080835404028352916020019161192d565b820191906000526020600020905b81548152906001019060200180831161191057829003601f168201915b505050505091509250925092509193909250565b336000908152600a60205260409020600381015461195f9083611bed565b600382015560058101546119739083611bed565b600582015560405163053f99ab60e11b815273__InvestorSet___________________________90630a7f3356906119b19084903390600401613392565b60206040518083038186803b1580156119c957600080fd5b505af41580156119dd573d6000803e3d6000fd5b505050506040513d601f19601f82011682018060405250810190611a019190612781565b15611a1c5760098054906000611a16836135f5565b91905055505b505050565b60055481565b60608060086000600685604051611a3e9190612b37565b908152602001604051809103902060180160009054906101000a90046001600160a01b03166001600160a01b03166001600160a01b0316815260200190815260200160002060010160086000600686604051611a9a9190612b37565b9081526040805160209281900383019020601801546001600160a01b03168352908201929092520160002081546002909101908290611ad8906135ba565b80601f0160208091040260200160405190810160405280929190818152602001828054611b04906135ba565b8015611b515780601f10611b2657610100808354040283529160200191611b51565b820191906000526020600020905b815481529060010190602001808311611b3457829003601f168201915b50505050509150808054611b64906135ba565b80601f0160208091040260200160405190810160405280929190818152602001828054611b90906135ba565b8015611bdd5780601f10611bb257610100808354040283529160200191611bdd565b820191906000526020600020905b815481529060010190602001808311611bc057829003601f168201915b5050505050905091509150915091565b6000611bf983836124a5565b9392505050565b6000611bf983836124b1565b6000600682604051611c1e9190612b37565b908152602001604051809103902060030154600683604051611c409190612b37565b9081526020016040518091039020601b015410611cce57611ca3600683604051611c6a9190612b37565b9081526020016040518091039020601b0154600684604051611c8c9190612b37565b9081526020016040518091039020600201546124bd565b600683604051611cb39190612b37565b908152604051908190036020019020600f015550600161123b565b50600061123b565b6004600682604051611ce89190612b37565b908152604051908190036020019020601601805460ff19166001836005811115611d2257634e487b7160e01b600052602160045260246000fd5b021790555080604051611d359190612b37565b6040518091039020600682604051611d4d9190612b37565b908152604051908190036020018120601801546001600160a01b0316907ffe2249a80ab4eeb9174d0f1569207290a237b93ded52dc3317c975ef500785df90600090a350565b336001600160a01b03821614611dbb5760405162461bcd60e51b81526004016105209061327e565b6000600683604051611dcd9190612b37565b908152602001604051809103902090506000816011016002018054611df1906135ba565b80601f0160208091040260200160405190810160405280929190818152602001828054611e1d906135ba565b8015611e6a5780601f10611e3f57610100808354040283529160200191611e6a565b820191906000526020600020905b815481529060010190602001808311611e4d57829003601f168201915b505050505090506000826011016003018054611e85906135ba565b80601f0160208091040260200160405190810160405280929190818152602001828054611eb1906135ba565b8015611efe5780601f10611ed357610100808354040283529160200191611efe565b820191906000526020600020905b815481529060010190602001808311611ee157829003601f168201915b505050505090506000611f1984600f01548560040154612159565b60158501819055600b546040516305b0605360e41b81529192506000916001600160a01b0390911690635b06053090611f5a90879087908790600401612d61565b602060405180830381600087803b158015611f7457600080fd5b505af1158015611f88573d6000803e3d6000fd5b505050506040513d601f19601f82011682018060405250810190611fac91906126c7565b600c546040516366812dbb60e11b81529192506001600160a01b03169063cd025b7690611fdf9084903090600401612b67565b600060405180830381600087803b158015611ff957600080fd5b505af115801561200d573d6000803e3d6000fd5b5050600c54604051633950935160e01b81526001600160a01b038086169450633950935193506120439216908690600401612ba5565b602060405180830381600087803b15801561205d57600080fd5b505af1158015612071573d6000803e3d6000fd5b505050506040513d601f19601f820116820180604052508101906120959190612781565b506001600160a01b038681166000908152600e60209081526040822080546001810182559083529082200180546001600160a01b03191692841692909217909155600d8054916120e4836135f5565b9190505550866040516120f79190612b37565b6040518091039020866001600160a01b03167f3dc102eab4e6e04cf911b21e640a91bd3e499140bc03f03b3bd915b25f422d1186868660405161213c93929190612d61565b60405180910390a350505050505050565b6000611bf983836124d3565b6000611bf983836124df565b6001600160a01b0381166000908152600a60205260409020600381015461218c9084611c00565b81600301819055506121c2816004015482600801866040516121ae9190612b37565b908152602001604051809103902054611c00565b6004820181905560038201546121d791611c00565b600590910155505050565b60006006846040516121f49190612b37565b5250505050565b600060068460405161220d9190612b37565b908152604051908190036020019020601181015460048201549192506001600160a01b031690600090612241908590612159565b600c546040516317d5759960e31b81529192506001600160a01b03169063beabacc89061227690859089908690600401612b81565b600060405180830381600087803b15801561229057600080fd5b505af11580156122a4573d6000803e3d6000fd5b50505050856040516122b69190612b37565b60405180910390207f1d2a2fe83f0a58de42de6ff8e17afbfddb80e929534a7be01a75800c9837775c8387846040516122f193929190612b81565b60405180910390a2505050505050565b600181600601836040516123159190612b37565b908152604051908190036020018120805492151560ff19909316929092179091556001906007830190612349908590612b37565b908152604051908190036020019020805491151560ff199092169190911790555050565b600060068360405161237f9190612b37565b90815260408051602092819003830190206001600160a01b03851660009081526008845291822060048101805460018101825590845292849020875192955090936123d2939190910191908701906124eb565b506123e5816005015483600f0154611bed565b6005820155600681015460108301546123fe9190611bed565b60068201819055600582015461241391611c00565b6007820155600f8201546040516008830190612430908790612b37565b908152602001604051809103902081905550816010015481600901856040516124599190612b37565b908152604051908190036020019020556010820154600f83015461247d9190613577565b81600a018560405161248f9190612b37565b9081526040519081900360200190205550505050565b6000611bf9828461340c565b6000611bf98284613577565b60008183106124cc5781611bf9565b5090919050565b6000611bf98284613558565b6000611bf98284613424565b8280546124f7906135ba565b90600052602060002090601f016020900481019282612519576000855561255f565b82601f1061253257805160ff191683800117855561255f565b8280016001018555821561255f579182015b8281111561255f578251825591602001919060010190612544565b5061256b9291506125a9565b5090565b82805482825590600052602060002090810192821561255f579160200282018281111561255f578251825591602001919060010190612544565b5b8082111561256b57600081556001016125aa565b600082601f8301126125ce578081fd5b8135602067ffffffffffffffff8211156125ea576125ea613626565b8082026125f88282016133e2565b838152828101908684018388018501891015612612578687fd5b8693505b85841015612634578035835260019390930192918401918401612616565b50979650505050505050565b600082601f830112612650578081fd5b813567ffffffffffffffff81111561266a5761266a613626565b61267d601f8201601f19166020016133e2565b818152846020838601011115612691578283fd5b816020850160208301379081016020019190915292915050565b6000602082840312156126bc578081fd5b8135611bf98161363c565b6000602082840312156126d8578081fd5b8151611bf98161363c565b6000806000606084860312156126f7578182fd5b83356127028161363c565b9250602084013567ffffffffffffffff8082111561271e578384fd5b61272a87838801612640565b9350604086013591508082111561273f578283fd5b5061274c86828701612640565b9150509250925092565b60008060408385031215612768578182fd5b82356127738161363c565b946020939093013593505050565b600060208284031215612792578081fd5b81518015158114611bf9578182fd5b6000602082840312156127b2578081fd5b813567ffffffffffffffff8111156127c8578182fd5b6127d484828501612640565b949350505050565b600080604083850312156127ee578182fd5b823567ffffffffffffffff811115612804578283fd5b61281085828601612640565b92505060208301356128218161363c565b809150509250929050565b6000806040838503121561283e578182fd5b823567ffffffffffffffff80821115612855578384fd5b61286186838701612640565b93506020850135915080821115612876578283fd5b5061288385828601612640565b9150509250929050565b60008060008060008060008060008060006101608c8e0312156128ae578687fd5b67ffffffffffffffff808d3511156128c4578788fd5b6128d18e8e358f01612640565b9b508060208e013511156128e3578788fd5b6128f38e60208f01358f01612640565b9a5060408d0135995060608d0135985060808d0135975060a08d0135965060c08d0135955060e08d01359450806101008e01351115612930578384fd5b506129428d6101008e01358e016125be565b92506101208c013591506101408c013590509295989b509295989b9093969950565b60008060008060008060008060008060006101608c8e031215612985578081fd5b67ffffffffffffffff808d35111561299b578182fd5b6129a88e8e358f01612640565b9b508060208e013511156129ba578182fd5b6129ca8e60208f01358f01612640565b9a5060408d0135995060608d0135985060808d0135975060a08d0135965060c08d0135955060e08d013594506101008d01359350806101208e01351115612a0f578182fd5b50612a218d6101208e01358e016125be565b91506101408c013590509295989b509295989b9093969950565b60008060408385031215612a4d578182fd5b823567ffffffffffffffff811115612a63578283fd5b612a6f85828601612640565b95602094909401359450505050565b6000815180845260208085018081965082840281019150828601855b85811015612ac4578284038952612ab2848351612b0b565b98850198935090840190600101612a9a565b5091979650505050505050565b6000815180845260208085019450808401835b83811015612b0057815187529582019590820190600101612ae4565b509495945050505050565b60008151808452612b2381602086016020860161358e565b601f01601f19169290920160200192915050565b60008251612b4981846020870161358e565b9190910192915050565b6001600160a01b0391909116815260200190565b6001600160a01b0392831681529116602082015260400190565b6001600160a01b039384168152919092166020820152604081019190915260600190565b6001600160a01b03929092168252602082015260400190565b60006060820160018060a01b03808716845260208681860152606060408601528286548085526080870191508786528286209450855b81811015612c12578554851683526001958601959284019201612bf4565b50909998505050505050505050565b600060808252612c346080830187612a7e565b6020830195909552506040810192909252606090910152919050565b901515815260200190565b600060068910612c7957634e487b7160e01b81526021600452602481fd5b88825260e06020830152612c9060e0830189612b0b565b8760408401528660608401528560808401528460a084015282810360c0840152612cba8185612ad1565b9a9950505050505050505050565b600060208252611bf96020830184612b0b565b600060408252612cee6040830185612b0b565b8281036020840152612d008185612b0b565b95945050505050565b600060c08252612d1c60c0830189612b0b565b8281036020840152612d2e8189612b0b565b90508281036040840152612d428188612a7e565b60608401969096525050608081019290925260a0909101529392505050565b600060608252612d746060830186612b0b565b8281036020840152612d868186612b0b565b915050826040830152949350505050565b6000610140808352612dab8184018e612b0b565b90508b60208401528a60408401528960608401528860808401528760a08401528660c084015282810360e0840152612de38187612ad1565b6101008401959095525050610120015298975050505050505050565b6000610160808352612e138184018f612b0b565b90508c60208401528b60408401528a60608401528960808401528860a08401528760c08401528660e084015285610100840152828103610120840152612e598186612ad1565b915050826101408301529c9b505050505050505050505050565b60208082526032908201527f4445414c3a3a206564697449737375657244657461696c733a2043616c6c65726040820152711034b9902727aa103a34329034b9b9bab2b960711b606082015260800190565b60208082526033908201527f4445414c3a3a20696e766573746f724d616b654269643a20796f75206861766560408201527208185b1c9958591e481b585919481848189a59606a1b606082015260800190565b60208082526032908201527f4445414c3a3a20636c6f73654465616c4f66666572696e673a2043616c6c65726040820152711034b9902727aa103a34329034b9b9bab2b960711b606082015260800190565b60208082526027908201527f4445414c3a3a20696e766573746f724d616b654269643a20696e7375666669656040820152661b9d08199d5b9960ca1b606082015260800190565b60208082526038908201527f4445414c3a3a20676574416c6c496e766573746f7244657461696c733a20436160408201527f6c6c6572206973204e4f542074686520696e766573746f720000000000000000606082015260800190565b6020808252603a908201527f4445414c3a3a20676574416c6c49737375657244657461696c7342794164647260408201527f3a2043616c6c6572206973204e4f542074686520697373756572000000000000606082015260800190565b60208082526047908201527f4445414c3a3a20636c6f73654465616c4f66666572696e673a204f666665722060408201527f63616e6e6f7420626520636c6f7365642062656361757365206974206973204e6060820152664f54206c69766560c81b608082015260a00190565b60208082526031908201527f4445414c3a3a20656469744465616c49737375616e63653a2043616c6c65722060408201527034b9902727aa103a34329034b9b9bab2b960791b606082015260800190565b6020808252602d908201527f4445414c3a3a20637265617465546f6b656e4d657461446174613a204f66666560408201526c72206973206e6f74206c69766560981b606082015260800190565b60208082526048908201527f4445414c3a3a20656469744465616c49737375616e63653a20596f752063616e60408201527f6e6f74206564697420616e2069737375616e6365207768656e206974206973206060820152674e4f54206c69766560c01b608082015260a00190565b60208082526029908201527f4445414c3a3a20696e766573746f724d616b654269643a206f66666572206973604082015268204e4f54206c69766560b81b606082015260800190565b60208082526031908201527f4445414c3a3a2065646974546f6b656e44657461696c733a2043616c6c65722060408201527034b9902727aa103a34329034b9b9bab2b960791b606082015260800190565b6020808252602a908201527f4445414c3a3a206d696e74546f6b656e3a2043616c6c6572206973204e4f54206040820152693a34329034b9b9bab2b960b11b606082015260800190565b60208082526034908201527f4445414c3a3a20637265617465546f6b656e4d657461446174613a2043616c6c60408201527332b91034b9902727aa103a34329034b9b9bab2b960611b606082015260800190565b60208082526039908201527f4445414c3a3a2065646974546f6b656e4d657461446174613a204f666665722060408201527f706572696f6420697320616c726561647920636c6f7365642000000000000000606082015260800190565b6000838252604060208301526127d46040830184612b0b565b9182526001600160a01b0316602082015260400190565b90815260200190565b968752602087019590955260408601939093526060850191909152608084015260a083015260c082015260e00190565b60405181810167ffffffffffffffff8111828210171561340457613404613626565b604052919050565b6000821982111561341f5761341f613610565b500190565b60008261343f57634e487b7160e01b81526012600452602481fd5b500490565b80825b60018086116134565750613481565b81870482111561346857613468613610565b8086161561347557918102915b9490941c938002613447565b94509492505050565b6000611bf960001984846000826134a357506001611bf9565b816134b057506000611bf9565b81600181146134c657600281146134d0576134fd565b6001915050611bf9565b60ff8411156134e1576134e1613610565b6001841b9150848211156134f7576134f7613610565b50611bf9565b5060208310610133831016604e8410600b8410161715613530575081810a8381111561352b5761352b613610565b611bf9565b61353d8484846001613444565b80860482111561354f5761354f613610565b02949350505050565b600081600019048311821515161561357257613572613610565b500290565b60008282101561358957613589613610565b500390565b60005b838110156135a9578181015183820152602001613591565b83811115610c265750506000910152565b6002810460018216806135ce57607f821691505b602082108114156135ef57634e487b7160e01b600052602260045260246000fd5b50919050565b600060001982141561360957613609613610565b5060010190565b634e487b7160e01b600052601160045260246000fd5b634e487b7160e01b600052604160045260246000fd5b6001600160a01b038116811461365157600080fd5b5056fea26469706673582212208b9df7060d0aba688ac8ffce70cb7363533fb8a468b57ef1bbc8c72384a8f5dc64736f6c63430008000033608060405234801561001057600080fd5b506111c3806100206000396000f3fe608060405234801561001057600080fd5b506004361061004c5760003560e01c80634dba6bce146100515780635b0605301461007a5780635fbe4d1d1461008d5780639f181b5e14610095575b600080fd5b61006461005f366004610233565b6100aa565b604051610071919061031e565b60405180910390f35b610064610088366004610269565b6100e2565b610064610190565b61009d61019f565b604051610071919061037a565b600260205281600052604060002081815481106100c657600080fd5b6000918252602090912001546001600160a01b03169150829050565b600080338585856040516100f5906101a5565b6101029493929190610332565b604051809103906000f08015801561011e573d6000803e3d6000fd5b50600180546001600160a01b038084166001600160a01b031992831617808455336000908152600260209081526040822080549687018155825281209094018054909316911617905580549192508061017683610383565b90915550506001546001600160a01b031695945050505050565b6001546001600160a01b031681565b60005481565b610dcd806103c183390190565b600082601f8301126101c2578081fd5b813567ffffffffffffffff808211156101dd576101dd6103aa565b604051601f8301601f191681016020018281118282101715610201576102016103aa565b604052828152848301602001861015610218578384fd5b82602086016020830137918201602001929092529392505050565b60008060408385031215610245578182fd5b82356001600160a01b038116811461025b578283fd5b946020939093013593505050565b60008060006060848603121561027d578081fd5b833567ffffffffffffffff80821115610294578283fd5b6102a0878388016101b2565b945060208601359150808211156102b5578283fd5b506102c2868287016101b2565b925050604084013590509250925092565b60008151808452815b818110156102f8576020818501810151868301820152016102dc565b818111156103095782602083870101525b50601f01601f19169290920160200192915050565b6001600160a01b0391909116815260200190565b6001600160a01b0385168152608060208201819052600090610356908301866102d3565b828103604084015261036881866102d3565b91505082606083015295945050505050565b90815260200190565b60006000198214156103a357634e487b7160e01b81526011600452602481fd5b5060010190565b634e487b7160e01b600052604160045260246000fdfe60806040523480156200001157600080fd5b5060405162000dcd38038062000dcd8339810160408190526200003491620002ba565b8251839083906200004d90600390602085019062000169565b5080516200006390600490602084019062000169565b5050506200007884826200008260201b60201c565b5050505062000400565b6001600160a01b038216620000b45760405162461bcd60e51b8152600401620000ab9062000348565b60405180910390fd5b620000c26000838362000164565b8060026000828254620000d6919062000388565b90915550506001600160a01b038216600090815260208190526040812080548392906200010590849062000388565b90915550506040516001600160a01b038316906000907fddf252ad1be2c89b69c2b068fc378daa952ba7f163c4a11628f55a4df523b3ef906200014a9085906200037f565b60405180910390a3620001606000838362000164565b5050565b505050565b8280546200017790620003ad565b90600052602060002090601f0160209004810192826200019b5760008555620001e6565b82601f10620001b657805160ff1916838001178555620001e6565b82800160010185558215620001e6579182015b82811115620001e6578251825591602001919060010190620001c9565b50620001f4929150620001f8565b5090565b5b80821115620001f45760008155600101620001f9565b600082601f83011262000220578081fd5b81516001600160401b03808211156200023d576200023d620003ea565b6040516020601f8401601f1916820181018381118382101715620002655762000265620003ea565b60405283825285840181018710156200027c578485fd5b8492505b838310156200029f578583018101518284018201529182019162000280565b83831115620002b057848185840101525b5095945050505050565b60008060008060808587031215620002d0578384fd5b84516001600160a01b0381168114620002e7578485fd5b60208601519094506001600160401b038082111562000304578485fd5b62000312888389016200020f565b9450604087015191508082111562000328578384fd5b5062000337878288016200020f565b606096909601519497939650505050565b6020808252601f908201527f45524332303a206d696e7420746f20746865207a65726f206164647265737300604082015260600190565b90815260200190565b60008219821115620003a857634e487b7160e01b81526011600452602481fd5b500190565b600281046001821680620003c257607f821691505b60208210811415620003e457634e487b7160e01b600052602260045260246000fd5b50919050565b634e487b7160e01b600052604160045260246000fd5b6109bd80620004106000396000f3fe608060405234801561001057600080fd5b50600436106100a95760003560e01c80633950935111610071578063395093511461012957806370a082311461013c57806395d89b411461014f578063a457c2d714610157578063a9059cbb1461016a578063dd62ed3e1461017d576100a9565b806306fdde03146100ae578063095ea7b3146100cc57806318160ddd146100ec57806323b872dd14610101578063313ce56714610114575b600080fd5b6100b6610190565b6040516100c391906106dd565b60405180910390f35b6100df6100da3660046106a9565b610222565b6040516100c391906106d2565b6100f461023f565b6040516100c39190610911565b6100df61010f36600461066e565b610245565b61011c6102de565b6040516100c3919061091a565b6100df6101373660046106a9565b6102e3565b6100f461014a36600461061b565b610337565b6100b6610356565b6100df6101653660046106a9565b610365565b6100df6101783660046106a9565b6103de565b6100f461018b36600461063c565b6103f2565b60606003805461019f9061094c565b80601f01602080910402602001604051908101604052809291908181526020018280546101cb9061094c565b80156102185780601f106101ed57610100808354040283529160200191610218565b820191906000526020600020905b8154815290600101906020018083116101fb57829003601f168201915b5050505050905090565b600061023661022f61041d565b8484610421565b50600192915050565b60025490565b60006102528484846104d5565b6001600160a01b03841660009081526001602052604081208161027361041d565b6001600160a01b03166001600160a01b03168152602001908152602001600020549050828110156102bf5760405162461bcd60e51b81526004016102b6906107fb565b60405180910390fd5b6102d3856102cb61041d565b858403610421565b506001949350505050565b601290565b60006102366102f061041d565b8484600160006102fe61041d565b6001600160a01b03908116825260208083019390935260409182016000908120918b16815292529020546103329190610928565b610421565b6001600160a01b0381166000908152602081905260409020545b919050565b60606004805461019f9061094c565b6000806001600061037461041d565b6001600160a01b03908116825260208083019390935260409182016000908120918816815292529020549050828110156103c05760405162461bcd60e51b81526004016102b6906108cc565b6103d46103cb61041d565b85858403610421565b5060019392505050565b60006102366103eb61041d565b84846104d5565b6001600160a01b03918216600090815260016020908152604080832093909416825291909152205490565b3390565b6001600160a01b0383166104475760405162461bcd60e51b81526004016102b690610888565b6001600160a01b03821661046d5760405162461bcd60e51b81526004016102b690610773565b6001600160a01b0380841660008181526001602090815260408083209487168084529490915290819020849055517f8c5be1e5ebec7d5bd14f71427d1e84f3dd0314c0f7b2291e5b200ac8c7c3b925906104c8908590610911565b60405180910390a3505050565b6001600160a01b0383166104fb5760405162461bcd60e51b81526004016102b690610843565b6001600160a01b0382166105215760405162461bcd60e51b81526004016102b690610730565b61052c8383836105ff565b6001600160a01b038316600090815260208190526040902054818110156105655760405162461bcd60e51b81526004016102b6906107b5565b6001600160a01b0380851660009081526020819052604080822085850390559185168152908120805484929061059c908490610928565b92505081905550826001600160a01b0316846001600160a01b03167fddf252ad1be2c89b69c2b068fc378daa952ba7f163c4a11628f55a4df523b3ef846040516105e69190610911565b60405180910390a36105f98484846105ff565b50505050565b505050565b80356001600160a01b038116811461035157600080fd5b60006020828403121561062c578081fd5b61063582610604565b9392505050565b6000806040838503121561064e578081fd5b61065783610604565b915061066560208401610604565b90509250929050565b600080600060608486031215610682578081fd5b61068b84610604565b925061069960208501610604565b9150604084013590509250925092565b600080604083850312156106bb578182fd5b6106c483610604565b946020939093013593505050565b901515815260200190565b6000602080835283518082850152825b81811015610709578581018301518582016040015282016106ed565b8181111561071a5783604083870101525b50601f01601f1916929092016040019392505050565b60208082526023908201527f45524332303a207472616e7366657220746f20746865207a65726f206164647260408201526265737360e81b606082015260800190565b60208082526022908201527f45524332303a20617070726f766520746f20746865207a65726f206164647265604082015261737360f01b606082015260800190565b60208082526026908201527f45524332303a207472616e7366657220616d6f756e7420657863656564732062604082015265616c616e636560d01b606082015260800190565b60208082526028908201527f45524332303a207472616e7366657220616d6f756e74206578636565647320616040820152676c6c6f77616e636560c01b606082015260800190565b60208082526025908201527f45524332303a207472616e736665722066726f6d20746865207a65726f206164604082015264647265737360d81b606082015260800190565b60208082526024908201527f45524332303a20617070726f76652066726f6d20746865207a65726f206164646040820152637265737360e01b606082015260800190565b60208082526025908201527f45524332303a2064656372656173656420616c6c6f77616e63652062656c6f77604082015264207a65726f60d81b606082015260800190565b90815260200190565b60ff91909116815260200190565b6000821982111561094757634e487b7160e01b81526011600452602481fd5b500190565b60028104600182168061096057607f821691505b6020821081141561098157634e487b7160e01b600052602260045260246000fd5b5091905056fea26469706673582212204dea2207fe4b539f920c1649ed298b08169d4f18a13727ae7d30736313e60a7664736f6c63430008000033a26469706673582212209ae1c6234faad17775783dfdb71c56cd34c7e3875195350cd57118c1bd14a18364736f6c63430008000033608060405234801561001057600080fd5b5061052b806100206000396000f3fe608060405234801561001057600080fd5b506004361061004c5760003560e01c8063ad79e94b14610051578063beabacc81461007a578063cd025b761461008f578063cf489aa8146100a2575b600080fd5b61006461005f3660046102af565b6100c2565b6040516100719190610416565b60405180910390f35b61008d610088366004610302565b6100dd565b005b61008d61009d3660046102d0565b610245565b6100b56100b036600461035d565b610273565b6040516100719190610468565b6000602081905290815260409020546001600160a01b031681565b6001600160a01b0383811660009081526020819052604090205416331461011f5760405162461bcd60e51b8152600401610116906104b7565b60405180910390fd5b604051636eb1769f60e11b815281906001600160a01b0385169063dd62ed3e9061014f903390309060040161042a565b60206040518083038186803b15801561016757600080fd5b505afa15801561017b573d6000803e3d6000fd5b505050506040513d601f19601f8201168201806040525081019061019f91906103fe565b10156101bd5760405162461bcd60e51b815260040161011690610473565b6040516323b872dd60e01b81526001600160a01b038416906323b872dd906101ed90339086908690600401610444565b602060405180830381600087803b15801561020757600080fd5b505af115801561021b573d6000803e3d6000fd5b505050506040513d601f19601f8201168201806040525081019061023f919061033d565b50505050565b6001600160a01b03918216600090815260208190526040902080546001600160a01b03191691909216179055565b805160208183018101805160018252928201919093012091525460ff1681565b80356001600160a01b03811681146102aa57600080fd5b919050565b6000602082840312156102c0578081fd5b6102c982610293565b9392505050565b600080604083850312156102e2578081fd5b6102eb83610293565b91506102f960208401610293565b90509250929050565b600080600060608486031215610316578081fd5b61031f84610293565b925061032d60208501610293565b9150604084013590509250925092565b60006020828403121561034e578081fd5b815180151581146102c9578182fd5b6000602080838503121561036f578182fd5b823567ffffffffffffffff80821115610386578384fd5b818501915085601f830112610399578384fd5b8135818111156103ab576103ab6104df565b604051601f8201601f19168101850183811182821017156103ce576103ce6104df565b60405281815283820185018810156103e4578586fd5b818585018683013790810190930193909352509392505050565b60006020828403121561040f578081fd5b5051919050565b6001600160a01b0391909116815260200190565b6001600160a01b0392831681529116602082015260400190565b6001600160a01b039384168152919092166020820152604081019190915260600190565b901515815260200190565b60208082526024908201527f4e6f7420656e6f75676820616c6c6f77616e636520666f722074686973207365604082015263373232b960e11b606082015260800190565b6020808252600e908201526d139bdd08185d5d1a1bdc9a5e995960921b604082015260600190565b634e487b7160e01b600052604160045260246000fdfea26469706673582212208ab4e4461c036b4c20cb24667d0d989fb542b55785a07c12de33d9433b9f2c3464736f6c63430008000033",
	"immutableReferences": {},
	"source": "//SPDX-License-Identifier: GPL-3.0\n\npragma solidity ^0.8.0;\n\n//import \"https://github.com/OpenZeppelin/openzeppelin-contracts/blob/master/contracts/security/Pausable.sol\";\n//import \"https://github.com/OpenZeppelin/openzeppelin-contracts/blob/master/contracts/security/ReentrancyGuard.sol\";\nimport \"@openzeppelin/contracts/utils/math/SafeMath.sol\";\nimport \"@openzeppelin/contracts/utils/math/Math.sol\";\n//import \"https://github.com/OpenZeppelin/openzeppelin-contracts/blob/master/contracts/access/Ownable.sol\";\nimport \"@openzeppelin/contracts/token/ERC20/utils/SafeERC20.sol\";\n\nimport \"./DealToken.sol\";\nimport \"./DealTokenFactory.sol\";\nimport \"./DealTokenManager.sol\";\n\n/// This represents different state during issuing process; Certain actions are only allowed within certain state\nenum State {\n    INACTIVE, // before deal issuance creation, default state\n    OFFERLIVE, // offer period has started but not closed\n    OFFERCLOSED, // offer period has closed out but investment/tokens not allocated yet\n    ISSUED, // investment/tokens have been allocated and official issuance started\n    CANCELLED, // deal issuance has been cancelled due to insuffient fund raised, or other reasons\n    REDEEMED // the end of deal lifecycle - maturity or early redemption; principle investment and any last coupons are paid out, all o/s deal tokens are destroyed\n}\n\n/// This represents an unique investor\nstruct Investor {\n    address addr;\n    mapping(address => bool) isExisting;\n    string[] dealsBidded; // a ventor of the deal issuance ISINs the investor has participated in bidding\n    uint256 totalBalance; // in terms of stablecoin\n    uint256 totalLockedInBid; // in terms of stablecoin\n    uint256 availBalance; // totalBalance minus totalLockedInBid\n    mapping(string => bool) isOfferClosed; // mapping deal ISIN to a boolean; \"true\" means that the issuance offer period is closed\n    mapping(string => bool) isBidSuccessful; // mapping deal ISIN to a boolean; \"true\" means that investor'd bid to an issuance is successful\n    mapping(string => uint256) lockedInBid; // mapping deal ISIN to investment amount the investor has allocated to that deal\n}\n\n/// This represents an unique issuer\nstruct Issuer {\n    address addr;\n    string name;\n    string creditRating;\n    mapping(address => bool) isExisting;\n    string[] dealsIssued; // A vector of issuance ISINs\n    uint256 totalIssuedAmount;\n    uint256 totalEscrowFundLockedIn;\n    uint256 totalAvailBalance;\n    mapping(string => uint256) finalSize; // mapping deal ISIN to final size raised for that issuance, including escrow allocation\n    mapping(string => uint256) escrowFundLockedIn; //mapping deal ISIN to allocated escrow fund lock-in in Issuer wallet for that particular issuance\n    mapping(string => uint256) availBalance; //mapping deal ISIN to available balance of the Issuer wallet (finalSize - escrow at the beginning; can be zero in between payment dates; must have enough fund 5bd before next payment date)\n}\n\n/// This represents an unique DealToken\nstruct Token {\n    address tokenAddr;\n    address issuer;\n    string name;\n    string symbol; // use issuance ISIN as token symbol\n    uint256 totalSupply; // finalSize divided by facevalue\n}\n\n/// This represents an unique issuance\nstruct DealIssuance {\n    string ISIN; // the 12-digit unique identifier of an issuance\n    string dealName;\n    uint256 initSize; // front-end needs to pass this value in units of our stablecoin of choice\n    uint256 minSize; // minimum launch size, same unit of measurement as above\n    uint256 faceValue; // it represents value of 1 deal token (the min investment unit); same unit of measurement as above\n    uint256 offerPrice; // price of the bond, typically 100% of faceValue, can also be at a premium or discount\n    uint256 offerStartTime; // use deal creation time block timestamp for now\n    uint256 offerCloseTime; // either a fixed date/time, or a reletive one (i.e. 5 days after offerStartTime). For now use fixed\n    uint256 issueDate; // use offerCloseTime as issueDate for now, but keep the field open for issuer flexibility\n    uint256 term; // number of seconds, minutes, hours, days, or weeks (no more years since v0.5.0 due to leap seconds concerns). For now use number of DAYS\n    uint256 maturityDate; // issueDate + tenor\n    uint256 interestRate; // either floating or fixed. Assuming fixed rate for now (i.e. 2,125 means 2.125%)\n    uint256[] interestPaymentDates; // for now start with zero-coupon bond (meaning no interim coupons but bond selling at a discount to face value); keep the field for future dev\n    uint256 upfrontFee; // this is the fee Issuer wants to charge for the issuance (i.e. 2,000 means 2% fee of total issue size)\n    uint256 escrowRatio; // for now use 5% of total size; later on change to more specific, i.e. 1 or 2 coupon payments equivalent\n    uint256 finalSize; // this is the final issuance size, determined by min(initSize, total investor bids), and only if total investor bids >= minSize\n    uint256 totalEscrowAmount;\n    Token token;\n    State state;\n    bool isOfferLive;\n    bool isOfferClosed;\n    mapping(string => bool) isExistingISIN; // map out ISIN to whether ISIN's been used in existing issuance\n    address issuer;\n    address[] investors;\n    uint256 investorCount;\n    uint256 totalInvestorBid;\n    mapping(address => bool) investorAlreadyBid;\n}\n\n/// ========================\nlibrary IssuerSet {\n    function insert(Issuer storage _self, address _addr) public returns (bool) {\n        if (_self.isExisting[_addr]) return false; // already there\n        _self.isExisting[_addr] = true;\n        return true;\n    }\n\n    function remove(Issuer storage _self, address _addr) public returns (bool) {\n        if (!_self.isExisting[_addr]) return false; // not there\n        _self.isExisting[_addr] = false;\n        return true;\n    }\n\n    function contains(Issuer storage _self, address _addr)\n        public\n        view\n        returns (bool)\n    {\n        return _self.isExisting[_addr];\n    }\n}\n\n/// ========================\nlibrary DealSet {\n    function insert(DealIssuance storage _self, string memory _ISIN)\n        public\n        returns (bool)\n    {\n        if (_self.isExistingISIN[_ISIN]) return false; // already there\n        _self.isExistingISIN[_ISIN] = true;\n        return true;\n    }\n\n    function remove(DealIssuance storage _self, string memory _ISIN)\n        public\n        returns (bool)\n    {\n        if (!_self.isExistingISIN[_ISIN]) return false; // not there\n        _self.isExistingISIN[_ISIN] = false;\n        return true;\n    }\n\n    function contains(DealIssuance storage _self, string memory _ISIN)\n        public\n        view\n        returns (bool)\n    {\n        return _self.isExistingISIN[_ISIN];\n    }\n}\n\n/// ========================\nlibrary InvestorSet {\n    function insert(Investor storage _self, address _addr)\n        public\n        returns (bool)\n    {\n        if (_self.isExisting[_addr]) return false; // already there\n        _self.isExisting[_addr] = true;\n        return true;\n    }\n\n    function remove(Investor storage _self, address _addr)\n        public\n        returns (bool)\n    {\n        if (!_self.isExisting[_addr]) return false; // not there\n        _self.isExisting[_addr] = false;\n        return true;\n    }\n\n    function contains(Investor storage _self, address _addr)\n        public\n        view\n        returns (bool)\n    {\n        return _self.isExisting[_addr];\n    }\n}\n\n/**\n * @title Deal\n * @author 0xYue\n * @notice This contract represents the entire deal issuance book-building process (incl creation of new deals and minting/allocation of the deal token\n * @dev Implementation for USDC stablecoin yet to be finalized. Might need to create our own fake USDC for testing purposes\n * @dev Oversized now!!! Must break this into a few separate contracts such as Helper functions, event interface, etc.\n * @dev To add @param to all sub-functions\n * @dev To implement all Ownable and Pausible functions\n * @dev To finalize all events and Modifiers\n * @dev To check and finalize all function visibilities\n * @dev To implement existing issuer/investor/token name...checking at all relevant places\n * @dev To implement more search functions\n * @dev To use SafeMath at all places (incl ++ calculations)\n * @dev To change to SafeERC20 functions later\n * @dev To integrate with Chainlink oracle adaptors and keepers\n * @dev To implement decimals to our DealToken\n * @dev To implement global fee\n */\n//contract Deal is Ownable {\ncontract Deal {\n    /// Libraries\n    using SafeERC20 for IERC20;\n    using SafeMath for uint256;\n    using SafeMath for uint256;\n\n    using IssuerSet for Issuer;\n    using DealSet for DealIssuance;\n    using InvestorSet for Investor;\n\n    event LogCreateIssuer(\n        address indexed _issuer,\n        string _name,\n        string _creditRating\n    );\n    event LogEditIssuerMetaData(\n        address indexed _issuer,\n        string _name,\n        string _creditRating\n    );\n\n    event LogCreateDealIssuance(\n        address indexed _issuer,\n        string indexed _ISIN,\n        string _dealName,\n        uint256 _initSize,\n        uint256 _minSize,\n        uint256 _faceValue,\n        uint256 _offerPrice,\n        uint256 _offerStartTime,\n        uint256 _offerCloseTime,\n        uint256 _term,\n        uint256 _interestRate,\n        uint256[] _interestPaymentDates,\n        uint256 _upfrontFee\n        //uint256 _escrowRatio\n    );\n\n    event LogEditDealIssuance(\n        address indexed _issuer,\n        string indexed _ISIN,\n        string _newDealName,\n        uint256 _newInitSize,\n        uint256 _newMinSize,\n        uint256 _newOfferPrice,\n        uint256 _newOfferCloseTime,\n        uint256 _newTerm,\n        uint256 _newInterestRate,\n        uint256[] _newInterestPaymentDates,\n        uint256 _newUpfrontFee,\n        uint256 _newEscrowRatio\n    );\n\n    event LogEditTokenMetaData(\n        address indexed _issuer,\n        string indexed _ISIN,\n        string _newName\n    );\n    event LogCreateToken(\n        address indexed _issuer,\n        string indexed _ISIN,\n        string _name,\n        string _symbol,\n        uint256 _totalSupply\n    );\n\n    event LogCancelDeal(address indexed _issuer, string indexed _ISIN);\n    event LogIssueNewDeal(\n        address indexed _issuer,\n        string indexed _ISIN,\n        address _token,\n        uint256 _finalSize,\n        address[] _investors\n    );\n\n    event LogTransferDealToken(\n        string indexed _ISIN,\n        address _token,\n        address _investorAddr,\n        uint256 _tokenAmount\n    );\n\n    address private owner; // dapp owner address\n    uint256 private balance; // balance of the Deal contract wallet\n    uint256 private globalFee; // this is the fee our dapp charges; Assume a flat 5% of total issue size for now\n    uint256 private feeRateDecimal; // use 3 for now\n    uint256 private percentageDecimal; // this is used in percentage calculations\n\n    uint256 public dealCount; // total number of deals created in the dapp\n    mapping(string => DealIssuance) deals; // map out ISIN to DealIssuance struct object\n\n    uint256 public issuerCount; // total number of issuers in the dapp\n    mapping(address => Issuer) issuers; // map out issuer address to Issuer struct object\n\n    uint256 public totalInvestorCount; // total number of investors in the dApp\n    mapping(address => Investor) investors; // map out investor address to Investor struct object\n\n    DealTokenFactory public factory;\n    DealTokenManager public manager;\n\n    uint256 public tokenCount;\n    mapping(address => address[]) public tracker_0x_addresses; // map out issuer address to a vector of addresses of DealTokens issued\n\n    // USD Coin tracker address on Ethereum mainnet\n    //address public constant USDC = 0xa0b86991c6218b36c1d19d4a2e9eb0ce3606eb48;\n\n    // =========================\n    /// PLACEHOLDER for Modifiers\n    modifier isOfferLive(string memory _ISIN) {\n        require(deals[_ISIN].isOfferLive, \"Issuance offer period is NOT live\");\n        _;\n    }\n\n    modifier isOfferClosed(string memory _ISIN) {\n        require(\n            deals[_ISIN].isOfferClosed,\n            \"Issuance offer period is NOT closed yet\"\n        );\n        _;\n    }\n\n    ///...Add more modifiers here...\n\n    /**\n     * @notice Constructor\n     */\n    constructor() {\n        owner = msg.sender;\n        globalFee = 5000; // this represents 5% when feeRateDecimal = 3 (for now)\n        feeRateDecimal = 3;\n        percentageDecimal = 2;\n        factory = new DealTokenFactory();\n        manager = new DealTokenManager();\n    }\n\n    // =========================\n    receive() external payable {\n        balance += msg.value;\n    }\n\n    /**\n     * @dev Contract Destructor - Mortal design pattern to destroy contract and remove from blockchain\n     *\n    function kill() public onlyOwner {\n        selfdestruct(address(uint160(owner()))); /// cast owner to address payable\n    }\n    */\n\n    /**\n     * @notice Create issuer & set meta data details\n     */\n    function createIssuer(string memory _name, string memory _creditRating)\n        public\n    {\n        Issuer storage issuer = issuers[msg.sender];\n        require(issuer.insert(msg.sender)); // Using my Library IssuerSet here\n\n        issuer.name = _name;\n        issuer.creditRating = _creditRating;\n\n        issuerCount++;\n        emit LogCreateIssuer(msg.sender, _name, _creditRating);\n    }\n\n    /**\n     * @notice Edit issuer meta data\n     */\n    function editIssuerMetaData(\n        address _addr,\n        string memory _newName,\n        string memory _newCreditRating\n    ) public {\n        require(\n            msg.sender == _addr,\n            \"DEAL:: editIssuerDetails: Caller is NOT the issuer\"\n        );\n        issuers[_addr].name = _newName;\n        issuers[_addr].creditRating = _newCreditRating;\n\n        emit LogEditIssuerMetaData(_addr, _newName, _newCreditRating);\n    }\n\n    /**\n     * @notice Edit issuer details after new deal offer is closed and set to launch\n     */\n    function editIssuerDetailsPostNewIssuance(\n        string memory _ISIN,\n        address _addr\n    ) internal {\n        DealIssuance storage deal = deals[_ISIN];\n        Issuer storage _issuer = issuers[_addr];\n\n        _issuer.dealsIssued.push() = _ISIN;\n        _issuer.totalIssuedAmount = safeAdd(\n            _issuer.totalIssuedAmount,\n            deal.finalSize\n        );\n        _issuer.totalEscrowFundLockedIn = safeAdd(\n            _issuer.totalEscrowFundLockedIn,\n            deal.totalEscrowAmount\n        );\n        _issuer.totalAvailBalance = safeSub(\n            _issuer.totalIssuedAmount,\n            _issuer.totalEscrowFundLockedIn\n        );\n\n        _issuer.finalSize[_ISIN] = deal.finalSize;\n        _issuer.escrowFundLockedIn[_ISIN] = deal.totalEscrowAmount;\n        _issuer.availBalance[_ISIN] = deal.finalSize - deal.totalEscrowAmount;\n    }\n\n    /**\n     * @notice Edit investor details after new deal offer is closed and set to launch\n     */\n    function editInvestorDetailsPostNewIssuance(\n        string memory _ISIN,\n        Investor storage _investor\n    ) internal {\n        _investor.isOfferClosed[_ISIN] = true;\n        _investor.isBidSuccessful[_ISIN] = true;\n    }\n\n    /**\n     * @notice Get all issuer details by issuer address; must be called by issuer\n     */\n    function getAllIssuerDetailsByAddr(address _addr)\n        public\n        view\n        returns (\n            string memory name,\n            string memory creditRating,\n            string[] memory dealsIssued,\n            uint256 totalIssuedAmount,\n            uint256 totalEscrowFundLockedIn,\n            uint256 totalAvailBalance\n        )\n    {\n        require(\n            msg.sender == _addr,\n            \"DEAL:: getAllIssuerDetailsByAddr: Caller is NOT the issuer\"\n        );\n\n        Issuer storage issuer = issuers[_addr];\n        return (\n            issuer.name,\n            issuer.creditRating,\n            issuer.dealsIssued,\n            issuer.totalIssuedAmount,\n            issuer.totalEscrowFundLockedIn,\n            issuer.totalAvailBalance\n        );\n    }\n\n    /**\n     * @notice Get public issuer details by issuance ISIN\n     */\n    function getIssuerMetaDataByISIN(string memory _ISIN)\n        public\n        view\n        returns (string memory issuerName, string memory creditRating)\n    {\n        return (\n            issuers[deals[_ISIN].issuer].name,\n            issuers[deals[_ISIN].issuer].creditRating\n        );\n    }\n\n    /**\n     * @dev Get investor details - investors can view their own details via this function call\n     */\n    function getAllInvestorDetails(address _addr)\n        public\n        view\n        returns (\n            string[] memory dealsBidded,\n            uint256 totalBalance,\n            uint256 totalLockedInBid,\n            uint256 availBalance\n        )\n    {\n        require(\n            msg.sender == _addr,\n            \"DEAL:: getAllInvestorDetails: Caller is NOT the investor\"\n        );\n\n        return (\n            investors[_addr].dealsBidded,\n            investors[_addr].totalBalance,\n            investors[_addr].totalLockedInBid,\n            investors[_addr].availBalance\n        );\n    }\n\n    /**\n     * @notice Get issuance details (state, name, dates, terms) by issuance ISIN\n     * @dev split DealIssuance getter functions into a few separate ones, otherwise stack too deep :(\n     */\n    function getIssuanceStateNameRateDatesDetailsByISIN(string memory _ISIN)\n        public\n        view\n        returns (\n            State state,\n            string memory dealName,\n            uint256 offerStartTime,\n            uint256 offerCloseTime,\n            uint256 term,\n            uint256 interestRate,\n            uint256[] memory interestPaymentDates\n        )\n    {\n        DealIssuance storage deal = deals[_ISIN];\n        return (\n            deal.state,\n            deal.dealName,\n            deal.offerStartTime,\n            deal.offerCloseTime,\n            deal.term,\n            deal.interestRate,\n            deal.interestPaymentDates\n        );\n    }\n\n    /**\n     * @notice Get issuance details (size, price, fee, escrow, total invetor bid) by issuance ISIN\n     * @dev split DealIssuance getter functions into a few separate ones, otherwise stack too deep :(\n     */\n    function getIssuanceSizePriceTotalBidDetailsByISIN(string memory _ISIN)\n        public\n        view\n        returns (\n            uint256 initSize,\n            uint256 minSize,\n            uint256 faceValue,\n            uint256 offerPrice,\n            uint256 upfrontFee,\n            uint256 escrowRatio,\n            uint256 totalInvestorBid\n        )\n    {\n        DealIssuance storage deal = deals[_ISIN];\n        return (\n            deal.initSize,\n            deal.minSize,\n            deal.faceValue,\n            deal.offerPrice,\n            deal.upfrontFee,\n            deal.escrowRatio,\n            deal.totalInvestorBid\n        );\n    }\n\n    /**\n     * @notice Update details of a deal issuance after it's created & before the offer period is closed\n     * @dev For now we do NOT allow issuers to change ISIN and faceValue (to avoid stack too deep)\n     */\n    function editDealIssuance(\n        string memory _ISIN,\n        string memory _newDealName,\n        uint256 _newInitSize,\n        uint256 _newMinSize,\n        uint256 _newOfferPrice,\n        uint256 _newOfferCloseTime,\n        uint256 _newTerm,\n        uint256 _newInterestRate,\n        uint256[] memory _newInterestPaymentDates,\n        uint256 _newUpfrontFee,\n        uint256 _newEscrowRatio\n    ) public {\n        require(\n            msg.sender == deals[_ISIN].issuer,\n            \"DEAL:: editDealIssuance: Caller is NOT the issuer\"\n        );\n        require(\n            deals[_ISIN].isOfferLive,\n            \"DEAL:: editDealIssuance: You cannot edit an issuance when it is NOT live\"\n        );\n\n        DealIssuance storage deal = deals[_ISIN];\n\n        deal.dealName = _newDealName;\n        deal.initSize = _newInitSize;\n        deal.minSize = _newMinSize;\n        deal.offerPrice = _newOfferPrice;\n        deal.offerCloseTime = _newOfferCloseTime;\n        deal.term = _newTerm;\n        deal.interestRate = _newInterestRate;\n        deal.interestPaymentDates = _newInterestPaymentDates;\n        deal.upfrontFee = _newUpfrontFee;\n        deal.escrowRatio = _newEscrowRatio;\n\n        emit LogEditDealIssuance(\n            msg.sender,\n            _ISIN,\n            _newDealName,\n            _newInitSize,\n            _newMinSize,\n            _newOfferPrice,\n            _newOfferCloseTime,\n            _newTerm,\n            _newInterestRate,\n            _newInterestPaymentDates,\n            _newUpfrontFee,\n            _newEscrowRatio\n        );\n    }\n\n    /**\n     * @notice Create token meta data (name & symbol) for a new issuance\n     */\n    function createTokenMetaData(string memory _ISIN, string memory _name)\n        public\n    {\n        DealIssuance storage deal = deals[_ISIN];\n        require(\n            deal.isOfferLive,\n            \"DEAL:: createTokenMetaData: Offer is not live\"\n        );\n        require(\n            msg.sender == deal.issuer,\n            \"DEAL:: createTokenMetaData: Caller is NOT the issuer\"\n        );\n\n        deal.token.issuer = msg.sender;\n        deal.token.name = _name;\n        deal.token.symbol = _ISIN;\n    }\n\n    /**\n     * @notice Get token details for the corresponding issuance\n     */\n    function getTokenDetails(string memory _ISIN)\n        public\n        view\n        returns (\n            string memory tokenName,\n            string memory symbol,\n            uint256 totalSupply\n        )\n    {\n        return (\n            deals[_ISIN].token.name,\n            deals[_ISIN].token.symbol,\n            deals[_ISIN].token.totalSupply\n        );\n    }\n\n    /**\n     * @notice Edit token meta data for the corresponding issuance\n     */\n    function editTokenMetaData(string memory _ISIN, string memory _newName)\n        public\n    {\n        require(\n            msg.sender == deals[_ISIN].issuer,\n            \"DEAL:: editTokenDetails: Caller is NOT the issuer\"\n        );\n        require(\n            !deals[_ISIN].isOfferClosed,\n            \"DEAL:: editTokenMetaData: Offer period is already closed \"\n        );\n\n        deals[_ISIN].token.name = _newName;\n        deals[_ISIN].token.symbol = _ISIN;\n        emit LogEditTokenMetaData(msg.sender, _ISIN, _newName);\n    }\n\n    // ====================================================\n    /**\n     * @notice Create a new deal issuance, set its details in storage, & offer period starts\n     * @dev Ignored escrowRatio for now, assuming a fixed 5%\n     * @dev Might need to break this into a few separate sub-functions coz stack can become too deep\n     */\n    function createDealIssuance(\n        //address _issuer,\n        string memory _ISIN,\n        string memory _dealName,\n        uint256 _initSize,\n        uint256 _minSize,\n        uint256 _faceValue,\n        uint256 _offerPrice,\n        //uint _offerStartTime,\n        uint256 _offerCloseTime,\n        uint256 _term,\n        uint256 _interestRate,\n        uint256[] memory _interestPaymentDates,\n        uint256 _upfrontFee\n    ) public //uint256 _escrowRatio\n    {\n        DealIssuance storage deal = deals[_ISIN];\n        require(deal.insert(_ISIN)); // Using my Library DealSet here\n\n        deal.issuer = msg.sender;\n        deal.ISIN = _ISIN;\n        deal.dealName = _dealName;\n        deal.initSize = _initSize;\n        deal.minSize = _minSize;\n        deal.faceValue = _faceValue;\n        deal.offerPrice = _offerPrice;\n        deal.offerStartTime = block.timestamp; // assuming offer period starts immediately after issuer creates the new issuance\n        deal.offerCloseTime = _offerCloseTime;\n        deal.term = _term;\n        deal.interestRate = _interestRate;\n        deal.interestPaymentDates = _interestPaymentDates;\n        deal.upfrontFee = _upfrontFee;\n        deal.escrowRatio = 5000; // this represents 5% with 3 decimals\n\n        deal.state = State.OFFERLIVE;\n        deal.isOfferLive = true;\n        dealCount++;\n\n        emit LogCreateDealIssuance(\n            msg.sender,\n            _ISIN,\n            _dealName,\n            _initSize,\n            _minSize,\n            _faceValue,\n            _offerPrice,\n            deal.offerStartTime,\n            _offerCloseTime,\n            _term,\n            _interestRate,\n            _interestPaymentDates,\n            _upfrontFee\n        );\n    }\n\n    /**\n     * @notice Step 1 - Close deal offering (book-building) process;\n     *         Step 2 - Decide whether to launch the official issuance period, or cancel;\n     *         Step 3 - Transfer investor fund to escrow account & the rest to issuer wallet;\n     *         Step 4 - Mint DealToken for the issuance, calculate investor allocation then allocate accordingly;\n     *         Step 5 - Update all relevant details for the issuance, the issuer, and the investors\n     * @dev TODIItem - This function needs to be called by Chainlink keepers when timestamp clicks pre-set offerCloseTime\n     * @dev TODOItem - Need to figure out USDC Kovan testnet tracker contract address for testing purposes\n     * @dev Might have to create our own fake USDC for testing purposes!\n     */\n    function closeDealOffering(string memory _ISIN) public returns (bool) {\n        // Need to revise this modifier becoz function will be called by external Chainlink keeper we set up...\n        require(\n            msg.sender == deals[_ISIN].issuer,\n            \"DEAL:: closeDealOffering: Caller is NOT the issuer\"\n        );\n        require(\n            deals[_ISIN].isOfferLive,\n            \"DEAL:: closeDealOffering: Offer cannot be closed because it is NOT live\"\n        );\n\n        DealIssuance storage deal = deals[_ISIN];\n        Issuer storage _issuer = issuers[deal.issuer];\n\n        deal.state = State.OFFERCLOSED;\n        deal.isOfferLive = false;\n        deal.isOfferClosed = true;\n\n        bool toLaunch = assessDealOfferingFinalStatus(_ISIN);\n        uint256 finalSize = deal.finalSize;\n\n        if (!toLaunch) {\n            cancelDeal(_ISIN);\n            return false; // return false means offer is cancelled\n        } else {\n            // deal token is only minted at this stage\n            mintToken(_ISIN, deal.issuer);\n            // need to be precise to pre-defined feeRateDecimal\n            uint256 ratioInDecimal = safeDiv(\n                safeMul(finalSize, 10**feeRateDecimal),\n                deal.totalInvestorBid\n            );\n            uint256 finalAllocation;\n\n            for (uint256 i = 0; i < deal.investors.length; i++) {\n                address investorAddr = deal.investors[i];\n\n                // must adjust investor allocation when deal is overbid; no need otherwise\n                if (deal.totalInvestorBid > finalSize) {\n                    // convert back to normal number without decimals\n                    finalAllocation = safeDiv(\n                        safeMul(\n                            ratioInDecimal,\n                            investors[investorAddr].lockedInBid[_ISIN]\n                        ),\n                        10**feeRateDecimal\n                    );\n\n                    // convert escrowRatio to num w/o decimals, then convert to percentage value before safeMul with finalAllocation\n                    deal.totalEscrowAmount = safeAdd(\n                        deal.totalEscrowAmount,\n                        safeDiv(\n                            safeMul(\n                                safeDiv(deal.escrowRatio, 10**feeRateDecimal),\n                                finalAllocation\n                            ),\n                            10**percentageDecimal\n                        )\n                    );\n\n                    investors[investorAddr].lockedInBid[\n                        _ISIN\n                    ] = finalAllocation;\n                    // finalSize is capped at initSize; so must adjust allocated investment amount for each investor\n                    adjustInvestorAllocation(\n                        _ISIN,\n                        finalAllocation,\n                        investorAddr\n                    );\n                }\n                // deal token & investment stablecoin transfer\n                transferStableCoin(_ISIN, investorAddr, finalAllocation);\n                transferDealToken(_ISIN, investorAddr, finalAllocation);\n\n                editInvestorDetailsPostNewIssuance(\n                    _ISIN,\n                    investors[investorAddr]\n                );\n            }\n\n            deal.totalInvestorBid = safeDiv(\n                safeMul(ratioInDecimal, deal.totalInvestorBid),\n                10**feeRateDecimal\n            );\n            deal.state = State.ISSUED;\n\n            editIssuerDetailsPostNewIssuance(_ISIN, deal.issuer);\n\n            emit LogIssueNewDeal(\n                deal.issuer,\n                _ISIN,\n                deal.token.tokenAddr,\n                finalSize,\n                deal.investors\n            );\n\n            return true; // return true means offer is successfully closed & deal issued\n        }\n    }\n\n    /**\n     * @notice Count total investor bids to assess whether to launch and corresponding actions\n     */\n    function assessDealOfferingFinalStatus(string memory _ISIN)\n        internal\n        returns (bool)\n    {\n        if (deals[_ISIN].totalInvestorBid >= deals[_ISIN].minSize) {\n            deals[_ISIN].finalSize = Math.min(\n                deals[_ISIN].totalInvestorBid,\n                deals[_ISIN].initSize\n            );\n            return true;\n        } else {\n            return false;\n        }\n    }\n\n    /**\n     * @notice Adjust allocated investment amount for each investor\n     * @dev Function is called only when totalInvestorBid > finalSize\n     */\n    function adjustInvestorAllocation(\n        string memory _ISIN,\n        uint256 _finalAllocation,\n        address _investorAddr\n    ) internal {\n        Investor storage investor = investors[_investorAddr];\n\n        investor.totalBalance = safeSub(\n            investor.totalBalance,\n            _finalAllocation\n        );\n        investor.totalLockedInBid = safeSub(\n            investor.totalLockedInBid,\n            investor.lockedInBid[_ISIN]\n        );\n        investor.availBalance = safeSub(\n            investor.totalBalance,\n            investor.totalLockedInBid\n        );\n    }\n\n    /**\n     * @notice Transfer stablecoin funding from investors to issuer\n     * @dev Might need to create our own fake USDC for testing purposes!!\n     */\n    function transferStableCoin(\n        string memory _ISIN,\n        address _investorAddr,\n        uint256 _allocation\n    ) internal {\n        DealIssuance storage deal = deals[_ISIN];\n        address issuer = deal.issuer;\n\n        // transfer investor fund to dapp wallet, and assuming\n        //   the owner of stablecoin tracker account has approved & given alllowance to investor wallet\n        //ERC20(USDC).transferFrom(_investorAddr, address(this), _allocation);\n    }\n\n    /**\n     * @notice Transfer allocated deal tokens to investors\n     */\n    function transferDealToken(\n        string memory _ISIN,\n        address _investorAddr,\n        uint256 _allocation\n    ) internal {\n        DealIssuance storage deal = deals[_ISIN];\n\n        address tokenAddr = deal.token.tokenAddr;\n        uint256 tokenAmount = safeDiv(_allocation, deal.faceValue);\n        manager.transfer(tokenAddr, _investorAddr, tokenAmount);\n\n        emit LogTransferDealToken(_ISIN, tokenAddr, _investorAddr, tokenAmount);\n    }\n\n    /**\n     * @notice Cancel the deal issuance due to totalInvestorBid < minLaunchSize\n     */\n    function cancelDeal(string memory _ISIN) internal {\n        deals[_ISIN].state = State.CANCELLED;\n        emit LogCancelDeal(deals[_ISIN].issuer, _ISIN);\n    }\n\n    /**\n     * @notice Mint a new token for the new issuance\n     * @dev TODOItem - might need to change to private function later\n     */\n    function mintToken(string memory _ISIN, address _issuerAddr) internal {\n        require(\n            msg.sender == _issuerAddr,\n            \"DEAL:: mintToken: Caller is NOT the issuer\"\n        );\n\n        DealIssuance storage deal = deals[_ISIN];\n        //require(deal.token.name != \"\", \"DEAL:: mintToken: Token name is not set\");\n\n        string memory _name = deal.token.name;\n        string memory _symbol = deal.token.symbol;\n        uint256 _totalSupply = safeDiv(deal.finalSize, deal.faceValue);\n        deal.token.totalSupply = _totalSupply;\n\n        address addr = factory.createToken(_name, _symbol, _totalSupply);\n        manager.setTokenOwner(addr, address(this));\n\n        DealToken(addr).increaseAllowance(address(manager), _totalSupply);\n\n        tracker_0x_addresses[_issuerAddr].push() = addr;\n        tokenCount++;\n\n        emit LogCreateToken(_issuerAddr, _ISIN, _name, _symbol, _totalSupply);\n    }\n\n    /**\n     * @notice Investor deposit stablecoin fund (USDC) into the dapp\n     * @dev Implement USDC transfer here after getting some test USDCs\n     */\n    function investorMakeDeposit(IERC20 _stableCoin, uint256 _amount) public {\n        //ERC20(USDC).transfer(address(this), _amount);\n        Investor storage investor = investors[msg.sender];\n\n        investor.totalBalance = safeAdd(investor.totalBalance, _amount);\n        investor.availBalance = safeAdd(investor.availBalance, _amount);\n\n        // Call library InvestorSet to see if investor already exists\n        if (investor.insert(msg.sender)) {\n            totalInvestorCount++;\n        }\n        //emit LogInvestorMakeDeposit(msg.sender, _amount);\n    }\n\n    /**\n     * @notice Investor makes a bid to invest in an issuance during offer period\n     */\n    function investorMakeBid(string memory _ISIN, uint256 _bidAmount) public {\n        DealIssuance storage deal = deals[_ISIN];\n        Investor storage investor = investors[msg.sender];\n\n        require(\n            !deal.investorAlreadyBid[msg.sender],\n            \"DEAL:: investorMakeBid: you have already made a bid\"\n        );\n        require(deal.isOfferLive, \"DEAL:: investorMakeBid: offer is NOT live\");\n        require(\n            _bidAmount <= investor.totalBalance,\n            \"DEAL:: investorMakeBid: insuffient fund\"\n        );\n\n        deal.totalInvestorBid = safeAdd(deal.totalInvestorBid, _bidAmount);\n\n        investor.dealsBidded.push() = _ISIN;\n        investor.totalLockedInBid = safeAdd(\n            investor.totalLockedInBid,\n            _bidAmount\n        );\n        investor.availBalance = safeSub(\n            investor.totalBalance,\n            investor.totalLockedInBid\n        );\n\n        //investor.isOfferClosed[_ISIN] = false;\n        //investor.isBidSuccessful[_ISIN] = false;\n        investor.lockedInBid[_ISIN] = _bidAmount;\n\n        deal.investors.push() = msg.sender;\n        deal.investorCount++;\n        deal.investorAlreadyBid[msg.sender] = true;\n        //*** emit LogMakeBid(); ***\n    }\n\n    function getBidDetails(string memory _ISIN, address _addr) external {\n        //......\n    }\n\n    function investorEditBid(string memory _ISIN, address _addr) external {\n        //......\n    }\n\n    function investorCancelBid(string memory _ISIN, address _addr) external {\n        //......\n    }\n\n    function investorWithdraw(address _addr, uint256 _amount) external {\n        //......\n    }\n\n    /***\n    function issuerWithdraw(address payable _issuerExternalAddr, string memory _ISIN, uint256 _amount) public {\n        require(msg.sender == deals[_ISIN].issuer, \"DEAL:: issuerWithdrawFund: Caller is NOT the issuer\");\n        require(_amount <= issuers[msg.sender][_ISIN].availableBalance, \"DEAL:: issuerWithdrawFund: Not enough available fund\");\n\n        issuers[msg.sender][_ISIN].availableBalance -= _amount;\n        _issuerExternalAddr.transfer(_amount);\n    } */\n\n    /// ================================================\n    ///*** Helper functions; To be moved to a separate Helper contract ***\n    function safeAdd(uint256 _a, uint256 _b) internal pure returns (uint256) {\n        return SafeMath.add(_a, _b);\n    }\n\n    function safeSub(uint256 _a, uint256 _b) internal pure returns (uint256) {\n        return SafeMath.sub(_a, _b);\n    }\n\n    function safeMul(uint256 _a, uint256 _b) internal pure returns (uint256) {\n        return SafeMath.mul(_a, _b);\n    }\n\n    function safeDiv(uint256 _a, uint256 _b) internal pure returns (uint256) {\n        return SafeMath.div(_a, _b);\n    }\n\n    /// ===============================================\n    /**\n    function issuerTopUpEscrow(string memory _ISIN) public {}\n\n    function payInterimCoupon()\n\n    function redeemAtMaturity()\n\n    function handleDefaultEvent()\n*/\n}\n",
	"sourcePath": "/home/yosephkurniasoenggoro/Documents/GitHub/PrimeDefi/contracts/Deal.sol",
	"compiler": {
		"name": "solc",
		"version": "0.8.0+commit.c7dfd78e.Emscripten.clang"
	},
	"schemaVersion": "3.4.3",
	"updatedAt": "2021-11-20T04:30:34.818Z",
	"devdoc": {
		"author": "0xYue",
		"details": "Implementation for USDC stablecoin yet to be finalized. Might need to create our own fake USDC for testing purposesOversized now!!! Must break this into a few separate contracts such as Helper functions, event interface, etc.To add @param to all sub-functionsTo implement all Ownable and Pausible functionsTo finalize all events and ModifiersTo check and finalize all function visibilitiesTo implement existing issuer/investor/token name...checking at all relevant placesTo implement more search functionsTo use SafeMath at all places (incl ++ calculations)To change to SafeERC20 functions laterTo integrate with Chainlink oracle adaptors and keepersTo implement decimals to our DealTokenTo implement global fee",
		"kind": "dev",
		"methods": {
			"closeDealOffering(string)": {
				"details": "TODIItem - This function needs to be called by Chainlink keepers when timestamp clicks pre-set offerCloseTimeTODOItem - Need to figure out USDC Kovan testnet tracker contract address for testing purposesMight have to create our own fake USDC for testing purposes!"
			},
			"createDealIssuance(string,string,uint256,uint256,uint256,uint256,uint256,uint256,uint256,uint256[],uint256)": {
				"details": "Ignored escrowRatio for now, assuming a fixed 5%Might need to break this into a few separate sub-functions coz stack can become too deep"
			},
			"editDealIssuance(string,string,uint256,uint256,uint256,uint256,uint256,uint256,uint256[],uint256,uint256)": {
				"details": "For now we do NOT allow issuers to change ISIN and faceValue (to avoid stack too deep)"
			},
			"getAllInvestorDetails(address)": {
				"details": "Get investor details - investors can view their own details via this function call"
			},
			"getIssuanceSizePriceTotalBidDetailsByISIN(string)": {
				"details": "split DealIssuance getter functions into a few separate ones, otherwise stack too deep :("
			},
			"getIssuanceStateNameRateDatesDetailsByISIN(string)": {
				"details": "split DealIssuance getter functions into a few separate ones, otherwise stack too deep :("
			},
			"investorMakeDeposit(address,uint256)": {
				"details": "Implement USDC transfer here after getting some test USDCs"
			}
		},
		"title": "Deal",
		"version": 1
	},
	"userdoc": {
		"kind": "user",
		"methods": {
			"closeDealOffering(string)": {
				"notice": "Step 1 - Close deal offering (book-building) process;         Step 2 - Decide whether to launch the official issuance period, or cancel;         Step 3 - Transfer investor fund to escrow account & the rest to issuer wallet;         Step 4 - Mint DealToken for the issuance, calculate investor allocation then allocate accordingly;         Step 5 - Update all relevant details for the issuance, the issuer, and the investors"
			},
			"constructor": {
				"notice": "Constructor"
			},
			"createDealIssuance(string,string,uint256,uint256,uint256,uint256,uint256,uint256,uint256,uint256[],uint256)": {
				"notice": "Create a new deal issuance, set its details in storage, & offer period starts"
			},
			"createIssuer(string,string)": {
				"notice": "Create issuer & set meta data details"
			},
			"createTokenMetaData(string,string)": {
				"notice": "Create token meta data (name & symbol) for a new issuance"
			},
			"editDealIssuance(string,string,uint256,uint256,uint256,uint256,uint256,uint256,uint256[],uint256,uint256)": {
				"notice": "Update details of a deal issuance after it's created & before the offer period is closed"
			},
			"editIssuerMetaData(address,string,string)": {
				"notice": "Edit issuer meta data"
			},
			"editTokenMetaData(string,string)": {
				"notice": "Edit token meta data for the corresponding issuance"
			},
			"getAllIssuerDetailsByAddr(address)": {
				"notice": "Get all issuer details by issuer address; must be called by issuer"
			},
			"getIssuanceSizePriceTotalBidDetailsByISIN(string)": {
				"notice": "Get issuance details (size, price, fee, escrow, total invetor bid) by issuance ISIN"
			},
			"getIssuanceStateNameRateDatesDetailsByISIN(string)": {
				"notice": "Get issuance details (state, name, dates, terms) by issuance ISIN"
			},
			"getIssuerMetaDataByISIN(string)": {
				"notice": "Get public issuer details by issuance ISIN"
			},
			"getTokenDetails(string)": {
				"notice": "Get token details for the corresponding issuance"
			},
			"investorMakeBid(string,uint256)": {
				"notice": "Investor makes a bid to invest in an issuance during offer period"
			},
			"investorMakeDeposit(address,uint256)": {
				"notice": "Investor deposit stablecoin fund (USDC) into the dapp"
			}
		},
		"notice": "This contract represents the entire deal issuance book-building process (incl creation of new deals and minting/allocation of the deal token",
		"version": 1
	}
}